{
  "contracts/PreCrimeView.sol": {
    "PreCrimeView": {
      "abi": [
        {
          "inputs": [
            {
              "internalType": "address",
              "name": "_owner",
              "type": "address"
            },
            {
              "internalType": "uint16",
              "name": "_localChainId",
              "type": "uint16"
            },
            {
              "internalType": "address",
              "name": "_oftView",
              "type": "address"
            },
            {
              "internalType": "uint64",
              "name": "_maxSize",
              "type": "uint64"
            }
          ],
          "stateMutability": "nonpayable",
          "type": "constructor"
        },
        {
          "inputs": [],
          "name": "ErrInvalidSize",
          "type": "error"
        },
        {
          "anonymous": false,
          "inputs": [
            {
              "indexed": true,
              "internalType": "address",
              "name": "user",
              "type": "address"
            },
            {
              "indexed": true,
              "internalType": "address",
              "name": "newOwner",
              "type": "address"
            }
          ],
          "name": "OwnershipTransferred",
          "type": "event"
        },
        {
          "inputs": [],
          "name": "CODE_MISS_SIMULATE_RESULT",
          "outputs": [
            {
              "internalType": "uint16",
              "name": "",
              "type": "uint16"
            }
          ],
          "stateMutability": "view",
          "type": "function"
        },
        {
          "inputs": [],
          "name": "CODE_PACKETS_OVERSIZE",
          "outputs": [
            {
              "internalType": "uint16",
              "name": "",
              "type": "uint16"
            }
          ],
          "stateMutability": "view",
          "type": "function"
        },
        {
          "inputs": [],
          "name": "CODE_PACKETS_UNSORTED",
          "outputs": [
            {
              "internalType": "uint16",
              "name": "",
              "type": "uint16"
            }
          ],
          "stateMutability": "view",
          "type": "function"
        },
        {
          "inputs": [],
          "name": "CODE_PRECRIME_FAILURE",
          "outputs": [
            {
              "internalType": "uint16",
              "name": "",
              "type": "uint16"
            }
          ],
          "stateMutability": "view",
          "type": "function"
        },
        {
          "inputs": [],
          "name": "CODE_SUCCESS",
          "outputs": [
            {
              "internalType": "uint16",
              "name": "",
              "type": "uint16"
            }
          ],
          "stateMutability": "view",
          "type": "function"
        },
        {
          "inputs": [],
          "name": "CONFIG_VERSION",
          "outputs": [
            {
              "internalType": "uint16",
              "name": "",
              "type": "uint16"
            }
          ],
          "stateMutability": "view",
          "type": "function"
        },
        {
          "inputs": [],
          "name": "PRECRIME_VERSION",
          "outputs": [
            {
              "internalType": "uint16",
              "name": "",
              "type": "uint16"
            }
          ],
          "stateMutability": "view",
          "type": "function"
        },
        {
          "inputs": [
            {
              "components": [
                {
                  "internalType": "uint16",
                  "name": "srcChainId",
                  "type": "uint16"
                },
                {
                  "internalType": "bytes32",
                  "name": "srcAddress",
                  "type": "bytes32"
                },
                {
                  "internalType": "uint64",
                  "name": "nonce",
                  "type": "uint64"
                },
                {
                  "internalType": "bytes",
                  "name": "payload",
                  "type": "bytes"
                }
              ],
              "internalType": "struct IPreCrimeView.Packet[]",
              "name": "_packets",
              "type": "tuple[]"
            }
          ],
          "name": "getConfig",
          "outputs": [
            {
              "internalType": "bytes",
              "name": "",
              "type": "bytes"
            }
          ],
          "stateMutability": "view",
          "type": "function"
        },
        {
          "inputs": [],
          "name": "localChainId",
          "outputs": [
            {
              "internalType": "uint16",
              "name": "",
              "type": "uint16"
            }
          ],
          "stateMutability": "view",
          "type": "function"
        },
        {
          "inputs": [],
          "name": "maxBatchSize",
          "outputs": [
            {
              "internalType": "uint64",
              "name": "",
              "type": "uint64"
            }
          ],
          "stateMutability": "view",
          "type": "function"
        },
        {
          "inputs": [],
          "name": "oftView",
          "outputs": [
            {
              "internalType": "contract IOFTV2View",
              "name": "",
              "type": "address"
            }
          ],
          "stateMutability": "view",
          "type": "function"
        },
        {
          "inputs": [],
          "name": "owner",
          "outputs": [
            {
              "internalType": "address",
              "name": "",
              "type": "address"
            }
          ],
          "stateMutability": "view",
          "type": "function"
        },
        {
          "inputs": [
            {
              "components": [
                {
                  "internalType": "uint16",
                  "name": "srcChainId",
                  "type": "uint16"
                },
                {
                  "internalType": "bytes32",
                  "name": "srcAddress",
                  "type": "bytes32"
                },
                {
                  "internalType": "uint64",
                  "name": "nonce",
                  "type": "uint64"
                },
                {
                  "internalType": "bytes",
                  "name": "payload",
                  "type": "bytes"
                }
              ],
              "internalType": "struct IPreCrimeView.Packet[]",
              "name": "_packets",
              "type": "tuple[]"
            },
            {
              "internalType": "bytes[]",
              "name": "_simulation",
              "type": "bytes[]"
            }
          ],
          "name": "precrime",
          "outputs": [
            {
              "internalType": "uint16",
              "name": "code",
              "type": "uint16"
            },
            {
              "internalType": "bytes",
              "name": "reason",
              "type": "bytes"
            }
          ],
          "stateMutability": "view",
          "type": "function"
        },
        {
          "inputs": [
            {
              "internalType": "uint256",
              "name": "",
              "type": "uint256"
            }
          ],
          "name": "remoteChainIds",
          "outputs": [
            {
              "internalType": "uint16",
              "name": "",
              "type": "uint16"
            }
          ],
          "stateMutability": "view",
          "type": "function"
        },
        {
          "inputs": [
            {
              "internalType": "uint256",
              "name": "",
              "type": "uint256"
            }
          ],
          "name": "remotePrecrimeAddresses",
          "outputs": [
            {
              "internalType": "bytes32",
              "name": "",
              "type": "bytes32"
            }
          ],
          "stateMutability": "view",
          "type": "function"
        },
        {
          "inputs": [
            {
              "internalType": "uint64",
              "name": "_maxSize",
              "type": "uint64"
            }
          ],
          "name": "setMaxBatchSize",
          "outputs": [],
          "stateMutability": "nonpayable",
          "type": "function"
        },
        {
          "inputs": [
            {
              "internalType": "uint16[]",
              "name": "_remoteChainIds",
              "type": "uint16[]"
            },
            {
              "internalType": "bytes32[]",
              "name": "_remotePrecrimeAddresses",
              "type": "bytes32[]"
            }
          ],
          "name": "setRemotePrecrimeAddresses",
          "outputs": [],
          "stateMutability": "nonpayable",
          "type": "function"
        },
        {
          "inputs": [
            {
              "components": [
                {
                  "internalType": "uint16",
                  "name": "srcChainId",
                  "type": "uint16"
                },
                {
                  "internalType": "bytes32",
                  "name": "srcAddress",
                  "type": "bytes32"
                },
                {
                  "internalType": "uint64",
                  "name": "nonce",
                  "type": "uint64"
                },
                {
                  "internalType": "bytes",
                  "name": "payload",
                  "type": "bytes"
                }
              ],
              "internalType": "struct IPreCrimeView.Packet[]",
              "name": "_packets",
              "type": "tuple[]"
            }
          ],
          "name": "simulate",
          "outputs": [
            {
              "internalType": "uint16",
              "name": "code",
              "type": "uint16"
            },
            {
              "internalType": "bytes",
              "name": "data",
              "type": "bytes"
            }
          ],
          "stateMutability": "view",
          "type": "function"
        },
        {
          "inputs": [
            {
              "internalType": "address",
              "name": "newOwner",
              "type": "address"
            }
          ],
          "name": "transferOwnership",
          "outputs": [],
          "stateMutability": "nonpayable",
          "type": "function"
        },
        {
          "inputs": [],
          "name": "version",
          "outputs": [
            {
              "internalType": "uint16",
              "name": "",
              "type": "uint16"
            }
          ],
          "stateMutability": "pure",
          "type": "function"
        }
      ],
      "evm": {
        "bytecode": {
          "linkReferences": {},
          "object": "60a06040523480156200001157600080fd5b5060405162001a6838038062001a688339810160408190526200003491620000ef565b600080546001600160a01b0319166001600160a01b03861690811782556040518692907f8be0079c531659141344cd1fd0a4f28419497f9722a3daafe3b4186f6b6457e0908290a3506000805461ffff909416600160a01b0261ffff60a01b19909416939093179092556001600160a01b0316608052600380546001600160401b039092166001600160401b03199092169190911790555062000162565b80516001600160a01b0381168114620000ea57600080fd5b919050565b600080600080608085870312156200010657600080fd5b6200011185620000d2565b9350602085015161ffff811681146200012957600080fd5b92506200013960408601620000d2565b60608601519092506001600160401b03811681146200015757600080fd5b939692955090935050565b6080516118ce6200019a6000396000818161017601528181610d4901528181610e2b01528181610ed10152610fab01526118ce6000f3fe608060405234801561001057600080fd5b506004361061016c5760003560e01c80638da5cb5b116100cd578063c6be4b9b11610081578063f0099e2a11610066578063f0099e2a146102ea578063f2fde38b146102fd578063f95d14041461031057600080fd5b8063c6be4b9b146102c1578063ec67df30146102c957600080fd5b80639eb51f5b116100b25780639eb51f5b14610286578063afea44ef14610299578063bb968368146102ae57600080fd5b80638da5cb5b146102535780639590dc9d1461026657600080fd5b806334e30097116101245780634e0ab1ab116101095780634e0ab1ab1461021557806354fd4d50146102365780635b056da51461023e57600080fd5b806334e300971461020d578063472641c11461020d57600080fd5b80630e735a63116101555780630e735a63146101d057806317c9efb0146101d85780632913daa0146101e057600080fd5b8063028c382f146101715780630638fb64146101b5575b600080fd5b6101987f000000000000000000000000000000000000000000000000000000000000000081565b6040516001600160a01b0390911681526020015b60405180910390f35b6101bd600281565b60405161ffff90911681526020016101ac565b6101bd600381565b6101bd600081565b6003546101f49067ffffffffffffffff1681565b60405167ffffffffffffffff90911681526020016101ac565b6101bd600181565b610228610223366004611117565b610319565b6040519081526020016101ac565b6127116101bd565b6000546101bd90600160a01b900461ffff1681565b600054610198906001600160a01b031681565b610279610274366004611175565b61033a565b6040516101ac91906111fd565b6101bd610294366004611117565b610394565b6102ac6102a7366004611230565b6103cc565b005b6102ac6102bc36600461133a565b61043e565b6101bd600481565b6102dc6102d73660046113fa565b6104d5565b6040516101ac929190611466565b6102dc6102f8366004611175565b61064b565b6102ac61030b36600461148b565b6106b8565b6101bd61271181565b6002818154811061032957600080fd5b600091825260209091200154905081565b60606000806103498585610764565b91509150600161036260035467ffffffffffffffff1690565b8351848460405160200161037a9594939291906114b4565b604051602081830303815290604052925050505b92915050565b600181815481106103a457600080fd5b9060005260206000209060109182820401919006600202915054906101000a900461ffff1681565b6000546001600160a01b0316331461041a5760405162461bcd60e51b815260206004820152600c60248201526b15539055551213d49256915160a21b60448201526064015b60405180910390fd5b6003805467ffffffffffffffff191667ffffffffffffffff92909216919091179055565b6000546001600160a01b031633146104875760405162461bcd60e51b815260206004820152600c60248201526b15539055551213d49256915160a21b6044820152606401610411565b80518251146104a9576040516328374b8160e11b815260040160405180910390fd5b81516104bc90600190602085019061101e565b5080516104d09060029060208401906110c7565b505050565b60006060818367ffffffffffffffff8111156104f3576104f361124d565b60405190808252806020026020018201604052801561052657816020015b60608152602001906001900390816105115790505b50905060008467ffffffffffffffff8111156105445761054461124d565b60405190808252806020026020018201604052801561056d578160200160208202803683370190505b50905060005b8581101561060f576000808888848181106105905761059061155b565b90506020028101906105a29190611571565b8101906105af9190611628565b91509150818484815181106105c6576105c661155b565b602002602001019061ffff16908161ffff1681525050808584815181106105ef576105ef61155b565b60200260200101819052505050808061060790611682565b915050610573565b5061061b888883610842565b909450925061ffff841615610631575050610642565b61063a826109f2565b909450925050505b94509492505050565b600060606106598484610b1f565b909250905061ffff82166106b1576106718484610d41565b909250905061ffff82166106b15760005460405161069f91600160a01b900461ffff16908390602001611466565b60405160208183030381529060405290505b9250929050565b6000546001600160a01b031633146107015760405162461bcd60e51b815260206004820152600c60248201526b15539055551213d49256915160a21b6044820152606401610411565b600080547fffffffffffffffffffffffff0000000000000000000000000000000000000000166001600160a01b0383169081178255604051909133917f8be0079c531659141344cd1fd0a4f28419497f9722a3daafe3b4186f6b6457e09190a350565b60608060016002818054806020026020016040519081016040528092919081815260200182805480156107de57602002820191906000526020600020906000905b82829054906101000a900461ffff1661ffff16815260200190600201906020826001010492830192600103820291508084116107a55790505b505050505091508080548060200260200160405190810160405280929190818152602001828054801561083057602002820191906000526020600020905b81548152602001906001019080831161081c575b50505050509050915091509250929050565b6000606083156109305760006108588686610764565b50905060005b815181101561092d576000805b86518110156108d0578383815181106108865761088661155b565b602002602001015161ffff168782815181106108a4576108a461155b565b602002602001015161ffff16036108be57600191506108d0565b806108c881611682565b91505061086b565b508061091a5760046040518060400160405280602081526020017f6d697373696e672072656d6f74652073696d756c6174696f6e20726573756c74815250945094505050506109ea565b508061092581611682565b91505061085e565b50505b6000805b845181101561099057600060149054906101000a900461ffff1661ffff168582815181106109645761096461155b565b602002602001015161ffff160361097e5760019150610990565b8061098881611682565b915050610934565b50806109d557505060408051808201909152601f81527f6d697373696e67206c6f63616c2073696d756c6174696f6e20726573756c74006020820152600491506109ea565b50506040805160208101909152600080825291505b935093915050565b6000606060008060005b8551811015610ab6576000868281518110610a1957610a1961155b565b6020026020010151806020019051810190610a3491906116ab565b9050806020015115610a94578315610a8b5760016040518060400160405280601e81526020017f6d6f7265207468616e206f6e652070726f78792073696d756c6174696f6e00008152509550955050505050915091565b80519350610aa3565b8051610aa090846116ff565b92505b5080610aae81611682565b9150506109fc565b5081811115610b025760016040518060400160405280601b81526020017f746f74616c206d696e746564203e20746f74616c206c6f636b65640000000000815250935093505050915091565b600060405180602001604052806000815250935093505050915091565b600060606000610b3860035467ffffffffffffffff1690565b905067ffffffffffffffff8116841115610b94576040517f7061636b6574732073697a6520657863656564206c696d6974656400000000006020820152600290603b0160405160208183030381529060405292509250506106b1565b8315610d265760008080805b87811015610d21576000898983818110610bbc57610bbc61155b565b9050602002810190610bce9190611712565b610bd790611732565b90508461ffff16816000015161ffff16141580610bf8575083816020015114155b15610c9757805160208201516040830151919650945092506000610c1b82610f8c565b610c269060016117c4565b90508067ffffffffffffffff168467ffffffffffffffff1614610c91576040517f736b697070656420696e626f756e644e6f6e636520666f7262696464656e00006020820152600390603e0160405160208183030381529060405298509850505050505050506106b1565b50610d0e565b610ca0836117ec565b92508267ffffffffffffffff16816040015167ffffffffffffffff1614610d0e576040517f756e736f72746564207061636b657473000000000000000000000000000000006020820152600390603001604051602081830303815290604052975097505050505050506106b1565b5080610d1981611682565b915050610ba0565b505050505b50506040805160208101909152600080825291509250929050565b6000606060007f00000000000000000000000000000000000000000000000000000000000000006001600160a01b031663378aa7016040518163ffffffff1660e01b8152600401602060405180830381865afa158015610da5573d6000803e3d6000fd5b505050506040513d601f19601f82011682018060405250810190610dc99190611813565b905060005b84811015610ebb576000868683818110610dea57610dea61155b565b9050602002810190610dfc9190611712565b610e0590611732565b805160208201516060830151604051633125193360e11b81529394506001600160a01b037f0000000000000000000000000000000000000000000000000000000000000000169363624a326693610e649390929091899060040161182c565b602060405180830381865afa158015610e81573d6000803e3d6000fd5b505050506040513d601f19601f82011682018060405250810190610ea59190611813565b9250508080610eb390611682565b915050610dce565b50600060405180604001604052808381526020017f00000000000000000000000000000000000000000000000000000000000000006001600160a01b03166364da4e6f6040518163ffffffff1660e01b8152600401602060405180830381865afa158015610f2d573d6000803e3d6000fd5b505050506040513d601f19601f82011682018060405250810190610f519190611860565b151590526040805182516020808301919091529092015115159082015260600160405160208183030381529060405292509250509250929050565b80516040516358b46b3160e01b815261ffff90911660048201526000907f00000000000000000000000000000000000000000000000000000000000000006001600160a01b0316906358b46b3190602401602060405180830381865afa158015610ffa573d6000803e3d6000fd5b505050506040513d601f19601f8201168201806040525081019061038e919061187b565b82805482825590600052602060002090600f016010900481019282156110b75791602002820160005b8382111561108757835183826101000a81548161ffff021916908361ffff1602179055509260200192600201602081600101049283019260010302611047565b80156110b55782816101000a81549061ffff0219169055600201602081600101049283019260010302611087565b505b506110c3929150611102565b5090565b8280548282559060005260206000209081019282156110b7579160200282015b828111156110b75782518255916020019190600101906110e7565b5b808211156110c35760008155600101611103565b60006020828403121561112957600080fd5b5035919050565b60008083601f84011261114257600080fd5b50813567ffffffffffffffff81111561115a57600080fd5b6020830191508360208260051b85010111156106b157600080fd5b6000806020838503121561118857600080fd5b823567ffffffffffffffff81111561119f57600080fd5b6111ab85828601611130565b90969095509350505050565b6000815180845260005b818110156111dd576020818501810151868301820152016111c1565b506000602082860101526020601f19601f83011685010191505092915050565b60208152600061121060208301846111b7565b9392505050565b67ffffffffffffffff8116811461122d57600080fd5b50565b60006020828403121561124257600080fd5b813561121081611217565b634e487b7160e01b600052604160045260246000fd5b604051601f8201601f1916810167ffffffffffffffff8111828210171561128c5761128c61124d565b604052919050565b600067ffffffffffffffff8211156112ae576112ae61124d565b5060051b60200190565b803561ffff811681146112ca57600080fd5b919050565b600082601f8301126112e057600080fd5b813560206112f56112f083611294565b611263565b82815260059290921b8401810191818101908684111561131457600080fd5b8286015b8481101561132f5780358352918301918301611318565b509695505050505050565b6000806040838503121561134d57600080fd5b823567ffffffffffffffff8082111561136557600080fd5b818501915085601f83011261137957600080fd5b813560206113896112f083611294565b82815260059290921b840181019181810190898411156113a857600080fd5b948201945b838610156113cd576113be866112b8565b825294820194908201906113ad565b965050860135925050808211156113e357600080fd5b506113f0858286016112cf565b9150509250929050565b6000806000806040858703121561141057600080fd5b843567ffffffffffffffff8082111561142857600080fd5b61143488838901611130565b9096509450602087013591508082111561144d57600080fd5b5061145a87828801611130565b95989497509550505050565b61ffff8316815260406020820152600061148360408301846111b7565b949350505050565b60006020828403121561149d57600080fd5b81356001600160a01b038116811461121057600080fd5b61ffff60f01b8660f01b1681527fffffffffffffffff0000000000000000000000000000000000000000000000008560c01b16600282015283600a8201526000602a82018451602080870160005b8381101561152257815161ffff1685529382019390820190600101611502565b5050855181870193925060005b8181101561154b5784518452938201939282019260010161152f565b50919a9950505050505050505050565b634e487b7160e01b600052603260045260246000fd5b6000808335601e1984360301811261158857600080fd5b83018035915067ffffffffffffffff8211156115a357600080fd5b6020019150368190038213156106b157600080fd5b600082601f8301126115c957600080fd5b813567ffffffffffffffff8111156115e3576115e361124d565b6115f6601f8201601f1916602001611263565b81815284602083860101111561160b57600080fd5b816020850160208301376000918101602001919091529392505050565b6000806040838503121561163b57600080fd5b611644836112b8565b9150602083013567ffffffffffffffff81111561166057600080fd5b6113f0858286016115b8565b634e487b7160e01b600052601160045260246000fd5b6000600182016116945761169461166c565b5060010190565b805180151581146112ca57600080fd5b6000604082840312156116bd57600080fd5b6040516040810181811067ffffffffffffffff821117156116e0576116e061124d565b604052825181526116f36020840161169b565b60208201529392505050565b8082018082111561038e5761038e61166c565b60008235607e1983360301811261172857600080fd5b9190910192915050565b60006080823603121561174457600080fd5b6040516080810167ffffffffffffffff82821081831117156117685761176861124d565b81604052611775856112b8565b8352602085013560208401526040850135915061179182611217565b81604084015260608501359150808211156117ab57600080fd5b506117b8368286016115b8565b60608301525092915050565b67ffffffffffffffff8181168382160190808211156117e5576117e561166c565b5092915050565b600067ffffffffffffffff8083168181036118095761180961166c565b6001019392505050565b60006020828403121561182557600080fd5b5051919050565b61ffff8516815283602082015260806040820152600061184f60808301856111b7565b905082606083015295945050505050565b60006020828403121561187257600080fd5b6112108261169b565b60006020828403121561188d57600080fd5b81516112108161121756fea26469706673582212205ca0b479aba8ae07277aa2874c5f861b4bce77a018bd94c548804ecf4a3dbb2164736f6c63430008140033",
          "opcodes": "PUSH1 0xA0 PUSH1 0x40 MSTORE CALLVALUE DUP1 ISZERO PUSH3 0x11 JUMPI PUSH1 0x0 DUP1 REVERT JUMPDEST POP PUSH1 0x40 MLOAD PUSH3 0x1A68 CODESIZE SUB DUP1 PUSH3 0x1A68 DUP4 CODECOPY DUP2 ADD PUSH1 0x40 DUP2 SWAP1 MSTORE PUSH3 0x34 SWAP2 PUSH3 0xEF JUMP JUMPDEST PUSH1 0x0 DUP1 SLOAD PUSH1 0x1 PUSH1 0x1 PUSH1 0xA0 SHL SUB NOT AND PUSH1 0x1 PUSH1 0x1 PUSH1 0xA0 SHL SUB DUP7 AND SWAP1 DUP2 OR DUP3 SSTORE PUSH1 0x40 MLOAD DUP7 SWAP3 SWAP1 PUSH32 0x8BE0079C531659141344CD1FD0A4F28419497F9722A3DAAFE3B4186F6B6457E0 SWAP1 DUP3 SWAP1 LOG3 POP PUSH1 0x0 DUP1 SLOAD PUSH2 0xFFFF SWAP1 SWAP5 AND PUSH1 0x1 PUSH1 0xA0 SHL MUL PUSH2 0xFFFF PUSH1 0xA0 SHL NOT SWAP1 SWAP5 AND SWAP4 SWAP1 SWAP4 OR SWAP1 SWAP3 SSTORE PUSH1 0x1 PUSH1 0x1 PUSH1 0xA0 SHL SUB AND PUSH1 0x80 MSTORE PUSH1 0x3 DUP1 SLOAD PUSH1 0x1 PUSH1 0x1 PUSH1 0x40 SHL SUB SWAP1 SWAP3 AND PUSH1 0x1 PUSH1 0x1 PUSH1 0x40 SHL SUB NOT SWAP1 SWAP3 AND SWAP2 SWAP1 SWAP2 OR SWAP1 SSTORE POP PUSH3 0x162 JUMP JUMPDEST DUP1 MLOAD PUSH1 0x1 PUSH1 0x1 PUSH1 0xA0 SHL SUB DUP2 AND DUP2 EQ PUSH3 0xEA JUMPI PUSH1 0x0 DUP1 REVERT JUMPDEST SWAP2 SWAP1 POP JUMP JUMPDEST PUSH1 0x0 DUP1 PUSH1 0x0 DUP1 PUSH1 0x80 DUP6 DUP8 SUB SLT ISZERO PUSH3 0x106 JUMPI PUSH1 0x0 DUP1 REVERT JUMPDEST PUSH3 0x111 DUP6 PUSH3 0xD2 JUMP JUMPDEST SWAP4 POP PUSH1 0x20 DUP6 ADD MLOAD PUSH2 0xFFFF DUP2 AND DUP2 EQ PUSH3 0x129 JUMPI PUSH1 0x0 DUP1 REVERT JUMPDEST SWAP3 POP PUSH3 0x139 PUSH1 0x40 DUP7 ADD PUSH3 0xD2 JUMP JUMPDEST PUSH1 0x60 DUP7 ADD MLOAD SWAP1 SWAP3 POP PUSH1 0x1 PUSH1 0x1 PUSH1 0x40 SHL SUB DUP2 AND DUP2 EQ PUSH3 0x157 JUMPI PUSH1 0x0 DUP1 REVERT JUMPDEST SWAP4 SWAP7 SWAP3 SWAP6 POP SWAP1 SWAP4 POP POP JUMP JUMPDEST PUSH1 0x80 MLOAD PUSH2 0x18CE PUSH3 0x19A PUSH1 0x0 CODECOPY PUSH1 0x0 DUP2 DUP2 PUSH2 0x176 ADD MSTORE DUP2 DUP2 PUSH2 0xD49 ADD MSTORE DUP2 DUP2 PUSH2 0xE2B ADD MSTORE DUP2 DUP2 PUSH2 0xED1 ADD MSTORE PUSH2 0xFAB ADD MSTORE PUSH2 0x18CE PUSH1 0x0 RETURN INVALID PUSH1 0x80 PUSH1 0x40 MSTORE CALLVALUE DUP1 ISZERO PUSH2 0x10 JUMPI PUSH1 0x0 DUP1 REVERT JUMPDEST POP PUSH1 0x4 CALLDATASIZE LT PUSH2 0x16C JUMPI PUSH1 0x0 CALLDATALOAD PUSH1 0xE0 SHR DUP1 PUSH4 0x8DA5CB5B GT PUSH2 0xCD JUMPI DUP1 PUSH4 0xC6BE4B9B GT PUSH2 0x81 JUMPI DUP1 PUSH4 0xF0099E2A GT PUSH2 0x66 JUMPI DUP1 PUSH4 0xF0099E2A EQ PUSH2 0x2EA JUMPI DUP1 PUSH4 0xF2FDE38B EQ PUSH2 0x2FD JUMPI DUP1 PUSH4 0xF95D1404 EQ PUSH2 0x310 JUMPI PUSH1 0x0 DUP1 REVERT JUMPDEST DUP1 PUSH4 0xC6BE4B9B EQ PUSH2 0x2C1 JUMPI DUP1 PUSH4 0xEC67DF30 EQ PUSH2 0x2C9 JUMPI PUSH1 0x0 DUP1 REVERT JUMPDEST DUP1 PUSH4 0x9EB51F5B GT PUSH2 0xB2 JUMPI DUP1 PUSH4 0x9EB51F5B EQ PUSH2 0x286 JUMPI DUP1 PUSH4 0xAFEA44EF EQ PUSH2 0x299 JUMPI DUP1 PUSH4 0xBB968368 EQ PUSH2 0x2AE JUMPI PUSH1 0x0 DUP1 REVERT JUMPDEST DUP1 PUSH4 0x8DA5CB5B EQ PUSH2 0x253 JUMPI DUP1 PUSH4 0x9590DC9D EQ PUSH2 0x266 JUMPI PUSH1 0x0 DUP1 REVERT JUMPDEST DUP1 PUSH4 0x34E30097 GT PUSH2 0x124 JUMPI DUP1 PUSH4 0x4E0AB1AB GT PUSH2 0x109 JUMPI DUP1 PUSH4 0x4E0AB1AB EQ PUSH2 0x215 JUMPI DUP1 PUSH4 0x54FD4D50 EQ PUSH2 0x236 JUMPI DUP1 PUSH4 0x5B056DA5 EQ PUSH2 0x23E JUMPI PUSH1 0x0 DUP1 REVERT JUMPDEST DUP1 PUSH4 0x34E30097 EQ PUSH2 0x20D JUMPI DUP1 PUSH4 0x472641C1 EQ PUSH2 0x20D JUMPI PUSH1 0x0 DUP1 REVERT JUMPDEST DUP1 PUSH4 0xE735A63 GT PUSH2 0x155 JUMPI DUP1 PUSH4 0xE735A63 EQ PUSH2 0x1D0 JUMPI DUP1 PUSH4 0x17C9EFB0 EQ PUSH2 0x1D8 JUMPI DUP1 PUSH4 0x2913DAA0 EQ PUSH2 0x1E0 JUMPI PUSH1 0x0 DUP1 REVERT JUMPDEST DUP1 PUSH4 0x28C382F EQ PUSH2 0x171 JUMPI DUP1 PUSH4 0x638FB64 EQ PUSH2 0x1B5 JUMPI JUMPDEST PUSH1 0x0 DUP1 REVERT JUMPDEST PUSH2 0x198 PUSH32 0x0 DUP2 JUMP JUMPDEST PUSH1 0x40 MLOAD PUSH1 0x1 PUSH1 0x1 PUSH1 0xA0 SHL SUB SWAP1 SWAP2 AND DUP2 MSTORE PUSH1 0x20 ADD JUMPDEST PUSH1 0x40 MLOAD DUP1 SWAP2 SUB SWAP1 RETURN JUMPDEST PUSH2 0x1BD PUSH1 0x2 DUP2 JUMP JUMPDEST PUSH1 0x40 MLOAD PUSH2 0xFFFF SWAP1 SWAP2 AND DUP2 MSTORE PUSH1 0x20 ADD PUSH2 0x1AC JUMP JUMPDEST PUSH2 0x1BD PUSH1 0x3 DUP2 JUMP JUMPDEST PUSH2 0x1BD PUSH1 0x0 DUP2 JUMP JUMPDEST PUSH1 0x3 SLOAD PUSH2 0x1F4 SWAP1 PUSH8 0xFFFFFFFFFFFFFFFF AND DUP2 JUMP JUMPDEST PUSH1 0x40 MLOAD PUSH8 0xFFFFFFFFFFFFFFFF SWAP1 SWAP2 AND DUP2 MSTORE PUSH1 0x20 ADD PUSH2 0x1AC JUMP JUMPDEST PUSH2 0x1BD PUSH1 0x1 DUP2 JUMP JUMPDEST PUSH2 0x228 PUSH2 0x223 CALLDATASIZE PUSH1 0x4 PUSH2 0x1117 JUMP JUMPDEST PUSH2 0x319 JUMP JUMPDEST PUSH1 0x40 MLOAD SWAP1 DUP2 MSTORE PUSH1 0x20 ADD PUSH2 0x1AC JUMP JUMPDEST PUSH2 0x2711 PUSH2 0x1BD JUMP JUMPDEST PUSH1 0x0 SLOAD PUSH2 0x1BD SWAP1 PUSH1 0x1 PUSH1 0xA0 SHL SWAP1 DIV PUSH2 0xFFFF AND DUP2 JUMP JUMPDEST PUSH1 0x0 SLOAD PUSH2 0x198 SWAP1 PUSH1 0x1 PUSH1 0x1 PUSH1 0xA0 SHL SUB AND DUP2 JUMP JUMPDEST PUSH2 0x279 PUSH2 0x274 CALLDATASIZE PUSH1 0x4 PUSH2 0x1175 JUMP JUMPDEST PUSH2 0x33A JUMP JUMPDEST PUSH1 0x40 MLOAD PUSH2 0x1AC SWAP2 SWAP1 PUSH2 0x11FD JUMP JUMPDEST PUSH2 0x1BD PUSH2 0x294 CALLDATASIZE PUSH1 0x4 PUSH2 0x1117 JUMP JUMPDEST PUSH2 0x394 JUMP JUMPDEST PUSH2 0x2AC PUSH2 0x2A7 CALLDATASIZE PUSH1 0x4 PUSH2 0x1230 JUMP JUMPDEST PUSH2 0x3CC JUMP JUMPDEST STOP JUMPDEST PUSH2 0x2AC PUSH2 0x2BC CALLDATASIZE PUSH1 0x4 PUSH2 0x133A JUMP JUMPDEST PUSH2 0x43E JUMP JUMPDEST PUSH2 0x1BD PUSH1 0x4 DUP2 JUMP JUMPDEST PUSH2 0x2DC PUSH2 0x2D7 CALLDATASIZE PUSH1 0x4 PUSH2 0x13FA JUMP JUMPDEST PUSH2 0x4D5 JUMP JUMPDEST PUSH1 0x40 MLOAD PUSH2 0x1AC SWAP3 SWAP2 SWAP1 PUSH2 0x1466 JUMP JUMPDEST PUSH2 0x2DC PUSH2 0x2F8 CALLDATASIZE PUSH1 0x4 PUSH2 0x1175 JUMP JUMPDEST PUSH2 0x64B JUMP JUMPDEST PUSH2 0x2AC PUSH2 0x30B CALLDATASIZE PUSH1 0x4 PUSH2 0x148B JUMP JUMPDEST PUSH2 0x6B8 JUMP JUMPDEST PUSH2 0x1BD PUSH2 0x2711 DUP2 JUMP JUMPDEST PUSH1 0x2 DUP2 DUP2 SLOAD DUP2 LT PUSH2 0x329 JUMPI PUSH1 0x0 DUP1 REVERT JUMPDEST PUSH1 0x0 SWAP2 DUP3 MSTORE PUSH1 0x20 SWAP1 SWAP2 KECCAK256 ADD SLOAD SWAP1 POP DUP2 JUMP JUMPDEST PUSH1 0x60 PUSH1 0x0 DUP1 PUSH2 0x349 DUP6 DUP6 PUSH2 0x764 JUMP JUMPDEST SWAP2 POP SWAP2 POP PUSH1 0x1 PUSH2 0x362 PUSH1 0x3 SLOAD PUSH8 0xFFFFFFFFFFFFFFFF AND SWAP1 JUMP JUMPDEST DUP4 MLOAD DUP5 DUP5 PUSH1 0x40 MLOAD PUSH1 0x20 ADD PUSH2 0x37A SWAP6 SWAP5 SWAP4 SWAP3 SWAP2 SWAP1 PUSH2 0x14B4 JUMP JUMPDEST PUSH1 0x40 MLOAD PUSH1 0x20 DUP2 DUP4 SUB SUB DUP2 MSTORE SWAP1 PUSH1 0x40 MSTORE SWAP3 POP POP POP JUMPDEST SWAP3 SWAP2 POP POP JUMP JUMPDEST PUSH1 0x1 DUP2 DUP2 SLOAD DUP2 LT PUSH2 0x3A4 JUMPI PUSH1 0x0 DUP1 REVERT JUMPDEST SWAP1 PUSH1 0x0 MSTORE PUSH1 0x20 PUSH1 0x0 KECCAK256 SWAP1 PUSH1 0x10 SWAP2 DUP3 DUP3 DIV ADD SWAP2 SWAP1 MOD PUSH1 0x2 MUL SWAP2 POP SLOAD SWAP1 PUSH2 0x100 EXP SWAP1 DIV PUSH2 0xFFFF AND DUP2 JUMP JUMPDEST PUSH1 0x0 SLOAD PUSH1 0x1 PUSH1 0x1 PUSH1 0xA0 SHL SUB AND CALLER EQ PUSH2 0x41A JUMPI PUSH1 0x40 MLOAD PUSH3 0x461BCD PUSH1 0xE5 SHL DUP2 MSTORE PUSH1 0x20 PUSH1 0x4 DUP3 ADD MSTORE PUSH1 0xC PUSH1 0x24 DUP3 ADD MSTORE PUSH12 0x15539055551213D492569151 PUSH1 0xA2 SHL PUSH1 0x44 DUP3 ADD MSTORE PUSH1 0x64 ADD JUMPDEST PUSH1 0x40 MLOAD DUP1 SWAP2 SUB SWAP1 REVERT JUMPDEST PUSH1 0x3 DUP1 SLOAD PUSH8 0xFFFFFFFFFFFFFFFF NOT AND PUSH8 0xFFFFFFFFFFFFFFFF SWAP3 SWAP1 SWAP3 AND SWAP2 SWAP1 SWAP2 OR SWAP1 SSTORE JUMP JUMPDEST PUSH1 0x0 SLOAD PUSH1 0x1 PUSH1 0x1 PUSH1 0xA0 SHL SUB AND CALLER EQ PUSH2 0x487 JUMPI PUSH1 0x40 MLOAD PUSH3 0x461BCD PUSH1 0xE5 SHL DUP2 MSTORE PUSH1 0x20 PUSH1 0x4 DUP3 ADD MSTORE PUSH1 0xC PUSH1 0x24 DUP3 ADD MSTORE PUSH12 0x15539055551213D492569151 PUSH1 0xA2 SHL PUSH1 0x44 DUP3 ADD MSTORE PUSH1 0x64 ADD PUSH2 0x411 JUMP JUMPDEST DUP1 MLOAD DUP3 MLOAD EQ PUSH2 0x4A9 JUMPI PUSH1 0x40 MLOAD PUSH4 0x28374B81 PUSH1 0xE1 SHL DUP2 MSTORE PUSH1 0x4 ADD PUSH1 0x40 MLOAD DUP1 SWAP2 SUB SWAP1 REVERT JUMPDEST DUP2 MLOAD PUSH2 0x4BC SWAP1 PUSH1 0x1 SWAP1 PUSH1 0x20 DUP6 ADD SWAP1 PUSH2 0x101E JUMP JUMPDEST POP DUP1 MLOAD PUSH2 0x4D0 SWAP1 PUSH1 0x2 SWAP1 PUSH1 0x20 DUP5 ADD SWAP1 PUSH2 0x10C7 JUMP JUMPDEST POP POP POP JUMP JUMPDEST PUSH1 0x0 PUSH1 0x60 DUP2 DUP4 PUSH8 0xFFFFFFFFFFFFFFFF DUP2 GT ISZERO PUSH2 0x4F3 JUMPI PUSH2 0x4F3 PUSH2 0x124D JUMP JUMPDEST PUSH1 0x40 MLOAD SWAP1 DUP1 DUP3 MSTORE DUP1 PUSH1 0x20 MUL PUSH1 0x20 ADD DUP3 ADD PUSH1 0x40 MSTORE DUP1 ISZERO PUSH2 0x526 JUMPI DUP2 PUSH1 0x20 ADD JUMPDEST PUSH1 0x60 DUP2 MSTORE PUSH1 0x20 ADD SWAP1 PUSH1 0x1 SWAP1 SUB SWAP1 DUP2 PUSH2 0x511 JUMPI SWAP1 POP JUMPDEST POP SWAP1 POP PUSH1 0x0 DUP5 PUSH8 0xFFFFFFFFFFFFFFFF DUP2 GT ISZERO PUSH2 0x544 JUMPI PUSH2 0x544 PUSH2 0x124D JUMP JUMPDEST PUSH1 0x40 MLOAD SWAP1 DUP1 DUP3 MSTORE DUP1 PUSH1 0x20 MUL PUSH1 0x20 ADD DUP3 ADD PUSH1 0x40 MSTORE DUP1 ISZERO PUSH2 0x56D JUMPI DUP2 PUSH1 0x20 ADD PUSH1 0x20 DUP3 MUL DUP1 CALLDATASIZE DUP4 CALLDATACOPY ADD SWAP1 POP JUMPDEST POP SWAP1 POP PUSH1 0x0 JUMPDEST DUP6 DUP2 LT ISZERO PUSH2 0x60F JUMPI PUSH1 0x0 DUP1 DUP9 DUP9 DUP5 DUP2 DUP2 LT PUSH2 0x590 JUMPI PUSH2 0x590 PUSH2 0x155B JUMP JUMPDEST SWAP1 POP PUSH1 0x20 MUL DUP2 ADD SWAP1 PUSH2 0x5A2 SWAP2 SWAP1 PUSH2 0x1571 JUMP JUMPDEST DUP2 ADD SWAP1 PUSH2 0x5AF SWAP2 SWAP1 PUSH2 0x1628 JUMP JUMPDEST SWAP2 POP SWAP2 POP DUP2 DUP5 DUP5 DUP2 MLOAD DUP2 LT PUSH2 0x5C6 JUMPI PUSH2 0x5C6 PUSH2 0x155B JUMP JUMPDEST PUSH1 0x20 MUL PUSH1 0x20 ADD ADD SWAP1 PUSH2 0xFFFF AND SWAP1 DUP2 PUSH2 0xFFFF AND DUP2 MSTORE POP POP DUP1 DUP6 DUP5 DUP2 MLOAD DUP2 LT PUSH2 0x5EF JUMPI PUSH2 0x5EF PUSH2 0x155B JUMP JUMPDEST PUSH1 0x20 MUL PUSH1 0x20 ADD ADD DUP2 SWAP1 MSTORE POP POP POP DUP1 DUP1 PUSH2 0x607 SWAP1 PUSH2 0x1682 JUMP JUMPDEST SWAP2 POP POP PUSH2 0x573 JUMP JUMPDEST POP PUSH2 0x61B DUP9 DUP9 DUP4 PUSH2 0x842 JUMP JUMPDEST SWAP1 SWAP5 POP SWAP3 POP PUSH2 0xFFFF DUP5 AND ISZERO PUSH2 0x631 JUMPI POP POP PUSH2 0x642 JUMP JUMPDEST PUSH2 0x63A DUP3 PUSH2 0x9F2 JUMP JUMPDEST SWAP1 SWAP5 POP SWAP3 POP POP POP JUMPDEST SWAP5 POP SWAP5 SWAP3 POP POP POP JUMP JUMPDEST PUSH1 0x0 PUSH1 0x60 PUSH2 0x659 DUP5 DUP5 PUSH2 0xB1F JUMP JUMPDEST SWAP1 SWAP3 POP SWAP1 POP PUSH2 0xFFFF DUP3 AND PUSH2 0x6B1 JUMPI PUSH2 0x671 DUP5 DUP5 PUSH2 0xD41 JUMP JUMPDEST SWAP1 SWAP3 POP SWAP1 POP PUSH2 0xFFFF DUP3 AND PUSH2 0x6B1 JUMPI PUSH1 0x0 SLOAD PUSH1 0x40 MLOAD PUSH2 0x69F SWAP2 PUSH1 0x1 PUSH1 0xA0 SHL SWAP1 DIV PUSH2 0xFFFF AND SWAP1 DUP4 SWAP1 PUSH1 0x20 ADD PUSH2 0x1466 JUMP JUMPDEST PUSH1 0x40 MLOAD PUSH1 0x20 DUP2 DUP4 SUB SUB DUP2 MSTORE SWAP1 PUSH1 0x40 MSTORE SWAP1 POP JUMPDEST SWAP3 POP SWAP3 SWAP1 POP JUMP JUMPDEST PUSH1 0x0 SLOAD PUSH1 0x1 PUSH1 0x1 PUSH1 0xA0 SHL SUB AND CALLER EQ PUSH2 0x701 JUMPI PUSH1 0x40 MLOAD PUSH3 0x461BCD PUSH1 0xE5 SHL DUP2 MSTORE PUSH1 0x20 PUSH1 0x4 DUP3 ADD MSTORE PUSH1 0xC PUSH1 0x24 DUP3 ADD MSTORE PUSH12 0x15539055551213D492569151 PUSH1 0xA2 SHL PUSH1 0x44 DUP3 ADD MSTORE PUSH1 0x64 ADD PUSH2 0x411 JUMP JUMPDEST PUSH1 0x0 DUP1 SLOAD PUSH32 0xFFFFFFFFFFFFFFFFFFFFFFFF0000000000000000000000000000000000000000 AND PUSH1 0x1 PUSH1 0x1 PUSH1 0xA0 SHL SUB DUP4 AND SWAP1 DUP2 OR DUP3 SSTORE PUSH1 0x40 MLOAD SWAP1 SWAP2 CALLER SWAP2 PUSH32 0x8BE0079C531659141344CD1FD0A4F28419497F9722A3DAAFE3B4186F6B6457E0 SWAP2 SWAP1 LOG3 POP JUMP JUMPDEST PUSH1 0x60 DUP1 PUSH1 0x1 PUSH1 0x2 DUP2 DUP1 SLOAD DUP1 PUSH1 0x20 MUL PUSH1 0x20 ADD PUSH1 0x40 MLOAD SWAP1 DUP2 ADD PUSH1 0x40 MSTORE DUP1 SWAP3 SWAP2 SWAP1 DUP2 DUP2 MSTORE PUSH1 0x20 ADD DUP3 DUP1 SLOAD DUP1 ISZERO PUSH2 0x7DE JUMPI PUSH1 0x20 MUL DUP3 ADD SWAP2 SWAP1 PUSH1 0x0 MSTORE PUSH1 0x20 PUSH1 0x0 KECCAK256 SWAP1 PUSH1 0x0 SWAP1 JUMPDEST DUP3 DUP3 SWAP1 SLOAD SWAP1 PUSH2 0x100 EXP SWAP1 DIV PUSH2 0xFFFF AND PUSH2 0xFFFF AND DUP2 MSTORE PUSH1 0x20 ADD SWAP1 PUSH1 0x2 ADD SWAP1 PUSH1 0x20 DUP3 PUSH1 0x1 ADD DIV SWAP3 DUP4 ADD SWAP3 PUSH1 0x1 SUB DUP3 MUL SWAP2 POP DUP1 DUP5 GT PUSH2 0x7A5 JUMPI SWAP1 POP JUMPDEST POP POP POP POP POP SWAP2 POP DUP1 DUP1 SLOAD DUP1 PUSH1 0x20 MUL PUSH1 0x20 ADD PUSH1 0x40 MLOAD SWAP1 DUP2 ADD PUSH1 0x40 MSTORE DUP1 SWAP3 SWAP2 SWAP1 DUP2 DUP2 MSTORE PUSH1 0x20 ADD DUP3 DUP1 SLOAD DUP1 ISZERO PUSH2 0x830 JUMPI PUSH1 0x20 MUL DUP3 ADD SWAP2 SWAP1 PUSH1 0x0 MSTORE PUSH1 0x20 PUSH1 0x0 KECCAK256 SWAP1 JUMPDEST DUP2 SLOAD DUP2 MSTORE PUSH1 0x20 ADD SWAP1 PUSH1 0x1 ADD SWAP1 DUP1 DUP4 GT PUSH2 0x81C JUMPI JUMPDEST POP POP POP POP POP SWAP1 POP SWAP2 POP SWAP2 POP SWAP3 POP SWAP3 SWAP1 POP JUMP JUMPDEST PUSH1 0x0 PUSH1 0x60 DUP4 ISZERO PUSH2 0x930 JUMPI PUSH1 0x0 PUSH2 0x858 DUP7 DUP7 PUSH2 0x764 JUMP JUMPDEST POP SWAP1 POP PUSH1 0x0 JUMPDEST DUP2 MLOAD DUP2 LT ISZERO PUSH2 0x92D JUMPI PUSH1 0x0 DUP1 JUMPDEST DUP7 MLOAD DUP2 LT ISZERO PUSH2 0x8D0 JUMPI DUP4 DUP4 DUP2 MLOAD DUP2 LT PUSH2 0x886 JUMPI PUSH2 0x886 PUSH2 0x155B JUMP JUMPDEST PUSH1 0x20 MUL PUSH1 0x20 ADD ADD MLOAD PUSH2 0xFFFF AND DUP8 DUP3 DUP2 MLOAD DUP2 LT PUSH2 0x8A4 JUMPI PUSH2 0x8A4 PUSH2 0x155B JUMP JUMPDEST PUSH1 0x20 MUL PUSH1 0x20 ADD ADD MLOAD PUSH2 0xFFFF AND SUB PUSH2 0x8BE JUMPI PUSH1 0x1 SWAP2 POP PUSH2 0x8D0 JUMP JUMPDEST DUP1 PUSH2 0x8C8 DUP2 PUSH2 0x1682 JUMP JUMPDEST SWAP2 POP POP PUSH2 0x86B JUMP JUMPDEST POP DUP1 PUSH2 0x91A JUMPI PUSH1 0x4 PUSH1 0x40 MLOAD DUP1 PUSH1 0x40 ADD PUSH1 0x40 MSTORE DUP1 PUSH1 0x20 DUP2 MSTORE PUSH1 0x20 ADD PUSH32 0x6D697373696E672072656D6F74652073696D756C6174696F6E20726573756C74 DUP2 MSTORE POP SWAP5 POP SWAP5 POP POP POP POP PUSH2 0x9EA JUMP JUMPDEST POP DUP1 PUSH2 0x925 DUP2 PUSH2 0x1682 JUMP JUMPDEST SWAP2 POP POP PUSH2 0x85E JUMP JUMPDEST POP POP JUMPDEST PUSH1 0x0 DUP1 JUMPDEST DUP5 MLOAD DUP2 LT ISZERO PUSH2 0x990 JUMPI PUSH1 0x0 PUSH1 0x14 SWAP1 SLOAD SWAP1 PUSH2 0x100 EXP SWAP1 DIV PUSH2 0xFFFF AND PUSH2 0xFFFF AND DUP6 DUP3 DUP2 MLOAD DUP2 LT PUSH2 0x964 JUMPI PUSH2 0x964 PUSH2 0x155B JUMP JUMPDEST PUSH1 0x20 MUL PUSH1 0x20 ADD ADD MLOAD PUSH2 0xFFFF AND SUB PUSH2 0x97E JUMPI PUSH1 0x1 SWAP2 POP PUSH2 0x990 JUMP JUMPDEST DUP1 PUSH2 0x988 DUP2 PUSH2 0x1682 JUMP JUMPDEST SWAP2 POP POP PUSH2 0x934 JUMP JUMPDEST POP DUP1 PUSH2 0x9D5 JUMPI POP POP PUSH1 0x40 DUP1 MLOAD DUP1 DUP3 ADD SWAP1 SWAP2 MSTORE PUSH1 0x1F DUP2 MSTORE PUSH32 0x6D697373696E67206C6F63616C2073696D756C6174696F6E20726573756C7400 PUSH1 0x20 DUP3 ADD MSTORE PUSH1 0x4 SWAP2 POP PUSH2 0x9EA JUMP JUMPDEST POP POP PUSH1 0x40 DUP1 MLOAD PUSH1 0x20 DUP2 ADD SWAP1 SWAP2 MSTORE PUSH1 0x0 DUP1 DUP3 MSTORE SWAP2 POP JUMPDEST SWAP4 POP SWAP4 SWAP2 POP POP JUMP JUMPDEST PUSH1 0x0 PUSH1 0x60 PUSH1 0x0 DUP1 PUSH1 0x0 JUMPDEST DUP6 MLOAD DUP2 LT ISZERO PUSH2 0xAB6 JUMPI PUSH1 0x0 DUP7 DUP3 DUP2 MLOAD DUP2 LT PUSH2 0xA19 JUMPI PUSH2 0xA19 PUSH2 0x155B JUMP JUMPDEST PUSH1 0x20 MUL PUSH1 0x20 ADD ADD MLOAD DUP1 PUSH1 0x20 ADD SWAP1 MLOAD DUP2 ADD SWAP1 PUSH2 0xA34 SWAP2 SWAP1 PUSH2 0x16AB JUMP JUMPDEST SWAP1 POP DUP1 PUSH1 0x20 ADD MLOAD ISZERO PUSH2 0xA94 JUMPI DUP4 ISZERO PUSH2 0xA8B JUMPI PUSH1 0x1 PUSH1 0x40 MLOAD DUP1 PUSH1 0x40 ADD PUSH1 0x40 MSTORE DUP1 PUSH1 0x1E DUP2 MSTORE PUSH1 0x20 ADD PUSH32 0x6D6F7265207468616E206F6E652070726F78792073696D756C6174696F6E0000 DUP2 MSTORE POP SWAP6 POP SWAP6 POP POP POP POP POP SWAP2 POP SWAP2 JUMP JUMPDEST DUP1 MLOAD SWAP4 POP PUSH2 0xAA3 JUMP JUMPDEST DUP1 MLOAD PUSH2 0xAA0 SWAP1 DUP5 PUSH2 0x16FF JUMP JUMPDEST SWAP3 POP JUMPDEST POP DUP1 PUSH2 0xAAE DUP2 PUSH2 0x1682 JUMP JUMPDEST SWAP2 POP POP PUSH2 0x9FC JUMP JUMPDEST POP DUP2 DUP2 GT ISZERO PUSH2 0xB02 JUMPI PUSH1 0x1 PUSH1 0x40 MLOAD DUP1 PUSH1 0x40 ADD PUSH1 0x40 MSTORE DUP1 PUSH1 0x1B DUP2 MSTORE PUSH1 0x20 ADD PUSH32 0x746F74616C206D696E746564203E20746F74616C206C6F636B65640000000000 DUP2 MSTORE POP SWAP4 POP SWAP4 POP POP POP SWAP2 POP SWAP2 JUMP JUMPDEST PUSH1 0x0 PUSH1 0x40 MLOAD DUP1 PUSH1 0x20 ADD PUSH1 0x40 MSTORE DUP1 PUSH1 0x0 DUP2 MSTORE POP SWAP4 POP SWAP4 POP POP POP SWAP2 POP SWAP2 JUMP JUMPDEST PUSH1 0x0 PUSH1 0x60 PUSH1 0x0 PUSH2 0xB38 PUSH1 0x3 SLOAD PUSH8 0xFFFFFFFFFFFFFFFF AND SWAP1 JUMP JUMPDEST SWAP1 POP PUSH8 0xFFFFFFFFFFFFFFFF DUP2 AND DUP5 GT ISZERO PUSH2 0xB94 JUMPI PUSH1 0x40 MLOAD PUSH32 0x7061636B6574732073697A6520657863656564206C696D697465640000000000 PUSH1 0x20 DUP3 ADD MSTORE PUSH1 0x2 SWAP1 PUSH1 0x3B ADD PUSH1 0x40 MLOAD PUSH1 0x20 DUP2 DUP4 SUB SUB DUP2 MSTORE SWAP1 PUSH1 0x40 MSTORE SWAP3 POP SWAP3 POP POP PUSH2 0x6B1 JUMP JUMPDEST DUP4 ISZERO PUSH2 0xD26 JUMPI PUSH1 0x0 DUP1 DUP1 DUP1 JUMPDEST DUP8 DUP2 LT ISZERO PUSH2 0xD21 JUMPI PUSH1 0x0 DUP10 DUP10 DUP4 DUP2 DUP2 LT PUSH2 0xBBC JUMPI PUSH2 0xBBC PUSH2 0x155B JUMP JUMPDEST SWAP1 POP PUSH1 0x20 MUL DUP2 ADD SWAP1 PUSH2 0xBCE SWAP2 SWAP1 PUSH2 0x1712 JUMP JUMPDEST PUSH2 0xBD7 SWAP1 PUSH2 0x1732 JUMP JUMPDEST SWAP1 POP DUP5 PUSH2 0xFFFF AND DUP2 PUSH1 0x0 ADD MLOAD PUSH2 0xFFFF AND EQ ISZERO DUP1 PUSH2 0xBF8 JUMPI POP DUP4 DUP2 PUSH1 0x20 ADD MLOAD EQ ISZERO JUMPDEST ISZERO PUSH2 0xC97 JUMPI DUP1 MLOAD PUSH1 0x20 DUP3 ADD MLOAD PUSH1 0x40 DUP4 ADD MLOAD SWAP2 SWAP7 POP SWAP5 POP SWAP3 POP PUSH1 0x0 PUSH2 0xC1B DUP3 PUSH2 0xF8C JUMP JUMPDEST PUSH2 0xC26 SWAP1 PUSH1 0x1 PUSH2 0x17C4 JUMP JUMPDEST SWAP1 POP DUP1 PUSH8 0xFFFFFFFFFFFFFFFF AND DUP5 PUSH8 0xFFFFFFFFFFFFFFFF AND EQ PUSH2 0xC91 JUMPI PUSH1 0x40 MLOAD PUSH32 0x736B697070656420696E626F756E644E6F6E636520666F7262696464656E0000 PUSH1 0x20 DUP3 ADD MSTORE PUSH1 0x3 SWAP1 PUSH1 0x3E ADD PUSH1 0x40 MLOAD PUSH1 0x20 DUP2 DUP4 SUB SUB DUP2 MSTORE SWAP1 PUSH1 0x40 MSTORE SWAP9 POP SWAP9 POP POP POP POP POP POP POP POP PUSH2 0x6B1 JUMP JUMPDEST POP PUSH2 0xD0E JUMP JUMPDEST PUSH2 0xCA0 DUP4 PUSH2 0x17EC JUMP JUMPDEST SWAP3 POP DUP3 PUSH8 0xFFFFFFFFFFFFFFFF AND DUP2 PUSH1 0x40 ADD MLOAD PUSH8 0xFFFFFFFFFFFFFFFF AND EQ PUSH2 0xD0E JUMPI PUSH1 0x40 MLOAD PUSH32 0x756E736F72746564207061636B65747300000000000000000000000000000000 PUSH1 0x20 DUP3 ADD MSTORE PUSH1 0x3 SWAP1 PUSH1 0x30 ADD PUSH1 0x40 MLOAD PUSH1 0x20 DUP2 DUP4 SUB SUB DUP2 MSTORE SWAP1 PUSH1 0x40 MSTORE SWAP8 POP SWAP8 POP POP POP POP POP POP POP PUSH2 0x6B1 JUMP JUMPDEST POP DUP1 PUSH2 0xD19 DUP2 PUSH2 0x1682 JUMP JUMPDEST SWAP2 POP POP PUSH2 0xBA0 JUMP JUMPDEST POP POP POP POP JUMPDEST POP POP PUSH1 0x40 DUP1 MLOAD PUSH1 0x20 DUP2 ADD SWAP1 SWAP2 MSTORE PUSH1 0x0 DUP1 DUP3 MSTORE SWAP2 POP SWAP3 POP SWAP3 SWAP1 POP JUMP JUMPDEST PUSH1 0x0 PUSH1 0x60 PUSH1 0x0 PUSH32 0x0 PUSH1 0x1 PUSH1 0x1 PUSH1 0xA0 SHL SUB AND PUSH4 0x378AA701 PUSH1 0x40 MLOAD DUP2 PUSH4 0xFFFFFFFF AND PUSH1 0xE0 SHL DUP2 MSTORE PUSH1 0x4 ADD PUSH1 0x20 PUSH1 0x40 MLOAD DUP1 DUP4 SUB DUP2 DUP7 GAS STATICCALL ISZERO DUP1 ISZERO PUSH2 0xDA5 JUMPI RETURNDATASIZE PUSH1 0x0 DUP1 RETURNDATACOPY RETURNDATASIZE PUSH1 0x0 REVERT JUMPDEST POP POP POP POP PUSH1 0x40 MLOAD RETURNDATASIZE PUSH1 0x1F NOT PUSH1 0x1F DUP3 ADD AND DUP3 ADD DUP1 PUSH1 0x40 MSTORE POP DUP2 ADD SWAP1 PUSH2 0xDC9 SWAP2 SWAP1 PUSH2 0x1813 JUMP JUMPDEST SWAP1 POP PUSH1 0x0 JUMPDEST DUP5 DUP2 LT ISZERO PUSH2 0xEBB JUMPI PUSH1 0x0 DUP7 DUP7 DUP4 DUP2 DUP2 LT PUSH2 0xDEA JUMPI PUSH2 0xDEA PUSH2 0x155B JUMP JUMPDEST SWAP1 POP PUSH1 0x20 MUL DUP2 ADD SWAP1 PUSH2 0xDFC SWAP2 SWAP1 PUSH2 0x1712 JUMP JUMPDEST PUSH2 0xE05 SWAP1 PUSH2 0x1732 JUMP JUMPDEST DUP1 MLOAD PUSH1 0x20 DUP3 ADD MLOAD PUSH1 0x60 DUP4 ADD MLOAD PUSH1 0x40 MLOAD PUSH4 0x31251933 PUSH1 0xE1 SHL DUP2 MSTORE SWAP4 SWAP5 POP PUSH1 0x1 PUSH1 0x1 PUSH1 0xA0 SHL SUB PUSH32 0x0 AND SWAP4 PUSH4 0x624A3266 SWAP4 PUSH2 0xE64 SWAP4 SWAP1 SWAP3 SWAP1 SWAP2 DUP10 SWAP1 PUSH1 0x4 ADD PUSH2 0x182C JUMP JUMPDEST PUSH1 0x20 PUSH1 0x40 MLOAD DUP1 DUP4 SUB DUP2 DUP7 GAS STATICCALL ISZERO DUP1 ISZERO PUSH2 0xE81 JUMPI RETURNDATASIZE PUSH1 0x0 DUP1 RETURNDATACOPY RETURNDATASIZE PUSH1 0x0 REVERT JUMPDEST POP POP POP POP PUSH1 0x40 MLOAD RETURNDATASIZE PUSH1 0x1F NOT PUSH1 0x1F DUP3 ADD AND DUP3 ADD DUP1 PUSH1 0x40 MSTORE POP DUP2 ADD SWAP1 PUSH2 0xEA5 SWAP2 SWAP1 PUSH2 0x1813 JUMP JUMPDEST SWAP3 POP POP DUP1 DUP1 PUSH2 0xEB3 SWAP1 PUSH2 0x1682 JUMP JUMPDEST SWAP2 POP POP PUSH2 0xDCE JUMP JUMPDEST POP PUSH1 0x0 PUSH1 0x40 MLOAD DUP1 PUSH1 0x40 ADD PUSH1 0x40 MSTORE DUP1 DUP4 DUP2 MSTORE PUSH1 0x20 ADD PUSH32 0x0 PUSH1 0x1 PUSH1 0x1 PUSH1 0xA0 SHL SUB AND PUSH4 0x64DA4E6F PUSH1 0x40 MLOAD DUP2 PUSH4 0xFFFFFFFF AND PUSH1 0xE0 SHL DUP2 MSTORE PUSH1 0x4 ADD PUSH1 0x20 PUSH1 0x40 MLOAD DUP1 DUP4 SUB DUP2 DUP7 GAS STATICCALL ISZERO DUP1 ISZERO PUSH2 0xF2D JUMPI RETURNDATASIZE PUSH1 0x0 DUP1 RETURNDATACOPY RETURNDATASIZE PUSH1 0x0 REVERT JUMPDEST POP POP POP POP PUSH1 0x40 MLOAD RETURNDATASIZE PUSH1 0x1F NOT PUSH1 0x1F DUP3 ADD AND DUP3 ADD DUP1 PUSH1 0x40 MSTORE POP DUP2 ADD SWAP1 PUSH2 0xF51 SWAP2 SWAP1 PUSH2 0x1860 JUMP JUMPDEST ISZERO ISZERO SWAP1 MSTORE PUSH1 0x40 DUP1 MLOAD DUP3 MLOAD PUSH1 0x20 DUP1 DUP4 ADD SWAP2 SWAP1 SWAP2 MSTORE SWAP1 SWAP3 ADD MLOAD ISZERO ISZERO SWAP1 DUP3 ADD MSTORE PUSH1 0x60 ADD PUSH1 0x40 MLOAD PUSH1 0x20 DUP2 DUP4 SUB SUB DUP2 MSTORE SWAP1 PUSH1 0x40 MSTORE SWAP3 POP SWAP3 POP POP SWAP3 POP SWAP3 SWAP1 POP JUMP JUMPDEST DUP1 MLOAD PUSH1 0x40 MLOAD PUSH4 0x58B46B31 PUSH1 0xE0 SHL DUP2 MSTORE PUSH2 0xFFFF SWAP1 SWAP2 AND PUSH1 0x4 DUP3 ADD MSTORE PUSH1 0x0 SWAP1 PUSH32 0x0 PUSH1 0x1 PUSH1 0x1 PUSH1 0xA0 SHL SUB AND SWAP1 PUSH4 0x58B46B31 SWAP1 PUSH1 0x24 ADD PUSH1 0x20 PUSH1 0x40 MLOAD DUP1 DUP4 SUB DUP2 DUP7 GAS STATICCALL ISZERO DUP1 ISZERO PUSH2 0xFFA JUMPI RETURNDATASIZE PUSH1 0x0 DUP1 RETURNDATACOPY RETURNDATASIZE PUSH1 0x0 REVERT JUMPDEST POP POP POP POP PUSH1 0x40 MLOAD RETURNDATASIZE PUSH1 0x1F NOT PUSH1 0x1F DUP3 ADD AND DUP3 ADD DUP1 PUSH1 0x40 MSTORE POP DUP2 ADD SWAP1 PUSH2 0x38E SWAP2 SWAP1 PUSH2 0x187B JUMP JUMPDEST DUP3 DUP1 SLOAD DUP3 DUP3 SSTORE SWAP1 PUSH1 0x0 MSTORE PUSH1 0x20 PUSH1 0x0 KECCAK256 SWAP1 PUSH1 0xF ADD PUSH1 0x10 SWAP1 DIV DUP2 ADD SWAP3 DUP3 ISZERO PUSH2 0x10B7 JUMPI SWAP2 PUSH1 0x20 MUL DUP3 ADD PUSH1 0x0 JUMPDEST DUP4 DUP3 GT ISZERO PUSH2 0x1087 JUMPI DUP4 MLOAD DUP4 DUP3 PUSH2 0x100 EXP DUP2 SLOAD DUP2 PUSH2 0xFFFF MUL NOT AND SWAP1 DUP4 PUSH2 0xFFFF AND MUL OR SWAP1 SSTORE POP SWAP3 PUSH1 0x20 ADD SWAP3 PUSH1 0x2 ADD PUSH1 0x20 DUP2 PUSH1 0x1 ADD DIV SWAP3 DUP4 ADD SWAP3 PUSH1 0x1 SUB MUL PUSH2 0x1047 JUMP JUMPDEST DUP1 ISZERO PUSH2 0x10B5 JUMPI DUP3 DUP2 PUSH2 0x100 EXP DUP2 SLOAD SWAP1 PUSH2 0xFFFF MUL NOT AND SWAP1 SSTORE PUSH1 0x2 ADD PUSH1 0x20 DUP2 PUSH1 0x1 ADD DIV SWAP3 DUP4 ADD SWAP3 PUSH1 0x1 SUB MUL PUSH2 0x1087 JUMP JUMPDEST POP JUMPDEST POP PUSH2 0x10C3 SWAP3 SWAP2 POP PUSH2 0x1102 JUMP JUMPDEST POP SWAP1 JUMP JUMPDEST DUP3 DUP1 SLOAD DUP3 DUP3 SSTORE SWAP1 PUSH1 0x0 MSTORE PUSH1 0x20 PUSH1 0x0 KECCAK256 SWAP1 DUP2 ADD SWAP3 DUP3 ISZERO PUSH2 0x10B7 JUMPI SWAP2 PUSH1 0x20 MUL DUP3 ADD JUMPDEST DUP3 DUP2 GT ISZERO PUSH2 0x10B7 JUMPI DUP3 MLOAD DUP3 SSTORE SWAP2 PUSH1 0x20 ADD SWAP2 SWAP1 PUSH1 0x1 ADD SWAP1 PUSH2 0x10E7 JUMP JUMPDEST JUMPDEST DUP1 DUP3 GT ISZERO PUSH2 0x10C3 JUMPI PUSH1 0x0 DUP2 SSTORE PUSH1 0x1 ADD PUSH2 0x1103 JUMP JUMPDEST PUSH1 0x0 PUSH1 0x20 DUP3 DUP5 SUB SLT ISZERO PUSH2 0x1129 JUMPI PUSH1 0x0 DUP1 REVERT JUMPDEST POP CALLDATALOAD SWAP2 SWAP1 POP JUMP JUMPDEST PUSH1 0x0 DUP1 DUP4 PUSH1 0x1F DUP5 ADD SLT PUSH2 0x1142 JUMPI PUSH1 0x0 DUP1 REVERT JUMPDEST POP DUP2 CALLDATALOAD PUSH8 0xFFFFFFFFFFFFFFFF DUP2 GT ISZERO PUSH2 0x115A JUMPI PUSH1 0x0 DUP1 REVERT JUMPDEST PUSH1 0x20 DUP4 ADD SWAP2 POP DUP4 PUSH1 0x20 DUP3 PUSH1 0x5 SHL DUP6 ADD ADD GT ISZERO PUSH2 0x6B1 JUMPI PUSH1 0x0 DUP1 REVERT JUMPDEST PUSH1 0x0 DUP1 PUSH1 0x20 DUP4 DUP6 SUB SLT ISZERO PUSH2 0x1188 JUMPI PUSH1 0x0 DUP1 REVERT JUMPDEST DUP3 CALLDATALOAD PUSH8 0xFFFFFFFFFFFFFFFF DUP2 GT ISZERO PUSH2 0x119F JUMPI PUSH1 0x0 DUP1 REVERT JUMPDEST PUSH2 0x11AB DUP6 DUP3 DUP7 ADD PUSH2 0x1130 JUMP JUMPDEST SWAP1 SWAP7 SWAP1 SWAP6 POP SWAP4 POP POP POP POP JUMP JUMPDEST PUSH1 0x0 DUP2 MLOAD DUP1 DUP5 MSTORE PUSH1 0x0 JUMPDEST DUP2 DUP2 LT ISZERO PUSH2 0x11DD JUMPI PUSH1 0x20 DUP2 DUP6 ADD DUP2 ADD MLOAD DUP7 DUP4 ADD DUP3 ADD MSTORE ADD PUSH2 0x11C1 JUMP JUMPDEST POP PUSH1 0x0 PUSH1 0x20 DUP3 DUP7 ADD ADD MSTORE PUSH1 0x20 PUSH1 0x1F NOT PUSH1 0x1F DUP4 ADD AND DUP6 ADD ADD SWAP2 POP POP SWAP3 SWAP2 POP POP JUMP JUMPDEST PUSH1 0x20 DUP2 MSTORE PUSH1 0x0 PUSH2 0x1210 PUSH1 0x20 DUP4 ADD DUP5 PUSH2 0x11B7 JUMP JUMPDEST SWAP4 SWAP3 POP POP POP JUMP JUMPDEST PUSH8 0xFFFFFFFFFFFFFFFF DUP2 AND DUP2 EQ PUSH2 0x122D JUMPI PUSH1 0x0 DUP1 REVERT JUMPDEST POP JUMP JUMPDEST PUSH1 0x0 PUSH1 0x20 DUP3 DUP5 SUB SLT ISZERO PUSH2 0x1242 JUMPI PUSH1 0x0 DUP1 REVERT JUMPDEST DUP2 CALLDATALOAD PUSH2 0x1210 DUP2 PUSH2 0x1217 JUMP JUMPDEST PUSH4 0x4E487B71 PUSH1 0xE0 SHL PUSH1 0x0 MSTORE PUSH1 0x41 PUSH1 0x4 MSTORE PUSH1 0x24 PUSH1 0x0 REVERT JUMPDEST PUSH1 0x40 MLOAD PUSH1 0x1F DUP3 ADD PUSH1 0x1F NOT AND DUP2 ADD PUSH8 0xFFFFFFFFFFFFFFFF DUP2 GT DUP3 DUP3 LT OR ISZERO PUSH2 0x128C JUMPI PUSH2 0x128C PUSH2 0x124D JUMP JUMPDEST PUSH1 0x40 MSTORE SWAP2 SWAP1 POP JUMP JUMPDEST PUSH1 0x0 PUSH8 0xFFFFFFFFFFFFFFFF DUP3 GT ISZERO PUSH2 0x12AE JUMPI PUSH2 0x12AE PUSH2 0x124D JUMP JUMPDEST POP PUSH1 0x5 SHL PUSH1 0x20 ADD SWAP1 JUMP JUMPDEST DUP1 CALLDATALOAD PUSH2 0xFFFF DUP2 AND DUP2 EQ PUSH2 0x12CA JUMPI PUSH1 0x0 DUP1 REVERT JUMPDEST SWAP2 SWAP1 POP JUMP JUMPDEST PUSH1 0x0 DUP3 PUSH1 0x1F DUP4 ADD SLT PUSH2 0x12E0 JUMPI PUSH1 0x0 DUP1 REVERT JUMPDEST DUP2 CALLDATALOAD PUSH1 0x20 PUSH2 0x12F5 PUSH2 0x12F0 DUP4 PUSH2 0x1294 JUMP JUMPDEST PUSH2 0x1263 JUMP JUMPDEST DUP3 DUP2 MSTORE PUSH1 0x5 SWAP3 SWAP1 SWAP3 SHL DUP5 ADD DUP2 ADD SWAP2 DUP2 DUP2 ADD SWAP1 DUP7 DUP5 GT ISZERO PUSH2 0x1314 JUMPI PUSH1 0x0 DUP1 REVERT JUMPDEST DUP3 DUP7 ADD JUMPDEST DUP5 DUP2 LT ISZERO PUSH2 0x132F JUMPI DUP1 CALLDATALOAD DUP4 MSTORE SWAP2 DUP4 ADD SWAP2 DUP4 ADD PUSH2 0x1318 JUMP JUMPDEST POP SWAP7 SWAP6 POP POP POP POP POP POP JUMP JUMPDEST PUSH1 0x0 DUP1 PUSH1 0x40 DUP4 DUP6 SUB SLT ISZERO PUSH2 0x134D JUMPI PUSH1 0x0 DUP1 REVERT JUMPDEST DUP3 CALLDATALOAD PUSH8 0xFFFFFFFFFFFFFFFF DUP1 DUP3 GT ISZERO PUSH2 0x1365 JUMPI PUSH1 0x0 DUP1 REVERT JUMPDEST DUP2 DUP6 ADD SWAP2 POP DUP6 PUSH1 0x1F DUP4 ADD SLT PUSH2 0x1379 JUMPI PUSH1 0x0 DUP1 REVERT JUMPDEST DUP2 CALLDATALOAD PUSH1 0x20 PUSH2 0x1389 PUSH2 0x12F0 DUP4 PUSH2 0x1294 JUMP JUMPDEST DUP3 DUP2 MSTORE PUSH1 0x5 SWAP3 SWAP1 SWAP3 SHL DUP5 ADD DUP2 ADD SWAP2 DUP2 DUP2 ADD SWAP1 DUP10 DUP5 GT ISZERO PUSH2 0x13A8 JUMPI PUSH1 0x0 DUP1 REVERT JUMPDEST SWAP5 DUP3 ADD SWAP5 JUMPDEST DUP4 DUP7 LT ISZERO PUSH2 0x13CD JUMPI PUSH2 0x13BE DUP7 PUSH2 0x12B8 JUMP JUMPDEST DUP3 MSTORE SWAP5 DUP3 ADD SWAP5 SWAP1 DUP3 ADD SWAP1 PUSH2 0x13AD JUMP JUMPDEST SWAP7 POP POP DUP7 ADD CALLDATALOAD SWAP3 POP POP DUP1 DUP3 GT ISZERO PUSH2 0x13E3 JUMPI PUSH1 0x0 DUP1 REVERT JUMPDEST POP PUSH2 0x13F0 DUP6 DUP3 DUP7 ADD PUSH2 0x12CF JUMP JUMPDEST SWAP2 POP POP SWAP3 POP SWAP3 SWAP1 POP JUMP JUMPDEST PUSH1 0x0 DUP1 PUSH1 0x0 DUP1 PUSH1 0x40 DUP6 DUP8 SUB SLT ISZERO PUSH2 0x1410 JUMPI PUSH1 0x0 DUP1 REVERT JUMPDEST DUP5 CALLDATALOAD PUSH8 0xFFFFFFFFFFFFFFFF DUP1 DUP3 GT ISZERO PUSH2 0x1428 JUMPI PUSH1 0x0 DUP1 REVERT JUMPDEST PUSH2 0x1434 DUP9 DUP4 DUP10 ADD PUSH2 0x1130 JUMP JUMPDEST SWAP1 SWAP7 POP SWAP5 POP PUSH1 0x20 DUP8 ADD CALLDATALOAD SWAP2 POP DUP1 DUP3 GT ISZERO PUSH2 0x144D JUMPI PUSH1 0x0 DUP1 REVERT JUMPDEST POP PUSH2 0x145A DUP8 DUP3 DUP9 ADD PUSH2 0x1130 JUMP JUMPDEST SWAP6 SWAP9 SWAP5 SWAP8 POP SWAP6 POP POP POP POP JUMP JUMPDEST PUSH2 0xFFFF DUP4 AND DUP2 MSTORE PUSH1 0x40 PUSH1 0x20 DUP3 ADD MSTORE PUSH1 0x0 PUSH2 0x1483 PUSH1 0x40 DUP4 ADD DUP5 PUSH2 0x11B7 JUMP JUMPDEST SWAP5 SWAP4 POP POP POP POP JUMP JUMPDEST PUSH1 0x0 PUSH1 0x20 DUP3 DUP5 SUB SLT ISZERO PUSH2 0x149D JUMPI PUSH1 0x0 DUP1 REVERT JUMPDEST DUP2 CALLDATALOAD PUSH1 0x1 PUSH1 0x1 PUSH1 0xA0 SHL SUB DUP2 AND DUP2 EQ PUSH2 0x1210 JUMPI PUSH1 0x0 DUP1 REVERT JUMPDEST PUSH2 0xFFFF PUSH1 0xF0 SHL DUP7 PUSH1 0xF0 SHL AND DUP2 MSTORE PUSH32 0xFFFFFFFFFFFFFFFF000000000000000000000000000000000000000000000000 DUP6 PUSH1 0xC0 SHL AND PUSH1 0x2 DUP3 ADD MSTORE DUP4 PUSH1 0xA DUP3 ADD MSTORE PUSH1 0x0 PUSH1 0x2A DUP3 ADD DUP5 MLOAD PUSH1 0x20 DUP1 DUP8 ADD PUSH1 0x0 JUMPDEST DUP4 DUP2 LT ISZERO PUSH2 0x1522 JUMPI DUP2 MLOAD PUSH2 0xFFFF AND DUP6 MSTORE SWAP4 DUP3 ADD SWAP4 SWAP1 DUP3 ADD SWAP1 PUSH1 0x1 ADD PUSH2 0x1502 JUMP JUMPDEST POP POP DUP6 MLOAD DUP2 DUP8 ADD SWAP4 SWAP3 POP PUSH1 0x0 JUMPDEST DUP2 DUP2 LT ISZERO PUSH2 0x154B JUMPI DUP5 MLOAD DUP5 MSTORE SWAP4 DUP3 ADD SWAP4 SWAP3 DUP3 ADD SWAP3 PUSH1 0x1 ADD PUSH2 0x152F JUMP JUMPDEST POP SWAP2 SWAP11 SWAP10 POP POP POP POP POP POP POP POP POP POP JUMP JUMPDEST PUSH4 0x4E487B71 PUSH1 0xE0 SHL PUSH1 0x0 MSTORE PUSH1 0x32 PUSH1 0x4 MSTORE PUSH1 0x24 PUSH1 0x0 REVERT JUMPDEST PUSH1 0x0 DUP1 DUP4 CALLDATALOAD PUSH1 0x1E NOT DUP5 CALLDATASIZE SUB ADD DUP2 SLT PUSH2 0x1588 JUMPI PUSH1 0x0 DUP1 REVERT JUMPDEST DUP4 ADD DUP1 CALLDATALOAD SWAP2 POP PUSH8 0xFFFFFFFFFFFFFFFF DUP3 GT ISZERO PUSH2 0x15A3 JUMPI PUSH1 0x0 DUP1 REVERT JUMPDEST PUSH1 0x20 ADD SWAP2 POP CALLDATASIZE DUP2 SWAP1 SUB DUP3 SGT ISZERO PUSH2 0x6B1 JUMPI PUSH1 0x0 DUP1 REVERT JUMPDEST PUSH1 0x0 DUP3 PUSH1 0x1F DUP4 ADD SLT PUSH2 0x15C9 JUMPI PUSH1 0x0 DUP1 REVERT JUMPDEST DUP2 CALLDATALOAD PUSH8 0xFFFFFFFFFFFFFFFF DUP2 GT ISZERO PUSH2 0x15E3 JUMPI PUSH2 0x15E3 PUSH2 0x124D JUMP JUMPDEST PUSH2 0x15F6 PUSH1 0x1F DUP3 ADD PUSH1 0x1F NOT AND PUSH1 0x20 ADD PUSH2 0x1263 JUMP JUMPDEST DUP2 DUP2 MSTORE DUP5 PUSH1 0x20 DUP4 DUP7 ADD ADD GT ISZERO PUSH2 0x160B JUMPI PUSH1 0x0 DUP1 REVERT JUMPDEST DUP2 PUSH1 0x20 DUP6 ADD PUSH1 0x20 DUP4 ADD CALLDATACOPY PUSH1 0x0 SWAP2 DUP2 ADD PUSH1 0x20 ADD SWAP2 SWAP1 SWAP2 MSTORE SWAP4 SWAP3 POP POP POP JUMP JUMPDEST PUSH1 0x0 DUP1 PUSH1 0x40 DUP4 DUP6 SUB SLT ISZERO PUSH2 0x163B JUMPI PUSH1 0x0 DUP1 REVERT JUMPDEST PUSH2 0x1644 DUP4 PUSH2 0x12B8 JUMP JUMPDEST SWAP2 POP PUSH1 0x20 DUP4 ADD CALLDATALOAD PUSH8 0xFFFFFFFFFFFFFFFF DUP2 GT ISZERO PUSH2 0x1660 JUMPI PUSH1 0x0 DUP1 REVERT JUMPDEST PUSH2 0x13F0 DUP6 DUP3 DUP7 ADD PUSH2 0x15B8 JUMP JUMPDEST PUSH4 0x4E487B71 PUSH1 0xE0 SHL PUSH1 0x0 MSTORE PUSH1 0x11 PUSH1 0x4 MSTORE PUSH1 0x24 PUSH1 0x0 REVERT JUMPDEST PUSH1 0x0 PUSH1 0x1 DUP3 ADD PUSH2 0x1694 JUMPI PUSH2 0x1694 PUSH2 0x166C JUMP JUMPDEST POP PUSH1 0x1 ADD SWAP1 JUMP JUMPDEST DUP1 MLOAD DUP1 ISZERO ISZERO DUP2 EQ PUSH2 0x12CA JUMPI PUSH1 0x0 DUP1 REVERT JUMPDEST PUSH1 0x0 PUSH1 0x40 DUP3 DUP5 SUB SLT ISZERO PUSH2 0x16BD JUMPI PUSH1 0x0 DUP1 REVERT JUMPDEST PUSH1 0x40 MLOAD PUSH1 0x40 DUP2 ADD DUP2 DUP2 LT PUSH8 0xFFFFFFFFFFFFFFFF DUP3 GT OR ISZERO PUSH2 0x16E0 JUMPI PUSH2 0x16E0 PUSH2 0x124D JUMP JUMPDEST PUSH1 0x40 MSTORE DUP3 MLOAD DUP2 MSTORE PUSH2 0x16F3 PUSH1 0x20 DUP5 ADD PUSH2 0x169B JUMP JUMPDEST PUSH1 0x20 DUP3 ADD MSTORE SWAP4 SWAP3 POP POP POP JUMP JUMPDEST DUP1 DUP3 ADD DUP1 DUP3 GT ISZERO PUSH2 0x38E JUMPI PUSH2 0x38E PUSH2 0x166C JUMP JUMPDEST PUSH1 0x0 DUP3 CALLDATALOAD PUSH1 0x7E NOT DUP4 CALLDATASIZE SUB ADD DUP2 SLT PUSH2 0x1728 JUMPI PUSH1 0x0 DUP1 REVERT JUMPDEST SWAP2 SWAP1 SWAP2 ADD SWAP3 SWAP2 POP POP JUMP JUMPDEST PUSH1 0x0 PUSH1 0x80 DUP3 CALLDATASIZE SUB SLT ISZERO PUSH2 0x1744 JUMPI PUSH1 0x0 DUP1 REVERT JUMPDEST PUSH1 0x40 MLOAD PUSH1 0x80 DUP2 ADD PUSH8 0xFFFFFFFFFFFFFFFF DUP3 DUP3 LT DUP2 DUP4 GT OR ISZERO PUSH2 0x1768 JUMPI PUSH2 0x1768 PUSH2 0x124D JUMP JUMPDEST DUP2 PUSH1 0x40 MSTORE PUSH2 0x1775 DUP6 PUSH2 0x12B8 JUMP JUMPDEST DUP4 MSTORE PUSH1 0x20 DUP6 ADD CALLDATALOAD PUSH1 0x20 DUP5 ADD MSTORE PUSH1 0x40 DUP6 ADD CALLDATALOAD SWAP2 POP PUSH2 0x1791 DUP3 PUSH2 0x1217 JUMP JUMPDEST DUP2 PUSH1 0x40 DUP5 ADD MSTORE PUSH1 0x60 DUP6 ADD CALLDATALOAD SWAP2 POP DUP1 DUP3 GT ISZERO PUSH2 0x17AB JUMPI PUSH1 0x0 DUP1 REVERT JUMPDEST POP PUSH2 0x17B8 CALLDATASIZE DUP3 DUP7 ADD PUSH2 0x15B8 JUMP JUMPDEST PUSH1 0x60 DUP4 ADD MSTORE POP SWAP3 SWAP2 POP POP JUMP JUMPDEST PUSH8 0xFFFFFFFFFFFFFFFF DUP2 DUP2 AND DUP4 DUP3 AND ADD SWAP1 DUP1 DUP3 GT ISZERO PUSH2 0x17E5 JUMPI PUSH2 0x17E5 PUSH2 0x166C JUMP JUMPDEST POP SWAP3 SWAP2 POP POP JUMP JUMPDEST PUSH1 0x0 PUSH8 0xFFFFFFFFFFFFFFFF DUP1 DUP4 AND DUP2 DUP2 SUB PUSH2 0x1809 JUMPI PUSH2 0x1809 PUSH2 0x166C JUMP JUMPDEST PUSH1 0x1 ADD SWAP4 SWAP3 POP POP POP JUMP JUMPDEST PUSH1 0x0 PUSH1 0x20 DUP3 DUP5 SUB SLT ISZERO PUSH2 0x1825 JUMPI PUSH1 0x0 DUP1 REVERT JUMPDEST POP MLOAD SWAP2 SWAP1 POP JUMP JUMPDEST PUSH2 0xFFFF DUP6 AND DUP2 MSTORE DUP4 PUSH1 0x20 DUP3 ADD MSTORE PUSH1 0x80 PUSH1 0x40 DUP3 ADD MSTORE PUSH1 0x0 PUSH2 0x184F PUSH1 0x80 DUP4 ADD DUP6 PUSH2 0x11B7 JUMP JUMPDEST SWAP1 POP DUP3 PUSH1 0x60 DUP4 ADD MSTORE SWAP6 SWAP5 POP POP POP POP POP JUMP JUMPDEST PUSH1 0x0 PUSH1 0x20 DUP3 DUP5 SUB SLT ISZERO PUSH2 0x1872 JUMPI PUSH1 0x0 DUP1 REVERT JUMPDEST PUSH2 0x1210 DUP3 PUSH2 0x169B JUMP JUMPDEST PUSH1 0x0 PUSH1 0x20 DUP3 DUP5 SUB SLT ISZERO PUSH2 0x188D JUMPI PUSH1 0x0 DUP1 REVERT JUMPDEST DUP2 MLOAD PUSH2 0x1210 DUP2 PUSH2 0x1217 JUMP INVALID LOG2 PUSH5 0x6970667358 0x22 SLT KECCAK256 0x5C LOG0 0xB4 PUSH26 0xABA8AE07277AA2874C5F861B4BCE77A018BD94C548804ECF4A3D 0xBB 0x21 PUSH5 0x736F6C6343 STOP ADDMOD EQ STOP CALLER "
        },
        "methodIdentifiers": {
          "CODE_MISS_SIMULATE_RESULT()": "c6be4b9b",
          "CODE_PACKETS_OVERSIZE()": "0638fb64",
          "CODE_PACKETS_UNSORTED()": "0e735a63",
          "CODE_PRECRIME_FAILURE()": "472641c1",
          "CODE_SUCCESS()": "17c9efb0",
          "CONFIG_VERSION()": "34e30097",
          "PRECRIME_VERSION()": "f95d1404",
          "getConfig((uint16,bytes32,uint64,bytes)[])": "9590dc9d",
          "localChainId()": "5b056da5",
          "maxBatchSize()": "2913daa0",
          "oftView()": "028c382f",
          "owner()": "8da5cb5b",
          "precrime((uint16,bytes32,uint64,bytes)[],bytes[])": "ec67df30",
          "remoteChainIds(uint256)": "9eb51f5b",
          "remotePrecrimeAddresses(uint256)": "4e0ab1ab",
          "setMaxBatchSize(uint64)": "afea44ef",
          "setRemotePrecrimeAddresses(uint16[],bytes32[])": "bb968368",
          "simulate((uint16,bytes32,uint64,bytes)[])": "f0099e2a",
          "transferOwnership(address)": "f2fde38b",
          "version()": "54fd4d50"
        }
      }
    }
  }
}