{
  "contracts/StargateLPStrategy.sol": {
    "StargateLPStrategy": {
      "abi": [
        {
          "inputs": [
            {
              "internalType": "contract IStargatePool",
              "name": "_strategyToken",
              "type": "address"
            },
            {
              "internalType": "contract IBentoBoxV1",
              "name": "_bentoBox",
              "type": "address"
            },
            {
              "internalType": "contract IStargateRouter",
              "name": "_router",
              "type": "address"
            },
            {
              "internalType": "contract IStargateLPStaking",
              "name": "_staking",
              "type": "address"
            },
            {
              "internalType": "address",
              "name": "_rewardToken",
              "type": "address"
            },
            {
              "internalType": "uint256",
              "name": "_pid",
              "type": "uint256"
            }
          ],
          "stateMutability": "nonpayable",
          "type": "constructor"
        },
        {
          "inputs": [],
          "name": "ErrInsufficientAmountOut",
          "type": "error"
        },
        {
          "inputs": [],
          "name": "ErrInvalidFeeBips",
          "type": "error"
        },
        {
          "inputs": [
            {
              "internalType": "address",
              "name": "",
              "type": "address"
            }
          ],
          "name": "ErrInvalidFeeOperator",
          "type": "error"
        },
        {
          "anonymous": false,
          "inputs": [
            {
              "indexed": true,
              "internalType": "address",
              "name": "previousFeeCollector",
              "type": "address"
            },
            {
              "indexed": false,
              "internalType": "uint16",
              "name": "previousFeeAmount",
              "type": "uint16"
            },
            {
              "indexed": true,
              "internalType": "address",
              "name": "feeCollector",
              "type": "address"
            },
            {
              "indexed": false,
              "internalType": "uint16",
              "name": "feeAmount",
              "type": "uint16"
            }
          ],
          "name": "LogFeeParametersChanged",
          "type": "event"
        },
        {
          "anonymous": false,
          "inputs": [
            {
              "indexed": false,
              "internalType": "uint256",
              "name": "total",
              "type": "uint256"
            },
            {
              "indexed": false,
              "internalType": "uint256",
              "name": "strategyAmount",
              "type": "uint256"
            },
            {
              "indexed": false,
              "internalType": "uint256",
              "name": "feeAmount",
              "type": "uint256"
            }
          ],
          "name": "LogLpMinted",
          "type": "event"
        },
        {
          "anonymous": false,
          "inputs": [
            {
              "indexed": true,
              "internalType": "address",
              "name": "executor",
              "type": "address"
            },
            {
              "indexed": false,
              "internalType": "bool",
              "name": "allowed",
              "type": "bool"
            }
          ],
          "name": "LogSetStrategyExecutor",
          "type": "event"
        },
        {
          "anonymous": false,
          "inputs": [
            {
              "indexed": false,
              "internalType": "address",
              "name": "oldSwapper",
              "type": "address"
            },
            {
              "indexed": false,
              "internalType": "address",
              "name": "newSwapper",
              "type": "address"
            }
          ],
          "name": "LogStargateSwapperChanged",
          "type": "event"
        },
        {
          "anonymous": false,
          "inputs": [
            {
              "indexed": true,
              "internalType": "address",
              "name": "previousOwner",
              "type": "address"
            },
            {
              "indexed": true,
              "internalType": "address",
              "name": "newOwner",
              "type": "address"
            }
          ],
          "name": "OwnershipTransferred",
          "type": "event"
        },
        {
          "inputs": [
            {
              "internalType": "address",
              "name": "to",
              "type": "address"
            },
            {
              "internalType": "uint256",
              "name": "value",
              "type": "uint256"
            },
            {
              "internalType": "bytes",
              "name": "data",
              "type": "bytes"
            }
          ],
          "name": "afterExit",
          "outputs": [
            {
              "internalType": "bool",
              "name": "success",
              "type": "bool"
            }
          ],
          "stateMutability": "nonpayable",
          "type": "function"
        },
        {
          "inputs": [],
          "name": "bentoBox",
          "outputs": [
            {
              "internalType": "contract IBentoBoxV1",
              "name": "",
              "type": "address"
            }
          ],
          "stateMutability": "view",
          "type": "function"
        },
        {
          "inputs": [],
          "name": "claimOwnership",
          "outputs": [],
          "stateMutability": "nonpayable",
          "type": "function"
        },
        {
          "inputs": [
            {
              "internalType": "uint256",
              "name": "balance",
              "type": "uint256"
            }
          ],
          "name": "exit",
          "outputs": [
            {
              "internalType": "int256",
              "name": "amountAdded",
              "type": "int256"
            }
          ],
          "stateMutability": "nonpayable",
          "type": "function"
        },
        {
          "inputs": [],
          "name": "exited",
          "outputs": [
            {
              "internalType": "bool",
              "name": "",
              "type": "bool"
            }
          ],
          "stateMutability": "view",
          "type": "function"
        },
        {
          "inputs": [],
          "name": "feeBips",
          "outputs": [
            {
              "internalType": "uint16",
              "name": "",
              "type": "uint16"
            }
          ],
          "stateMutability": "view",
          "type": "function"
        },
        {
          "inputs": [],
          "name": "feeCollector",
          "outputs": [
            {
              "internalType": "address",
              "name": "",
              "type": "address"
            }
          ],
          "stateMutability": "view",
          "type": "function"
        },
        {
          "inputs": [
            {
              "internalType": "uint256",
              "name": "balance",
              "type": "uint256"
            },
            {
              "internalType": "address",
              "name": "sender",
              "type": "address"
            }
          ],
          "name": "harvest",
          "outputs": [
            {
              "internalType": "int256",
              "name": "",
              "type": "int256"
            }
          ],
          "stateMutability": "nonpayable",
          "type": "function"
        },
        {
          "inputs": [
            {
              "internalType": "address",
              "name": "account",
              "type": "address"
            }
          ],
          "name": "isFeeOperator",
          "outputs": [
            {
              "internalType": "bool",
              "name": "",
              "type": "bool"
            }
          ],
          "stateMutability": "view",
          "type": "function"
        },
        {
          "inputs": [],
          "name": "maxBentoBoxBalance",
          "outputs": [
            {
              "internalType": "uint256",
              "name": "",
              "type": "uint256"
            }
          ],
          "stateMutability": "view",
          "type": "function"
        },
        {
          "inputs": [],
          "name": "owner",
          "outputs": [
            {
              "internalType": "address",
              "name": "",
              "type": "address"
            }
          ],
          "stateMutability": "view",
          "type": "function"
        },
        {
          "inputs": [],
          "name": "pendingOwner",
          "outputs": [
            {
              "internalType": "address",
              "name": "",
              "type": "address"
            }
          ],
          "stateMutability": "view",
          "type": "function"
        },
        {
          "inputs": [],
          "name": "pid",
          "outputs": [
            {
              "internalType": "uint256",
              "name": "",
              "type": "uint256"
            }
          ],
          "stateMutability": "view",
          "type": "function"
        },
        {
          "inputs": [],
          "name": "poolId",
          "outputs": [
            {
              "internalType": "uint256",
              "name": "",
              "type": "uint256"
            }
          ],
          "stateMutability": "view",
          "type": "function"
        },
        {
          "inputs": [],
          "name": "rewardToken",
          "outputs": [
            {
              "internalType": "address",
              "name": "",
              "type": "address"
            }
          ],
          "stateMutability": "view",
          "type": "function"
        },
        {
          "inputs": [],
          "name": "router",
          "outputs": [
            {
              "internalType": "contract IStargateRouter",
              "name": "",
              "type": "address"
            }
          ],
          "stateMutability": "view",
          "type": "function"
        },
        {
          "inputs": [
            {
              "internalType": "uint256",
              "name": "maxBalance",
              "type": "uint256"
            },
            {
              "internalType": "bool",
              "name": "rebalance",
              "type": "bool"
            },
            {
              "internalType": "uint256",
              "name": "maxChangeAmount",
              "type": "uint256"
            },
            {
              "internalType": "bool",
              "name": "harvestRewards",
              "type": "bool"
            }
          ],
          "name": "safeHarvest",
          "outputs": [],
          "stateMutability": "nonpayable",
          "type": "function"
        },
        {
          "inputs": [
            {
              "internalType": "address",
              "name": "_feeCollector",
              "type": "address"
            },
            {
              "internalType": "uint16",
              "name": "_feeBips",
              "type": "uint16"
            }
          ],
          "name": "setFeeParameters",
          "outputs": [],
          "stateMutability": "nonpayable",
          "type": "function"
        },
        {
          "inputs": [
            {
              "internalType": "address",
              "name": "_stargateSwapper",
              "type": "address"
            }
          ],
          "name": "setStargateSwapper",
          "outputs": [],
          "stateMutability": "nonpayable",
          "type": "function"
        },
        {
          "inputs": [
            {
              "internalType": "address",
              "name": "executor",
              "type": "address"
            },
            {
              "internalType": "bool",
              "name": "value",
              "type": "bool"
            }
          ],
          "name": "setStrategyExecutor",
          "outputs": [],
          "stateMutability": "nonpayable",
          "type": "function"
        },
        {
          "inputs": [
            {
              "internalType": "uint256",
              "name": "amount",
              "type": "uint256"
            }
          ],
          "name": "skim",
          "outputs": [],
          "stateMutability": "nonpayable",
          "type": "function"
        },
        {
          "inputs": [],
          "name": "staking",
          "outputs": [
            {
              "internalType": "contract IStargateLPStaking",
              "name": "",
              "type": "address"
            }
          ],
          "stateMutability": "view",
          "type": "function"
        },
        {
          "inputs": [],
          "name": "stargateSwapper",
          "outputs": [
            {
              "internalType": "address",
              "name": "",
              "type": "address"
            }
          ],
          "stateMutability": "view",
          "type": "function"
        },
        {
          "inputs": [
            {
              "internalType": "address",
              "name": "",
              "type": "address"
            }
          ],
          "name": "strategyExecutors",
          "outputs": [
            {
              "internalType": "bool",
              "name": "",
              "type": "bool"
            }
          ],
          "stateMutability": "view",
          "type": "function"
        },
        {
          "inputs": [],
          "name": "strategyToken",
          "outputs": [
            {
              "internalType": "contract IERC20",
              "name": "",
              "type": "address"
            }
          ],
          "stateMutability": "view",
          "type": "function"
        },
        {
          "inputs": [
            {
              "internalType": "uint256",
              "name": "amountOutMin",
              "type": "uint256"
            },
            {
              "internalType": "bytes",
              "name": "data",
              "type": "bytes"
            }
          ],
          "name": "swapToLP",
          "outputs": [
            {
              "internalType": "uint256",
              "name": "amountOut",
              "type": "uint256"
            }
          ],
          "stateMutability": "nonpayable",
          "type": "function"
        },
        {
          "inputs": [
            {
              "internalType": "address",
              "name": "newOwner",
              "type": "address"
            },
            {
              "internalType": "bool",
              "name": "direct",
              "type": "bool"
            },
            {
              "internalType": "bool",
              "name": "renounce",
              "type": "bool"
            }
          ],
          "name": "transferOwnership",
          "outputs": [],
          "stateMutability": "nonpayable",
          "type": "function"
        },
        {
          "inputs": [],
          "name": "underlyingToken",
          "outputs": [
            {
              "internalType": "address",
              "name": "",
              "type": "address"
            }
          ],
          "stateMutability": "view",
          "type": "function"
        },
        {
          "inputs": [
            {
              "internalType": "uint256",
              "name": "amount",
              "type": "uint256"
            }
          ],
          "name": "withdraw",
          "outputs": [
            {
              "internalType": "uint256",
              "name": "actualAmount",
              "type": "uint256"
            }
          ],
          "stateMutability": "nonpayable",
          "type": "function"
        }
      ],
      "evm": {
        "bytecode": {
          "linkReferences": {},
          "object": "6101806040523480156200001257600080fd5b506040516200272b3803806200272b8339810160408190526200003591620002b6565b600080546001600160a01b03191633908117825560405188928892917f8be0079c531659141344cd1fd0a4f28419497f9722a3daafe3b4186f6b6457e0908290a36001600160a01b03918216608052811660a05284811660e05283811660c0528281166101005261016082905260408051631f06e1a760e11b8152905191881691633e0dc34e916004808201926020929091908290030181865afa158015620000e2573d6000803e3d6000fd5b505050506040513d601f19601f820116820180604052508101906200010891906200033e565b61014081815250506000866001600160a01b031663fc0c546a6040518163ffffffff1660e01b8152600401602060405180830381865afa15801562000151573d6000803e3d6000fd5b505050506040513d601f19601f8201168201806040525081019062000177919062000358565b6004805460966001600160b01b03199091163362010000021717815560405163095ea7b360e01b81526001600160a01b0388811692820192909252600019602482015291925082169063095ea7b3906044016020604051808303816000875af1158015620001e9573d6000803e3d6000fd5b505050506040513d601f19601f820116820180604052508101906200020f91906200037f565b506001600160a01b038181166101205260405163095ea7b360e01b8152858216600482015260001960248201529088169063095ea7b3906044016020604051808303816000875af115801562000269573d6000803e3d6000fd5b505050506040513d601f19601f820116820180604052508101906200028f91906200037f565b5050505050505050620003a3565b6001600160a01b0381168114620002b357600080fd5b50565b60008060008060008060c08789031215620002d057600080fd5b8651620002dd816200029d565b6020880151909650620002f0816200029d565b604088015190955062000303816200029d565b606088015190945062000316816200029d565b608088015190935062000329816200029d565b8092505060a087015190509295509295509295565b6000602082840312156200035157600080fd5b5051919050565b6000602082840312156200036b57600080fd5b815162000378816200029d565b9392505050565b6000602082840312156200039257600080fd5b815180151581146200037857600080fd5b60805160a05160c05160e05161010051610120516101405161016051612234620004f760003960008181610487015281816117cb015281816119a601528181611a430152611ab601526000818161028c01526107e201526000818161025201526107ad0152600081816104ae015281816113d801526114300152600081816104d501526108180152600081816102b3015281816117fb015281816119d301528181611a700152611adc01526000818161035e01528181610a3a01528181610afc01528181610c6501528181610cdf01528181610da701528181610ed60152818161108f015281816111cc01526112fd015260008181610385015281816106da0152818161089e0152818161095701528181610ad401528181610bbb01528181610c4301528181610cbd01528181610e3201528181610eb40152818161111c015281816111aa01526112c601526122346000f3fe608060405234801561001057600080fd5b50600436106101cf5760003560e01c8063747efea111610104578063d22290a4116100a2578063eacbb63f11610071578063eacbb63f1461046f578063f106845414610482578063f7c618c1146104a9578063f887ea40146104d057600080fd5b8063d22290a41461041f578063d9253c2d14610440578063e30c397814610453578063e8bd73a51461046657600080fd5b80638da5cb5b116100de5780638da5cb5b146103cd578063ba6275ab146103e0578063c415b95c146103f3578063d08a31601461040c57600080fd5b8063747efea11461038057806374ceb267146103a75780637f8661a1146103ba57600080fd5b80634cf088d9116101715780635a0af2e31161014b5780635a0af2e3146103105780635ce6c327146103325780636939aaf5146103465780636b2ace871461035957600080fd5b80634cf088d9146102ae5780634e71e0c8146102d55780635066ebdd146102dd57600080fd5b806318fccc76116101ad57806318fccc761461023a5780632495a5991461024d5780632e1a7d4d146102745780633e0dc34e1461028757600080fd5b8063078dfbe7146101d45780630f0319c3146101e957806315289fc314610219575b600080fd5b6101e76101e2366004611d3e565b6104f7565b005b6005546101fc906001600160a01b031681565b6040516001600160a01b0390911681526020015b60405180910390f35b61022c610227366004611d87565b610643565b604051908152602001610210565b61022c610248366004611e03565b6109d2565b6101fc7f000000000000000000000000000000000000000000000000000000000000000081565b61022c610282366004611e2f565b610d3f565b61022c7f000000000000000000000000000000000000000000000000000000000000000081565b6101fc7f000000000000000000000000000000000000000000000000000000000000000081565b6101e7610f00565b6103006102eb366004611e48565b60036020526000908152604090205460ff1681565b6040519015158152602001610210565b61030061031e366004611e48565b6000546001600160a01b0391821691161490565b60015461030090600160a01b900460ff1681565b6101e7610354366004611e2f565b610fbd565b6101fc7f000000000000000000000000000000000000000000000000000000000000000081565b6101fc7f000000000000000000000000000000000000000000000000000000000000000081565b6101e76103b5366004611e63565b610fc9565b61022c6103c8366004611e2f565b611082565b6000546101fc906001600160a01b031681565b6101e76103ee366004611e9a565b611225565b6004546101fc906201000090046001600160a01b031681565b6101e761041a366004611e48565b61135f565b60045461042d9061ffff1681565b60405161ffff9091168152602001610210565b61030061044e366004611f2b565b6114a0565b6001546101fc906001600160a01b031681565b61022c60025481565b6101e761047d366004611fda565b6115ba565b61022c7f000000000000000000000000000000000000000000000000000000000000000081565b6101fc7f000000000000000000000000000000000000000000000000000000000000000081565b6101fc7f000000000000000000000000000000000000000000000000000000000000000081565b6000546001600160a01b031633146105565760405162461bcd60e51b815260206004820181905260248201527f4f776e61626c653a2063616c6c6572206973206e6f7420746865206f776e657260448201526064015b60405180910390fd5b8115610621576001600160a01b0383161515806105705750805b6105bc5760405162461bcd60e51b815260206004820152601560248201527f4f776e61626c653a207a65726f20616464726573730000000000000000000000604482015260640161054d565b600080546040516001600160a01b03808716939216917f8be0079c531659141344cd1fd0a4f28419497f9722a3daafe3b4186f6b6457e091a3600080546001600160a01b0385166001600160a01b031991821617909155600180549091169055505050565b600180546001600160a01b0385166001600160a01b0319909116179055505050565b600080546001600160a01b031633148061066c57503360009081526003602052604090205460ff165b6106c25760405162461bcd60e51b815260206004820152602160248201527f42656e746f426f782053747261746567793a206f6e6c79204578656375746f726044820152607360f81b606482015260840161054d565b6040516370a0823160e01b81523060048201526000907f00000000000000000000000000000000000000000000000000000000000000006001600160a01b0316906370a0823190602401602060405180830381865afa158015610729573d6000803e3d6000fd5b505050506040513d601f19601f8201168201806040525081019061074d919061200d565b600554604080516020601f880181900481028201810190925286815292935061079d926001600160a01b03909216919087908790819084018382808284376000920191909152506116b692505050565b5060006107d36001600160a01b037f00000000000000000000000000000000000000000000000000000000000000001630611701565b6040516321ec87bf60e21b81527f00000000000000000000000000000000000000000000000000000000000000006004820152602481018290523060448201529091507f00000000000000000000000000000000000000000000000000000000000000006001600160a01b0316906387b21efc90606401600060405180830381600087803b15801561086457600080fd5b505af1158015610878573d6000803e3d6000fd5b50506040516370a0823160e01b8152306004820152600092508491506001600160a01b037f000000000000000000000000000000000000000000000000000000000000000016906370a0823190602401602060405180830381865afa1580156108e5573d6000803e3d6000fd5b505050506040513d601f19601f82011682018060405250810190610909919061200d565b610913919061203c565b90508681101561093657604051632f8eddbd60e21b815260040160405180910390fd5b600061094182611736565b6004549196509150610986906001600160a01b037f0000000000000000000000000000000000000000000000000000000000000000811691620100009004168361176d565b60408051838152602081018790529081018290527f698363f65ca9fc4b32234c9ad139ebed5352706a4430df970f71718bc03961169060600160405180910390a1505050509392505050565b600154600090600160a01b900460ff1615610a2f5760405162461bcd60e51b815260206004820152601960248201527f42656e746f426f782053747261746567793a2065786974656400000000000000604482015260640161054d565b336001600160a01b037f00000000000000000000000000000000000000000000000000000000000000001614610aa75760405162461bcd60e51b815260206004820181905260248201527f42656e746f426f782053747261746567793a206f6e6c792042656e746f426f78604482015260640161054d565b6001600160a01b03821630148015610b7c5750600254604051634ffe34db60e01b81526001600160a01b037f0000000000000000000000000000000000000000000000000000000000000000811660048301527f00000000000000000000000000000000000000000000000000000000000000001690634ffe34db906024016040805180830381865afa158015610b42573d6000803e3d6000fd5b505050506040513d601f19601f82011682018060405250810190610b66919061206f565b516fffffffffffffffffffffffffffffffff1611155b8015610b885750600083115b15610d35576000610b98846117bc565b6040516370a0823160e01b81523060048201529091506000906001600160a01b037f000000000000000000000000000000000000000000000000000000000000000016906370a0823190602401602060405180830381865afa158015610c02573d6000803e3d6000fd5b505050506040513d601f19601f82011682018060405250810190610c26919061200d565b905060008212610c93578015610c8a57610c8a6001600160a01b037f0000000000000000000000000000000000000000000000000000000000000000167f000000000000000000000000000000000000000000000000000000000000000083611867565b9150610d399050565b8015610d2d576000610ca582846120ca565b90506000811315610d1a57610d046001600160a01b037f0000000000000000000000000000000000000000000000000000000000000000167f000000000000000000000000000000000000000000000000000000000000000083611867565b610d15610d10846120f2565b611997565b610d23565b610d2382611997565b9250610d39915050565b509050610d39565b5060005b92915050565b600154600090600160a01b900460ff1615610d9c5760405162461bcd60e51b815260206004820152601960248201527f42656e746f426f782053747261746567793a2065786974656400000000000000604482015260640161054d565b336001600160a01b037f00000000000000000000000000000000000000000000000000000000000000001614610e145760405162461bcd60e51b815260206004820181905260248201527f42656e746f426f782053747261746567793a206f6e6c792042656e746f426f78604482015260640161054d565b610e1d82611a34565b6040516370a0823160e01b81523060048201527f00000000000000000000000000000000000000000000000000000000000000006001600160a01b0316906370a0823190602401602060405180830381865afa158015610e81573d6000803e3d6000fd5b505050506040513d601f19601f82011682018060405250810190610ea5919061200d565b9050610efb6001600160a01b037f0000000000000000000000000000000000000000000000000000000000000000167f000000000000000000000000000000000000000000000000000000000000000083611867565b919050565b6001546001600160a01b0316338114610f5b5760405162461bcd60e51b815260206004820181905260248201527f4f776e61626c653a2063616c6c657220213d2070656e64696e67206f776e6572604482015260640161054d565b600080546040516001600160a01b03808516939216917f8be0079c531659141344cd1fd0a4f28419497f9722a3daafe3b4186f6b6457e091a3600080546001600160a01b039092166001600160a01b0319928316179055600180549091169055565b610fc681611997565b50565b6000546001600160a01b031633146110235760405162461bcd60e51b815260206004820181905260248201527f4f776e61626c653a2063616c6c6572206973206e6f7420746865206f776e6572604482015260640161054d565b6001600160a01b038216600081815260036020908152604091829020805460ff191685151590811790915591519182527fb08a78f53a7fe017d5ca8c8fcdbf06ffa2c31f2ab668378a17700d9fc558717e910160405180910390a25050565b6000336001600160a01b037f000000000000000000000000000000000000000000000000000000000000000016146110fc5760405162461bcd60e51b815260206004820181905260248201527f42656e746f426f782053747261746567793a206f6e6c792042656e746f426f78604482015260640161054d565b611104611aa7565b6040516370a0823160e01b81523060048201526000907f00000000000000000000000000000000000000000000000000000000000000006001600160a01b0316906370a0823190602401602060405180830381865afa15801561116b573d6000803e3d6000fd5b505050506040513d601f19601f8201168201806040525081019061118f919061200d565b905061119b838261210e565b91506111f16001600160a01b037f0000000000000000000000000000000000000000000000000000000000000000167f000000000000000000000000000000000000000000000000000000000000000083611867565b50600180547fffffffffffffffffffffff00ffffffffffffffffffffffffffffffffffffffff16600160a01b179055919050565b6000546001600160a01b031633148061124d57503360009081526003602052604090205460ff165b6112a35760405162461bcd60e51b815260206004820152602160248201527f42656e746f426f782053747261746567793a206f6e6c79204578656375746f726044820152607360f81b606482015260840161054d565b83156112af5760028490555b6040516366c6bb0b60e01b81526001600160a01b037f0000000000000000000000000000000000000000000000000000000000000000811660048301528415156024830152604482018490527f000000000000000000000000000000000000000000000000000000000000000016906366c6bb0b90606401600060405180830381600087803b15801561134157600080fd5b505af1158015611355573d6000803e3d6000fd5b5050505050505050565b6000546001600160a01b031633146113b95760405162461bcd60e51b815260206004820181905260248201527f4f776e61626c653a2063616c6c6572206973206e6f7420746865206f776e6572604482015260640161054d565b6005546001600160a01b03168015611400576114006001600160a01b037f000000000000000000000000000000000000000000000000000000000000000016826000611b42565b600580546001600160a01b0319166001600160a01b03841690811790915515611459576114596001600160a01b037f00000000000000000000000000000000000000000000000000000000000000001683600019611b42565b604080516001600160a01b038084168252841660208201527f60f1fdcea50915cbf56513538153cf67321f2867757c702ae551b13f1b2f3a29910160405180910390a15050565b600080546001600160a01b031633146114fb5760405162461bcd60e51b815260206004820181905260248201527f4f776e61626c653a2063616c6c6572206973206e6f7420746865206f776e6572604482015260640161054d565b600154600160a01b900460ff166115545760405162461bcd60e51b815260206004820152601d60248201527f42656e746f426f782053747261746567793a206e6f7420657869746564000000604482015260640161054d565b836001600160a01b0316838360405161156d9190612159565b60006040518083038185875af1925050503d80600081146115aa576040519150601f19603f3d011682016040523d82523d6000602084013e6115af565b606091505b509095945050505050565b6000546001600160a01b031633146115e757604051631120ac6d60e31b815233600482015260240161054d565b60045461271061ffff909116111561161257604051637d941fcf60e11b815260040160405180910390fd5b6004546040805161ffff8084168252841660208201526001600160a01b038581169362010000900416917f3211c83a09d01653307dce8be31e51c79240be602c393a64e512de455a4dd423910160405180910390a3600480547fffffffffffffffffffff0000000000000000000000000000000000000000000016620100006001600160a01b03949094169390930261ffff19169290921761ffff91909116179055565b60606116fa838360006040518060400160405280601e81526020017f416464726573733a206c6f772d6c6576656c2063616c6c206661696c65640000815250611b87565b9392505050565b6000816014526f70a0823100000000000000000000000060005260208060246010865afa601f3d111660205102905092915050565b6004546000908190612710906117509061ffff1685612175565b61175a919061218c565b9050611766818461203c565b9150915091565b81601452806034526fa9059cbb00000000000000000000000060005260206000604460106000875af13d1560016000511417166117b2576390b8ec186000526004601cfd5b6000603452505050565b604051630441a3e760e41b81527f00000000000000000000000000000000000000000000000000000000000000006004820152600060248201819052907f00000000000000000000000000000000000000000000000000000000000000006001600160a01b03169063441a3e7090604401600060405180830381600087803b15801561184757600080fd5b505af115801561185b573d6000803e3d6000fd5b50600095945050505050565b604080516001600160a01b038481166024830152604480830185905283518084039091018152606490920183526020820180517bffffffffffffffffffffffffffffffffffffffffffffffffffffffff1663a9059cbb60e01b17905291516000928392908716916118d89190612159565b6000604051808303816000865af19150503d8060008114611915576040519150601f19603f3d011682016040523d82523d6000602084013e61191a565b606091505b509150915081801561194457508051158061194457508080602001905181019061194491906121ae565b6119905760405162461bcd60e51b815260206004820152601c60248201527f426f72696e6745524332303a205472616e73666572206661696c656400000000604482015260640161054d565b5050505050565b604051631c57762b60e31b81527f00000000000000000000000000000000000000000000000000000000000000006004820152602481018290527f00000000000000000000000000000000000000000000000000000000000000006001600160a01b03169063e2bbb158906044015b600060405180830381600087803b158015611a2057600080fd5b505af1158015611990573d6000803e3d6000fd5b604051630441a3e760e41b81527f00000000000000000000000000000000000000000000000000000000000000006004820152602481018290527f00000000000000000000000000000000000000000000000000000000000000006001600160a01b03169063441a3e7090604401611a06565b604051632989754760e11b81527f000000000000000000000000000000000000000000000000000000000000000060048201527f00000000000000000000000000000000000000000000000000000000000000006001600160a01b031690635312ea8e90602401600060405180830381600087803b158015611b2857600080fd5b505af1158015611b3c573d6000803e3d6000fd5b50505050565b81601452806034526f095ea7b300000000000000000000000060005260206000604460106000875af13d1560016000511417166117b257633e3f8f736000526004601cfd5b606082471015611bff5760405162461bcd60e51b815260206004820152602660248201527f416464726573733a20696e73756666696369656e742062616c616e636520666f60448201527f722063616c6c0000000000000000000000000000000000000000000000000000606482015260840161054d565b600080866001600160a01b03168587604051611c1b9190612159565b60006040518083038185875af1925050503d8060008114611c58576040519150601f19603f3d011682016040523d82523d6000602084013e611c5d565b606091505b5091509150611c6e87838387611c7b565b925050505b949350505050565b60608315611cea578251600003611ce3576001600160a01b0385163b611ce35760405162461bcd60e51b815260206004820152601d60248201527f416464726573733a2063616c6c20746f206e6f6e2d636f6e7472616374000000604482015260640161054d565b5081611c73565b611c738383815115611cff5781518083602001fd5b8060405162461bcd60e51b815260040161054d91906121cb565b80356001600160a01b0381168114610efb57600080fd5b8015158114610fc657600080fd5b600080600060608486031215611d5357600080fd5b611d5c84611d19565b92506020840135611d6c81611d30565b91506040840135611d7c81611d30565b809150509250925092565b600080600060408486031215611d9c57600080fd5b83359250602084013567ffffffffffffffff80821115611dbb57600080fd5b818601915086601f830112611dcf57600080fd5b813581811115611dde57600080fd5b876020828501011115611df057600080fd5b6020830194508093505050509250925092565b60008060408385031215611e1657600080fd5b82359150611e2660208401611d19565b90509250929050565b600060208284031215611e4157600080fd5b5035919050565b600060208284031215611e5a57600080fd5b6116fa82611d19565b60008060408385031215611e7657600080fd5b611e7f83611d19565b91506020830135611e8f81611d30565b809150509250929050565b60008060008060808587031215611eb057600080fd5b843593506020850135611ec281611d30565b9250604085013591506060850135611ed981611d30565b939692955090935050565b634e487b7160e01b600052604160045260246000fd5b604051601f8201601f1916810167ffffffffffffffff81118282101715611f2357611f23611ee4565b604052919050565b600080600060608486031215611f4057600080fd5b611f4984611d19565b92506020808501359250604085013567ffffffffffffffff80821115611f6e57600080fd5b818701915087601f830112611f8257600080fd5b813581811115611f9457611f94611ee4565b611fa6601f8201601f19168501611efa565b91508082528884828501011115611fbc57600080fd5b80848401858401376000848284010152508093505050509250925092565b60008060408385031215611fed57600080fd5b611ff683611d19565b9150602083013561ffff81168114611e8f57600080fd5b60006020828403121561201f57600080fd5b5051919050565b634e487b7160e01b600052601160045260246000fd5b81810381811115610d3957610d39612026565b80516fffffffffffffffffffffffffffffffff81168114610efb57600080fd5b60006040828403121561208157600080fd5b6040516040810181811067ffffffffffffffff821117156120a4576120a4611ee4565b6040526120b08361204f565b81526120be6020840161204f565b60208201529392505050565b80820182811260008312801582168215821617156120ea576120ea612026565b505092915050565b6000600160ff1b820161210757612107612026565b5060000390565b818103600083128015838313168383128216171561212e5761212e612026565b5092915050565b60005b83811015612150578181015183820152602001612138565b50506000910152565b6000825161216b818460208701612135565b9190910192915050565b8082028115828204841417610d3957610d39612026565b6000826121a957634e487b7160e01b600052601260045260246000fd5b500490565b6000602082840312156121c057600080fd5b81516116fa81611d30565b60208152600082518060208401526121ea816040850160208701612135565b601f01601f1916919091016040019291505056fea26469706673582212209e1a0fc0910d9a82e778a6376d9d4b3bf344045929b75a0a3dff18e40c3300ad64736f6c63430008140033",
          "opcodes": "PUSH2 0x180 PUSH1 0x40 MSTORE CALLVALUE DUP1 ISZERO PUSH3 0x12 JUMPI PUSH1 0x0 DUP1 REVERT JUMPDEST POP PUSH1 0x40 MLOAD PUSH3 0x272B CODESIZE SUB DUP1 PUSH3 0x272B DUP4 CODECOPY DUP2 ADD PUSH1 0x40 DUP2 SWAP1 MSTORE PUSH3 0x35 SWAP2 PUSH3 0x2B6 JUMP JUMPDEST PUSH1 0x0 DUP1 SLOAD PUSH1 0x1 PUSH1 0x1 PUSH1 0xA0 SHL SUB NOT AND CALLER SWAP1 DUP2 OR DUP3 SSTORE PUSH1 0x40 MLOAD DUP9 SWAP3 DUP9 SWAP3 SWAP2 PUSH32 0x8BE0079C531659141344CD1FD0A4F28419497F9722A3DAAFE3B4186F6B6457E0 SWAP1 DUP3 SWAP1 LOG3 PUSH1 0x1 PUSH1 0x1 PUSH1 0xA0 SHL SUB SWAP2 DUP3 AND PUSH1 0x80 MSTORE DUP2 AND PUSH1 0xA0 MSTORE DUP5 DUP2 AND PUSH1 0xE0 MSTORE DUP4 DUP2 AND PUSH1 0xC0 MSTORE DUP3 DUP2 AND PUSH2 0x100 MSTORE PUSH2 0x160 DUP3 SWAP1 MSTORE PUSH1 0x40 DUP1 MLOAD PUSH4 0x1F06E1A7 PUSH1 0xE1 SHL DUP2 MSTORE SWAP1 MLOAD SWAP2 DUP9 AND SWAP2 PUSH4 0x3E0DC34E SWAP2 PUSH1 0x4 DUP1 DUP3 ADD SWAP3 PUSH1 0x20 SWAP3 SWAP1 SWAP2 SWAP1 DUP3 SWAP1 SUB ADD DUP2 DUP7 GAS STATICCALL ISZERO DUP1 ISZERO PUSH3 0xE2 JUMPI RETURNDATASIZE PUSH1 0x0 DUP1 RETURNDATACOPY RETURNDATASIZE PUSH1 0x0 REVERT JUMPDEST POP POP POP POP PUSH1 0x40 MLOAD RETURNDATASIZE PUSH1 0x1F NOT PUSH1 0x1F DUP3 ADD AND DUP3 ADD DUP1 PUSH1 0x40 MSTORE POP DUP2 ADD SWAP1 PUSH3 0x108 SWAP2 SWAP1 PUSH3 0x33E JUMP JUMPDEST PUSH2 0x140 DUP2 DUP2 MSTORE POP POP PUSH1 0x0 DUP7 PUSH1 0x1 PUSH1 0x1 PUSH1 0xA0 SHL SUB AND PUSH4 0xFC0C546A PUSH1 0x40 MLOAD DUP2 PUSH4 0xFFFFFFFF AND PUSH1 0xE0 SHL DUP2 MSTORE PUSH1 0x4 ADD PUSH1 0x20 PUSH1 0x40 MLOAD DUP1 DUP4 SUB DUP2 DUP7 GAS STATICCALL ISZERO DUP1 ISZERO PUSH3 0x151 JUMPI RETURNDATASIZE PUSH1 0x0 DUP1 RETURNDATACOPY RETURNDATASIZE PUSH1 0x0 REVERT JUMPDEST POP POP POP POP PUSH1 0x40 MLOAD RETURNDATASIZE PUSH1 0x1F NOT PUSH1 0x1F DUP3 ADD AND DUP3 ADD DUP1 PUSH1 0x40 MSTORE POP DUP2 ADD SWAP1 PUSH3 0x177 SWAP2 SWAP1 PUSH3 0x358 JUMP JUMPDEST PUSH1 0x4 DUP1 SLOAD PUSH1 0x96 PUSH1 0x1 PUSH1 0x1 PUSH1 0xB0 SHL SUB NOT SWAP1 SWAP2 AND CALLER PUSH3 0x10000 MUL OR OR DUP2 SSTORE PUSH1 0x40 MLOAD PUSH4 0x95EA7B3 PUSH1 0xE0 SHL DUP2 MSTORE PUSH1 0x1 PUSH1 0x1 PUSH1 0xA0 SHL SUB DUP9 DUP2 AND SWAP3 DUP3 ADD SWAP3 SWAP1 SWAP3 MSTORE PUSH1 0x0 NOT PUSH1 0x24 DUP3 ADD MSTORE SWAP2 SWAP3 POP DUP3 AND SWAP1 PUSH4 0x95EA7B3 SWAP1 PUSH1 0x44 ADD PUSH1 0x20 PUSH1 0x40 MLOAD DUP1 DUP4 SUB DUP2 PUSH1 0x0 DUP8 GAS CALL ISZERO DUP1 ISZERO PUSH3 0x1E9 JUMPI RETURNDATASIZE PUSH1 0x0 DUP1 RETURNDATACOPY RETURNDATASIZE PUSH1 0x0 REVERT JUMPDEST POP POP POP POP PUSH1 0x40 MLOAD RETURNDATASIZE PUSH1 0x1F NOT PUSH1 0x1F DUP3 ADD AND DUP3 ADD DUP1 PUSH1 0x40 MSTORE POP DUP2 ADD SWAP1 PUSH3 0x20F SWAP2 SWAP1 PUSH3 0x37F JUMP JUMPDEST POP PUSH1 0x1 PUSH1 0x1 PUSH1 0xA0 SHL SUB DUP2 DUP2 AND PUSH2 0x120 MSTORE PUSH1 0x40 MLOAD PUSH4 0x95EA7B3 PUSH1 0xE0 SHL DUP2 MSTORE DUP6 DUP3 AND PUSH1 0x4 DUP3 ADD MSTORE PUSH1 0x0 NOT PUSH1 0x24 DUP3 ADD MSTORE SWAP1 DUP9 AND SWAP1 PUSH4 0x95EA7B3 SWAP1 PUSH1 0x44 ADD PUSH1 0x20 PUSH1 0x40 MLOAD DUP1 DUP4 SUB DUP2 PUSH1 0x0 DUP8 GAS CALL ISZERO DUP1 ISZERO PUSH3 0x269 JUMPI RETURNDATASIZE PUSH1 0x0 DUP1 RETURNDATACOPY RETURNDATASIZE PUSH1 0x0 REVERT JUMPDEST POP POP POP POP PUSH1 0x40 MLOAD RETURNDATASIZE PUSH1 0x1F NOT PUSH1 0x1F DUP3 ADD AND DUP3 ADD DUP1 PUSH1 0x40 MSTORE POP DUP2 ADD SWAP1 PUSH3 0x28F SWAP2 SWAP1 PUSH3 0x37F JUMP JUMPDEST POP POP POP POP POP POP POP POP PUSH3 0x3A3 JUMP JUMPDEST PUSH1 0x1 PUSH1 0x1 PUSH1 0xA0 SHL SUB DUP2 AND DUP2 EQ PUSH3 0x2B3 JUMPI PUSH1 0x0 DUP1 REVERT JUMPDEST POP JUMP JUMPDEST PUSH1 0x0 DUP1 PUSH1 0x0 DUP1 PUSH1 0x0 DUP1 PUSH1 0xC0 DUP8 DUP10 SUB SLT ISZERO PUSH3 0x2D0 JUMPI PUSH1 0x0 DUP1 REVERT JUMPDEST DUP7 MLOAD PUSH3 0x2DD DUP2 PUSH3 0x29D JUMP JUMPDEST PUSH1 0x20 DUP9 ADD MLOAD SWAP1 SWAP7 POP PUSH3 0x2F0 DUP2 PUSH3 0x29D JUMP JUMPDEST PUSH1 0x40 DUP9 ADD MLOAD SWAP1 SWAP6 POP PUSH3 0x303 DUP2 PUSH3 0x29D JUMP JUMPDEST PUSH1 0x60 DUP9 ADD MLOAD SWAP1 SWAP5 POP PUSH3 0x316 DUP2 PUSH3 0x29D JUMP JUMPDEST PUSH1 0x80 DUP9 ADD MLOAD SWAP1 SWAP4 POP PUSH3 0x329 DUP2 PUSH3 0x29D JUMP JUMPDEST DUP1 SWAP3 POP POP PUSH1 0xA0 DUP8 ADD MLOAD SWAP1 POP SWAP3 SWAP6 POP SWAP3 SWAP6 POP SWAP3 SWAP6 JUMP JUMPDEST PUSH1 0x0 PUSH1 0x20 DUP3 DUP5 SUB SLT ISZERO PUSH3 0x351 JUMPI PUSH1 0x0 DUP1 REVERT JUMPDEST POP MLOAD SWAP2 SWAP1 POP JUMP JUMPDEST PUSH1 0x0 PUSH1 0x20 DUP3 DUP5 SUB SLT ISZERO PUSH3 0x36B JUMPI PUSH1 0x0 DUP1 REVERT JUMPDEST DUP2 MLOAD PUSH3 0x378 DUP2 PUSH3 0x29D JUMP JUMPDEST SWAP4 SWAP3 POP POP POP JUMP JUMPDEST PUSH1 0x0 PUSH1 0x20 DUP3 DUP5 SUB SLT ISZERO PUSH3 0x392 JUMPI PUSH1 0x0 DUP1 REVERT JUMPDEST DUP2 MLOAD DUP1 ISZERO ISZERO DUP2 EQ PUSH3 0x378 JUMPI PUSH1 0x0 DUP1 REVERT JUMPDEST PUSH1 0x80 MLOAD PUSH1 0xA0 MLOAD PUSH1 0xC0 MLOAD PUSH1 0xE0 MLOAD PUSH2 0x100 MLOAD PUSH2 0x120 MLOAD PUSH2 0x140 MLOAD PUSH2 0x160 MLOAD PUSH2 0x2234 PUSH3 0x4F7 PUSH1 0x0 CODECOPY PUSH1 0x0 DUP2 DUP2 PUSH2 0x487 ADD MSTORE DUP2 DUP2 PUSH2 0x17CB ADD MSTORE DUP2 DUP2 PUSH2 0x19A6 ADD MSTORE DUP2 DUP2 PUSH2 0x1A43 ADD MSTORE PUSH2 0x1AB6 ADD MSTORE PUSH1 0x0 DUP2 DUP2 PUSH2 0x28C ADD MSTORE PUSH2 0x7E2 ADD MSTORE PUSH1 0x0 DUP2 DUP2 PUSH2 0x252 ADD MSTORE PUSH2 0x7AD ADD MSTORE PUSH1 0x0 DUP2 DUP2 PUSH2 0x4AE ADD MSTORE DUP2 DUP2 PUSH2 0x13D8 ADD MSTORE PUSH2 0x1430 ADD MSTORE PUSH1 0x0 DUP2 DUP2 PUSH2 0x4D5 ADD MSTORE PUSH2 0x818 ADD MSTORE PUSH1 0x0 DUP2 DUP2 PUSH2 0x2B3 ADD MSTORE DUP2 DUP2 PUSH2 0x17FB ADD MSTORE DUP2 DUP2 PUSH2 0x19D3 ADD MSTORE DUP2 DUP2 PUSH2 0x1A70 ADD MSTORE PUSH2 0x1ADC ADD MSTORE PUSH1 0x0 DUP2 DUP2 PUSH2 0x35E ADD MSTORE DUP2 DUP2 PUSH2 0xA3A ADD MSTORE DUP2 DUP2 PUSH2 0xAFC ADD MSTORE DUP2 DUP2 PUSH2 0xC65 ADD MSTORE DUP2 DUP2 PUSH2 0xCDF ADD MSTORE DUP2 DUP2 PUSH2 0xDA7 ADD MSTORE DUP2 DUP2 PUSH2 0xED6 ADD MSTORE DUP2 DUP2 PUSH2 0x108F ADD MSTORE DUP2 DUP2 PUSH2 0x11CC ADD MSTORE PUSH2 0x12FD ADD MSTORE PUSH1 0x0 DUP2 DUP2 PUSH2 0x385 ADD MSTORE DUP2 DUP2 PUSH2 0x6DA ADD MSTORE DUP2 DUP2 PUSH2 0x89E ADD MSTORE DUP2 DUP2 PUSH2 0x957 ADD MSTORE DUP2 DUP2 PUSH2 0xAD4 ADD MSTORE DUP2 DUP2 PUSH2 0xBBB ADD MSTORE DUP2 DUP2 PUSH2 0xC43 ADD MSTORE DUP2 DUP2 PUSH2 0xCBD ADD MSTORE DUP2 DUP2 PUSH2 0xE32 ADD MSTORE DUP2 DUP2 PUSH2 0xEB4 ADD MSTORE DUP2 DUP2 PUSH2 0x111C ADD MSTORE DUP2 DUP2 PUSH2 0x11AA ADD MSTORE PUSH2 0x12C6 ADD MSTORE PUSH2 0x2234 PUSH1 0x0 RETURN INVALID PUSH1 0x80 PUSH1 0x40 MSTORE CALLVALUE DUP1 ISZERO PUSH2 0x10 JUMPI PUSH1 0x0 DUP1 REVERT JUMPDEST POP PUSH1 0x4 CALLDATASIZE LT PUSH2 0x1CF JUMPI PUSH1 0x0 CALLDATALOAD PUSH1 0xE0 SHR DUP1 PUSH4 0x747EFEA1 GT PUSH2 0x104 JUMPI DUP1 PUSH4 0xD22290A4 GT PUSH2 0xA2 JUMPI DUP1 PUSH4 0xEACBB63F GT PUSH2 0x71 JUMPI DUP1 PUSH4 0xEACBB63F EQ PUSH2 0x46F JUMPI DUP1 PUSH4 0xF1068454 EQ PUSH2 0x482 JUMPI DUP1 PUSH4 0xF7C618C1 EQ PUSH2 0x4A9 JUMPI DUP1 PUSH4 0xF887EA40 EQ PUSH2 0x4D0 JUMPI PUSH1 0x0 DUP1 REVERT JUMPDEST DUP1 PUSH4 0xD22290A4 EQ PUSH2 0x41F JUMPI DUP1 PUSH4 0xD9253C2D EQ PUSH2 0x440 JUMPI DUP1 PUSH4 0xE30C3978 EQ PUSH2 0x453 JUMPI DUP1 PUSH4 0xE8BD73A5 EQ PUSH2 0x466 JUMPI PUSH1 0x0 DUP1 REVERT JUMPDEST DUP1 PUSH4 0x8DA5CB5B GT PUSH2 0xDE JUMPI DUP1 PUSH4 0x8DA5CB5B EQ PUSH2 0x3CD JUMPI DUP1 PUSH4 0xBA6275AB EQ PUSH2 0x3E0 JUMPI DUP1 PUSH4 0xC415B95C EQ PUSH2 0x3F3 JUMPI DUP1 PUSH4 0xD08A3160 EQ PUSH2 0x40C JUMPI PUSH1 0x0 DUP1 REVERT JUMPDEST DUP1 PUSH4 0x747EFEA1 EQ PUSH2 0x380 JUMPI DUP1 PUSH4 0x74CEB267 EQ PUSH2 0x3A7 JUMPI DUP1 PUSH4 0x7F8661A1 EQ PUSH2 0x3BA JUMPI PUSH1 0x0 DUP1 REVERT JUMPDEST DUP1 PUSH4 0x4CF088D9 GT PUSH2 0x171 JUMPI DUP1 PUSH4 0x5A0AF2E3 GT PUSH2 0x14B JUMPI DUP1 PUSH4 0x5A0AF2E3 EQ PUSH2 0x310 JUMPI DUP1 PUSH4 0x5CE6C327 EQ PUSH2 0x332 JUMPI DUP1 PUSH4 0x6939AAF5 EQ PUSH2 0x346 JUMPI DUP1 PUSH4 0x6B2ACE87 EQ PUSH2 0x359 JUMPI PUSH1 0x0 DUP1 REVERT JUMPDEST DUP1 PUSH4 0x4CF088D9 EQ PUSH2 0x2AE JUMPI DUP1 PUSH4 0x4E71E0C8 EQ PUSH2 0x2D5 JUMPI DUP1 PUSH4 0x5066EBDD EQ PUSH2 0x2DD JUMPI PUSH1 0x0 DUP1 REVERT JUMPDEST DUP1 PUSH4 0x18FCCC76 GT PUSH2 0x1AD JUMPI DUP1 PUSH4 0x18FCCC76 EQ PUSH2 0x23A JUMPI DUP1 PUSH4 0x2495A599 EQ PUSH2 0x24D JUMPI DUP1 PUSH4 0x2E1A7D4D EQ PUSH2 0x274 JUMPI DUP1 PUSH4 0x3E0DC34E EQ PUSH2 0x287 JUMPI PUSH1 0x0 DUP1 REVERT JUMPDEST DUP1 PUSH4 0x78DFBE7 EQ PUSH2 0x1D4 JUMPI DUP1 PUSH4 0xF0319C3 EQ PUSH2 0x1E9 JUMPI DUP1 PUSH4 0x15289FC3 EQ PUSH2 0x219 JUMPI JUMPDEST PUSH1 0x0 DUP1 REVERT JUMPDEST PUSH2 0x1E7 PUSH2 0x1E2 CALLDATASIZE PUSH1 0x4 PUSH2 0x1D3E JUMP JUMPDEST PUSH2 0x4F7 JUMP JUMPDEST STOP JUMPDEST PUSH1 0x5 SLOAD PUSH2 0x1FC SWAP1 PUSH1 0x1 PUSH1 0x1 PUSH1 0xA0 SHL SUB AND DUP2 JUMP JUMPDEST PUSH1 0x40 MLOAD PUSH1 0x1 PUSH1 0x1 PUSH1 0xA0 SHL SUB SWAP1 SWAP2 AND DUP2 MSTORE PUSH1 0x20 ADD JUMPDEST PUSH1 0x40 MLOAD DUP1 SWAP2 SUB SWAP1 RETURN JUMPDEST PUSH2 0x22C PUSH2 0x227 CALLDATASIZE PUSH1 0x4 PUSH2 0x1D87 JUMP JUMPDEST PUSH2 0x643 JUMP JUMPDEST PUSH1 0x40 MLOAD SWAP1 DUP2 MSTORE PUSH1 0x20 ADD PUSH2 0x210 JUMP JUMPDEST PUSH2 0x22C PUSH2 0x248 CALLDATASIZE PUSH1 0x4 PUSH2 0x1E03 JUMP JUMPDEST PUSH2 0x9D2 JUMP JUMPDEST PUSH2 0x1FC PUSH32 0x0 DUP2 JUMP JUMPDEST PUSH2 0x22C PUSH2 0x282 CALLDATASIZE PUSH1 0x4 PUSH2 0x1E2F JUMP JUMPDEST PUSH2 0xD3F JUMP JUMPDEST PUSH2 0x22C PUSH32 0x0 DUP2 JUMP JUMPDEST PUSH2 0x1FC PUSH32 0x0 DUP2 JUMP JUMPDEST PUSH2 0x1E7 PUSH2 0xF00 JUMP JUMPDEST PUSH2 0x300 PUSH2 0x2EB CALLDATASIZE PUSH1 0x4 PUSH2 0x1E48 JUMP JUMPDEST PUSH1 0x3 PUSH1 0x20 MSTORE PUSH1 0x0 SWAP1 DUP2 MSTORE PUSH1 0x40 SWAP1 KECCAK256 SLOAD PUSH1 0xFF AND DUP2 JUMP JUMPDEST PUSH1 0x40 MLOAD SWAP1 ISZERO ISZERO DUP2 MSTORE PUSH1 0x20 ADD PUSH2 0x210 JUMP JUMPDEST PUSH2 0x300 PUSH2 0x31E CALLDATASIZE PUSH1 0x4 PUSH2 0x1E48 JUMP JUMPDEST PUSH1 0x0 SLOAD PUSH1 0x1 PUSH1 0x1 PUSH1 0xA0 SHL SUB SWAP2 DUP3 AND SWAP2 AND EQ SWAP1 JUMP JUMPDEST PUSH1 0x1 SLOAD PUSH2 0x300 SWAP1 PUSH1 0x1 PUSH1 0xA0 SHL SWAP1 DIV PUSH1 0xFF AND DUP2 JUMP JUMPDEST PUSH2 0x1E7 PUSH2 0x354 CALLDATASIZE PUSH1 0x4 PUSH2 0x1E2F JUMP JUMPDEST PUSH2 0xFBD JUMP JUMPDEST PUSH2 0x1FC PUSH32 0x0 DUP2 JUMP JUMPDEST PUSH2 0x1FC PUSH32 0x0 DUP2 JUMP JUMPDEST PUSH2 0x1E7 PUSH2 0x3B5 CALLDATASIZE PUSH1 0x4 PUSH2 0x1E63 JUMP JUMPDEST PUSH2 0xFC9 JUMP JUMPDEST PUSH2 0x22C PUSH2 0x3C8 CALLDATASIZE PUSH1 0x4 PUSH2 0x1E2F JUMP JUMPDEST PUSH2 0x1082 JUMP JUMPDEST PUSH1 0x0 SLOAD PUSH2 0x1FC SWAP1 PUSH1 0x1 PUSH1 0x1 PUSH1 0xA0 SHL SUB AND DUP2 JUMP JUMPDEST PUSH2 0x1E7 PUSH2 0x3EE CALLDATASIZE PUSH1 0x4 PUSH2 0x1E9A JUMP JUMPDEST PUSH2 0x1225 JUMP JUMPDEST PUSH1 0x4 SLOAD PUSH2 0x1FC SWAP1 PUSH3 0x10000 SWAP1 DIV PUSH1 0x1 PUSH1 0x1 PUSH1 0xA0 SHL SUB AND DUP2 JUMP JUMPDEST PUSH2 0x1E7 PUSH2 0x41A CALLDATASIZE PUSH1 0x4 PUSH2 0x1E48 JUMP JUMPDEST PUSH2 0x135F JUMP JUMPDEST PUSH1 0x4 SLOAD PUSH2 0x42D SWAP1 PUSH2 0xFFFF AND DUP2 JUMP JUMPDEST PUSH1 0x40 MLOAD PUSH2 0xFFFF SWAP1 SWAP2 AND DUP2 MSTORE PUSH1 0x20 ADD PUSH2 0x210 JUMP JUMPDEST PUSH2 0x300 PUSH2 0x44E CALLDATASIZE PUSH1 0x4 PUSH2 0x1F2B JUMP JUMPDEST PUSH2 0x14A0 JUMP JUMPDEST PUSH1 0x1 SLOAD PUSH2 0x1FC SWAP1 PUSH1 0x1 PUSH1 0x1 PUSH1 0xA0 SHL SUB AND DUP2 JUMP JUMPDEST PUSH2 0x22C PUSH1 0x2 SLOAD DUP2 JUMP JUMPDEST PUSH2 0x1E7 PUSH2 0x47D CALLDATASIZE PUSH1 0x4 PUSH2 0x1FDA JUMP JUMPDEST PUSH2 0x15BA JUMP JUMPDEST PUSH2 0x22C PUSH32 0x0 DUP2 JUMP JUMPDEST PUSH2 0x1FC PUSH32 0x0 DUP2 JUMP JUMPDEST PUSH2 0x1FC PUSH32 0x0 DUP2 JUMP JUMPDEST PUSH1 0x0 SLOAD PUSH1 0x1 PUSH1 0x1 PUSH1 0xA0 SHL SUB AND CALLER EQ PUSH2 0x556 JUMPI PUSH1 0x40 MLOAD PUSH3 0x461BCD PUSH1 0xE5 SHL DUP2 MSTORE PUSH1 0x20 PUSH1 0x4 DUP3 ADD DUP2 SWAP1 MSTORE PUSH1 0x24 DUP3 ADD MSTORE PUSH32 0x4F776E61626C653A2063616C6C6572206973206E6F7420746865206F776E6572 PUSH1 0x44 DUP3 ADD MSTORE PUSH1 0x64 ADD JUMPDEST PUSH1 0x40 MLOAD DUP1 SWAP2 SUB SWAP1 REVERT JUMPDEST DUP2 ISZERO PUSH2 0x621 JUMPI PUSH1 0x1 PUSH1 0x1 PUSH1 0xA0 SHL SUB DUP4 AND ISZERO ISZERO DUP1 PUSH2 0x570 JUMPI POP DUP1 JUMPDEST PUSH2 0x5BC JUMPI PUSH1 0x40 MLOAD PUSH3 0x461BCD PUSH1 0xE5 SHL DUP2 MSTORE PUSH1 0x20 PUSH1 0x4 DUP3 ADD MSTORE PUSH1 0x15 PUSH1 0x24 DUP3 ADD MSTORE PUSH32 0x4F776E61626C653A207A65726F20616464726573730000000000000000000000 PUSH1 0x44 DUP3 ADD MSTORE PUSH1 0x64 ADD PUSH2 0x54D JUMP JUMPDEST PUSH1 0x0 DUP1 SLOAD PUSH1 0x40 MLOAD PUSH1 0x1 PUSH1 0x1 PUSH1 0xA0 SHL SUB DUP1 DUP8 AND SWAP4 SWAP3 AND SWAP2 PUSH32 0x8BE0079C531659141344CD1FD0A4F28419497F9722A3DAAFE3B4186F6B6457E0 SWAP2 LOG3 PUSH1 0x0 DUP1 SLOAD PUSH1 0x1 PUSH1 0x1 PUSH1 0xA0 SHL SUB DUP6 AND PUSH1 0x1 PUSH1 0x1 PUSH1 0xA0 SHL SUB NOT SWAP2 DUP3 AND OR SWAP1 SWAP2 SSTORE PUSH1 0x1 DUP1 SLOAD SWAP1 SWAP2 AND SWAP1 SSTORE POP POP POP JUMP JUMPDEST PUSH1 0x1 DUP1 SLOAD PUSH1 0x1 PUSH1 0x1 PUSH1 0xA0 SHL SUB DUP6 AND PUSH1 0x1 PUSH1 0x1 PUSH1 0xA0 SHL SUB NOT SWAP1 SWAP2 AND OR SWAP1 SSTORE POP POP POP JUMP JUMPDEST PUSH1 0x0 DUP1 SLOAD PUSH1 0x1 PUSH1 0x1 PUSH1 0xA0 SHL SUB AND CALLER EQ DUP1 PUSH2 0x66C JUMPI POP CALLER PUSH1 0x0 SWAP1 DUP2 MSTORE PUSH1 0x3 PUSH1 0x20 MSTORE PUSH1 0x40 SWAP1 KECCAK256 SLOAD PUSH1 0xFF AND JUMPDEST PUSH2 0x6C2 JUMPI PUSH1 0x40 MLOAD PUSH3 0x461BCD PUSH1 0xE5 SHL DUP2 MSTORE PUSH1 0x20 PUSH1 0x4 DUP3 ADD MSTORE PUSH1 0x21 PUSH1 0x24 DUP3 ADD MSTORE PUSH32 0x42656E746F426F782053747261746567793A206F6E6C79204578656375746F72 PUSH1 0x44 DUP3 ADD MSTORE PUSH1 0x73 PUSH1 0xF8 SHL PUSH1 0x64 DUP3 ADD MSTORE PUSH1 0x84 ADD PUSH2 0x54D JUMP JUMPDEST PUSH1 0x40 MLOAD PUSH4 0x70A08231 PUSH1 0xE0 SHL DUP2 MSTORE ADDRESS PUSH1 0x4 DUP3 ADD MSTORE PUSH1 0x0 SWAP1 PUSH32 0x0 PUSH1 0x1 PUSH1 0x1 PUSH1 0xA0 SHL SUB AND SWAP1 PUSH4 0x70A08231 SWAP1 PUSH1 0x24 ADD PUSH1 0x20 PUSH1 0x40 MLOAD DUP1 DUP4 SUB DUP2 DUP7 GAS STATICCALL ISZERO DUP1 ISZERO PUSH2 0x729 JUMPI RETURNDATASIZE PUSH1 0x0 DUP1 RETURNDATACOPY RETURNDATASIZE PUSH1 0x0 REVERT JUMPDEST POP POP POP POP PUSH1 0x40 MLOAD RETURNDATASIZE PUSH1 0x1F NOT PUSH1 0x1F DUP3 ADD AND DUP3 ADD DUP1 PUSH1 0x40 MSTORE POP DUP2 ADD SWAP1 PUSH2 0x74D SWAP2 SWAP1 PUSH2 0x200D JUMP JUMPDEST PUSH1 0x5 SLOAD PUSH1 0x40 DUP1 MLOAD PUSH1 0x20 PUSH1 0x1F DUP9 ADD DUP2 SWAP1 DIV DUP2 MUL DUP3 ADD DUP2 ADD SWAP1 SWAP3 MSTORE DUP7 DUP2 MSTORE SWAP3 SWAP4 POP PUSH2 0x79D SWAP3 PUSH1 0x1 PUSH1 0x1 PUSH1 0xA0 SHL SUB SWAP1 SWAP3 AND SWAP2 SWAP1 DUP8 SWAP1 DUP8 SWAP1 DUP2 SWAP1 DUP5 ADD DUP4 DUP3 DUP1 DUP3 DUP5 CALLDATACOPY PUSH1 0x0 SWAP3 ADD SWAP2 SWAP1 SWAP2 MSTORE POP PUSH2 0x16B6 SWAP3 POP POP POP JUMP JUMPDEST POP PUSH1 0x0 PUSH2 0x7D3 PUSH1 0x1 PUSH1 0x1 PUSH1 0xA0 SHL SUB PUSH32 0x0 AND ADDRESS PUSH2 0x1701 JUMP JUMPDEST PUSH1 0x40 MLOAD PUSH4 0x21EC87BF PUSH1 0xE2 SHL DUP2 MSTORE PUSH32 0x0 PUSH1 0x4 DUP3 ADD MSTORE PUSH1 0x24 DUP2 ADD DUP3 SWAP1 MSTORE ADDRESS PUSH1 0x44 DUP3 ADD MSTORE SWAP1 SWAP2 POP PUSH32 0x0 PUSH1 0x1 PUSH1 0x1 PUSH1 0xA0 SHL SUB AND SWAP1 PUSH4 0x87B21EFC SWAP1 PUSH1 0x64 ADD PUSH1 0x0 PUSH1 0x40 MLOAD DUP1 DUP4 SUB DUP2 PUSH1 0x0 DUP8 DUP1 EXTCODESIZE ISZERO DUP1 ISZERO PUSH2 0x864 JUMPI PUSH1 0x0 DUP1 REVERT JUMPDEST POP GAS CALL ISZERO DUP1 ISZERO PUSH2 0x878 JUMPI RETURNDATASIZE PUSH1 0x0 DUP1 RETURNDATACOPY RETURNDATASIZE PUSH1 0x0 REVERT JUMPDEST POP POP PUSH1 0x40 MLOAD PUSH4 0x70A08231 PUSH1 0xE0 SHL DUP2 MSTORE ADDRESS PUSH1 0x4 DUP3 ADD MSTORE PUSH1 0x0 SWAP3 POP DUP5 SWAP2 POP PUSH1 0x1 PUSH1 0x1 PUSH1 0xA0 SHL SUB PUSH32 0x0 AND SWAP1 PUSH4 0x70A08231 SWAP1 PUSH1 0x24 ADD PUSH1 0x20 PUSH1 0x40 MLOAD DUP1 DUP4 SUB DUP2 DUP7 GAS STATICCALL ISZERO DUP1 ISZERO PUSH2 0x8E5 JUMPI RETURNDATASIZE PUSH1 0x0 DUP1 RETURNDATACOPY RETURNDATASIZE PUSH1 0x0 REVERT JUMPDEST POP POP POP POP PUSH1 0x40 MLOAD RETURNDATASIZE PUSH1 0x1F NOT PUSH1 0x1F DUP3 ADD AND DUP3 ADD DUP1 PUSH1 0x40 MSTORE POP DUP2 ADD SWAP1 PUSH2 0x909 SWAP2 SWAP1 PUSH2 0x200D JUMP JUMPDEST PUSH2 0x913 SWAP2 SWAP1 PUSH2 0x203C JUMP JUMPDEST SWAP1 POP DUP7 DUP2 LT ISZERO PUSH2 0x936 JUMPI PUSH1 0x40 MLOAD PUSH4 0x2F8EDDBD PUSH1 0xE2 SHL DUP2 MSTORE PUSH1 0x4 ADD PUSH1 0x40 MLOAD DUP1 SWAP2 SUB SWAP1 REVERT JUMPDEST PUSH1 0x0 PUSH2 0x941 DUP3 PUSH2 0x1736 JUMP JUMPDEST PUSH1 0x4 SLOAD SWAP2 SWAP7 POP SWAP2 POP PUSH2 0x986 SWAP1 PUSH1 0x1 PUSH1 0x1 PUSH1 0xA0 SHL SUB PUSH32 0x0 DUP2 AND SWAP2 PUSH3 0x10000 SWAP1 DIV AND DUP4 PUSH2 0x176D JUMP JUMPDEST PUSH1 0x40 DUP1 MLOAD DUP4 DUP2 MSTORE PUSH1 0x20 DUP2 ADD DUP8 SWAP1 MSTORE SWAP1 DUP2 ADD DUP3 SWAP1 MSTORE PUSH32 0x698363F65CA9FC4B32234C9AD139EBED5352706A4430DF970F71718BC0396116 SWAP1 PUSH1 0x60 ADD PUSH1 0x40 MLOAD DUP1 SWAP2 SUB SWAP1 LOG1 POP POP POP POP SWAP4 SWAP3 POP POP POP JUMP JUMPDEST PUSH1 0x1 SLOAD PUSH1 0x0 SWAP1 PUSH1 0x1 PUSH1 0xA0 SHL SWAP1 DIV PUSH1 0xFF AND ISZERO PUSH2 0xA2F JUMPI PUSH1 0x40 MLOAD PUSH3 0x461BCD PUSH1 0xE5 SHL DUP2 MSTORE PUSH1 0x20 PUSH1 0x4 DUP3 ADD MSTORE PUSH1 0x19 PUSH1 0x24 DUP3 ADD MSTORE PUSH32 0x42656E746F426F782053747261746567793A2065786974656400000000000000 PUSH1 0x44 DUP3 ADD MSTORE PUSH1 0x64 ADD PUSH2 0x54D JUMP JUMPDEST CALLER PUSH1 0x1 PUSH1 0x1 PUSH1 0xA0 SHL SUB PUSH32 0x0 AND EQ PUSH2 0xAA7 JUMPI PUSH1 0x40 MLOAD PUSH3 0x461BCD PUSH1 0xE5 SHL DUP2 MSTORE PUSH1 0x20 PUSH1 0x4 DUP3 ADD DUP2 SWAP1 MSTORE PUSH1 0x24 DUP3 ADD MSTORE PUSH32 0x42656E746F426F782053747261746567793A206F6E6C792042656E746F426F78 PUSH1 0x44 DUP3 ADD MSTORE PUSH1 0x64 ADD PUSH2 0x54D JUMP JUMPDEST PUSH1 0x1 PUSH1 0x1 PUSH1 0xA0 SHL SUB DUP3 AND ADDRESS EQ DUP1 ISZERO PUSH2 0xB7C JUMPI POP PUSH1 0x2 SLOAD PUSH1 0x40 MLOAD PUSH4 0x4FFE34DB PUSH1 0xE0 SHL DUP2 MSTORE PUSH1 0x1 PUSH1 0x1 PUSH1 0xA0 SHL SUB PUSH32 0x0 DUP2 AND PUSH1 0x4 DUP4 ADD MSTORE PUSH32 0x0 AND SWAP1 PUSH4 0x4FFE34DB SWAP1 PUSH1 0x24 ADD PUSH1 0x40 DUP1 MLOAD DUP1 DUP4 SUB DUP2 DUP7 GAS STATICCALL ISZERO DUP1 ISZERO PUSH2 0xB42 JUMPI RETURNDATASIZE PUSH1 0x0 DUP1 RETURNDATACOPY RETURNDATASIZE PUSH1 0x0 REVERT JUMPDEST POP POP POP POP PUSH1 0x40 MLOAD RETURNDATASIZE PUSH1 0x1F NOT PUSH1 0x1F DUP3 ADD AND DUP3 ADD DUP1 PUSH1 0x40 MSTORE POP DUP2 ADD SWAP1 PUSH2 0xB66 SWAP2 SWAP1 PUSH2 0x206F JUMP JUMPDEST MLOAD PUSH16 0xFFFFFFFFFFFFFFFFFFFFFFFFFFFFFFFF AND GT ISZERO JUMPDEST DUP1 ISZERO PUSH2 0xB88 JUMPI POP PUSH1 0x0 DUP4 GT JUMPDEST ISZERO PUSH2 0xD35 JUMPI PUSH1 0x0 PUSH2 0xB98 DUP5 PUSH2 0x17BC JUMP JUMPDEST PUSH1 0x40 MLOAD PUSH4 0x70A08231 PUSH1 0xE0 SHL DUP2 MSTORE ADDRESS PUSH1 0x4 DUP3 ADD MSTORE SWAP1 SWAP2 POP PUSH1 0x0 SWAP1 PUSH1 0x1 PUSH1 0x1 PUSH1 0xA0 SHL SUB PUSH32 0x0 AND SWAP1 PUSH4 0x70A08231 SWAP1 PUSH1 0x24 ADD PUSH1 0x20 PUSH1 0x40 MLOAD DUP1 DUP4 SUB DUP2 DUP7 GAS STATICCALL ISZERO DUP1 ISZERO PUSH2 0xC02 JUMPI RETURNDATASIZE PUSH1 0x0 DUP1 RETURNDATACOPY RETURNDATASIZE PUSH1 0x0 REVERT JUMPDEST POP POP POP POP PUSH1 0x40 MLOAD RETURNDATASIZE PUSH1 0x1F NOT PUSH1 0x1F DUP3 ADD AND DUP3 ADD DUP1 PUSH1 0x40 MSTORE POP DUP2 ADD SWAP1 PUSH2 0xC26 SWAP2 SWAP1 PUSH2 0x200D JUMP JUMPDEST SWAP1 POP PUSH1 0x0 DUP3 SLT PUSH2 0xC93 JUMPI DUP1 ISZERO PUSH2 0xC8A JUMPI PUSH2 0xC8A PUSH1 0x1 PUSH1 0x1 PUSH1 0xA0 SHL SUB PUSH32 0x0 AND PUSH32 0x0 DUP4 PUSH2 0x1867 JUMP JUMPDEST SWAP2 POP PUSH2 0xD39 SWAP1 POP JUMP JUMPDEST DUP1 ISZERO PUSH2 0xD2D JUMPI PUSH1 0x0 PUSH2 0xCA5 DUP3 DUP5 PUSH2 0x20CA JUMP JUMPDEST SWAP1 POP PUSH1 0x0 DUP2 SGT ISZERO PUSH2 0xD1A JUMPI PUSH2 0xD04 PUSH1 0x1 PUSH1 0x1 PUSH1 0xA0 SHL SUB PUSH32 0x0 AND PUSH32 0x0 DUP4 PUSH2 0x1867 JUMP JUMPDEST PUSH2 0xD15 PUSH2 0xD10 DUP5 PUSH2 0x20F2 JUMP JUMPDEST PUSH2 0x1997 JUMP JUMPDEST PUSH2 0xD23 JUMP JUMPDEST PUSH2 0xD23 DUP3 PUSH2 0x1997 JUMP JUMPDEST SWAP3 POP PUSH2 0xD39 SWAP2 POP POP JUMP JUMPDEST POP SWAP1 POP PUSH2 0xD39 JUMP JUMPDEST POP PUSH1 0x0 JUMPDEST SWAP3 SWAP2 POP POP JUMP JUMPDEST PUSH1 0x1 SLOAD PUSH1 0x0 SWAP1 PUSH1 0x1 PUSH1 0xA0 SHL SWAP1 DIV PUSH1 0xFF AND ISZERO PUSH2 0xD9C JUMPI PUSH1 0x40 MLOAD PUSH3 0x461BCD PUSH1 0xE5 SHL DUP2 MSTORE PUSH1 0x20 PUSH1 0x4 DUP3 ADD MSTORE PUSH1 0x19 PUSH1 0x24 DUP3 ADD MSTORE PUSH32 0x42656E746F426F782053747261746567793A2065786974656400000000000000 PUSH1 0x44 DUP3 ADD MSTORE PUSH1 0x64 ADD PUSH2 0x54D JUMP JUMPDEST CALLER PUSH1 0x1 PUSH1 0x1 PUSH1 0xA0 SHL SUB PUSH32 0x0 AND EQ PUSH2 0xE14 JUMPI PUSH1 0x40 MLOAD PUSH3 0x461BCD PUSH1 0xE5 SHL DUP2 MSTORE PUSH1 0x20 PUSH1 0x4 DUP3 ADD DUP2 SWAP1 MSTORE PUSH1 0x24 DUP3 ADD MSTORE PUSH32 0x42656E746F426F782053747261746567793A206F6E6C792042656E746F426F78 PUSH1 0x44 DUP3 ADD MSTORE PUSH1 0x64 ADD PUSH2 0x54D JUMP JUMPDEST PUSH2 0xE1D DUP3 PUSH2 0x1A34 JUMP JUMPDEST PUSH1 0x40 MLOAD PUSH4 0x70A08231 PUSH1 0xE0 SHL DUP2 MSTORE ADDRESS PUSH1 0x4 DUP3 ADD MSTORE PUSH32 0x0 PUSH1 0x1 PUSH1 0x1 PUSH1 0xA0 SHL SUB AND SWAP1 PUSH4 0x70A08231 SWAP1 PUSH1 0x24 ADD PUSH1 0x20 PUSH1 0x40 MLOAD DUP1 DUP4 SUB DUP2 DUP7 GAS STATICCALL ISZERO DUP1 ISZERO PUSH2 0xE81 JUMPI RETURNDATASIZE PUSH1 0x0 DUP1 RETURNDATACOPY RETURNDATASIZE PUSH1 0x0 REVERT JUMPDEST POP POP POP POP PUSH1 0x40 MLOAD RETURNDATASIZE PUSH1 0x1F NOT PUSH1 0x1F DUP3 ADD AND DUP3 ADD DUP1 PUSH1 0x40 MSTORE POP DUP2 ADD SWAP1 PUSH2 0xEA5 SWAP2 SWAP1 PUSH2 0x200D JUMP JUMPDEST SWAP1 POP PUSH2 0xEFB PUSH1 0x1 PUSH1 0x1 PUSH1 0xA0 SHL SUB PUSH32 0x0 AND PUSH32 0x0 DUP4 PUSH2 0x1867 JUMP JUMPDEST SWAP2 SWAP1 POP JUMP JUMPDEST PUSH1 0x1 SLOAD PUSH1 0x1 PUSH1 0x1 PUSH1 0xA0 SHL SUB AND CALLER DUP2 EQ PUSH2 0xF5B JUMPI PUSH1 0x40 MLOAD PUSH3 0x461BCD PUSH1 0xE5 SHL DUP2 MSTORE PUSH1 0x20 PUSH1 0x4 DUP3 ADD DUP2 SWAP1 MSTORE PUSH1 0x24 DUP3 ADD MSTORE PUSH32 0x4F776E61626C653A2063616C6C657220213D2070656E64696E67206F776E6572 PUSH1 0x44 DUP3 ADD MSTORE PUSH1 0x64 ADD PUSH2 0x54D JUMP JUMPDEST PUSH1 0x0 DUP1 SLOAD PUSH1 0x40 MLOAD PUSH1 0x1 PUSH1 0x1 PUSH1 0xA0 SHL SUB DUP1 DUP6 AND SWAP4 SWAP3 AND SWAP2 PUSH32 0x8BE0079C531659141344CD1FD0A4F28419497F9722A3DAAFE3B4186F6B6457E0 SWAP2 LOG3 PUSH1 0x0 DUP1 SLOAD PUSH1 0x1 PUSH1 0x1 PUSH1 0xA0 SHL SUB SWAP1 SWAP3 AND PUSH1 0x1 PUSH1 0x1 PUSH1 0xA0 SHL SUB NOT SWAP3 DUP4 AND OR SWAP1 SSTORE PUSH1 0x1 DUP1 SLOAD SWAP1 SWAP2 AND SWAP1 SSTORE JUMP JUMPDEST PUSH2 0xFC6 DUP2 PUSH2 0x1997 JUMP JUMPDEST POP JUMP JUMPDEST PUSH1 0x0 SLOAD PUSH1 0x1 PUSH1 0x1 PUSH1 0xA0 SHL SUB AND CALLER EQ PUSH2 0x1023 JUMPI PUSH1 0x40 MLOAD PUSH3 0x461BCD PUSH1 0xE5 SHL DUP2 MSTORE PUSH1 0x20 PUSH1 0x4 DUP3 ADD DUP2 SWAP1 MSTORE PUSH1 0x24 DUP3 ADD MSTORE PUSH32 0x4F776E61626C653A2063616C6C6572206973206E6F7420746865206F776E6572 PUSH1 0x44 DUP3 ADD MSTORE PUSH1 0x64 ADD PUSH2 0x54D JUMP JUMPDEST PUSH1 0x1 PUSH1 0x1 PUSH1 0xA0 SHL SUB DUP3 AND PUSH1 0x0 DUP2 DUP2 MSTORE PUSH1 0x3 PUSH1 0x20 SWAP1 DUP2 MSTORE PUSH1 0x40 SWAP2 DUP3 SWAP1 KECCAK256 DUP1 SLOAD PUSH1 0xFF NOT AND DUP6 ISZERO ISZERO SWAP1 DUP2 OR SWAP1 SWAP2 SSTORE SWAP2 MLOAD SWAP2 DUP3 MSTORE PUSH32 0xB08A78F53A7FE017D5CA8C8FCDBF06FFA2C31F2AB668378A17700D9FC558717E SWAP2 ADD PUSH1 0x40 MLOAD DUP1 SWAP2 SUB SWAP1 LOG2 POP POP JUMP JUMPDEST PUSH1 0x0 CALLER PUSH1 0x1 PUSH1 0x1 PUSH1 0xA0 SHL SUB PUSH32 0x0 AND EQ PUSH2 0x10FC JUMPI PUSH1 0x40 MLOAD PUSH3 0x461BCD PUSH1 0xE5 SHL DUP2 MSTORE PUSH1 0x20 PUSH1 0x4 DUP3 ADD DUP2 SWAP1 MSTORE PUSH1 0x24 DUP3 ADD MSTORE PUSH32 0x42656E746F426F782053747261746567793A206F6E6C792042656E746F426F78 PUSH1 0x44 DUP3 ADD MSTORE PUSH1 0x64 ADD PUSH2 0x54D JUMP JUMPDEST PUSH2 0x1104 PUSH2 0x1AA7 JUMP JUMPDEST PUSH1 0x40 MLOAD PUSH4 0x70A08231 PUSH1 0xE0 SHL DUP2 MSTORE ADDRESS PUSH1 0x4 DUP3 ADD MSTORE PUSH1 0x0 SWAP1 PUSH32 0x0 PUSH1 0x1 PUSH1 0x1 PUSH1 0xA0 SHL SUB AND SWAP1 PUSH4 0x70A08231 SWAP1 PUSH1 0x24 ADD PUSH1 0x20 PUSH1 0x40 MLOAD DUP1 DUP4 SUB DUP2 DUP7 GAS STATICCALL ISZERO DUP1 ISZERO PUSH2 0x116B JUMPI RETURNDATASIZE PUSH1 0x0 DUP1 RETURNDATACOPY RETURNDATASIZE PUSH1 0x0 REVERT JUMPDEST POP POP POP POP PUSH1 0x40 MLOAD RETURNDATASIZE PUSH1 0x1F NOT PUSH1 0x1F DUP3 ADD AND DUP3 ADD DUP1 PUSH1 0x40 MSTORE POP DUP2 ADD SWAP1 PUSH2 0x118F SWAP2 SWAP1 PUSH2 0x200D JUMP JUMPDEST SWAP1 POP PUSH2 0x119B DUP4 DUP3 PUSH2 0x210E JUMP JUMPDEST SWAP2 POP PUSH2 0x11F1 PUSH1 0x1 PUSH1 0x1 PUSH1 0xA0 SHL SUB PUSH32 0x0 AND PUSH32 0x0 DUP4 PUSH2 0x1867 JUMP JUMPDEST POP PUSH1 0x1 DUP1 SLOAD PUSH32 0xFFFFFFFFFFFFFFFFFFFFFF00FFFFFFFFFFFFFFFFFFFFFFFFFFFFFFFFFFFFFFFF AND PUSH1 0x1 PUSH1 0xA0 SHL OR SWAP1 SSTORE SWAP2 SWAP1 POP JUMP JUMPDEST PUSH1 0x0 SLOAD PUSH1 0x1 PUSH1 0x1 PUSH1 0xA0 SHL SUB AND CALLER EQ DUP1 PUSH2 0x124D JUMPI POP CALLER PUSH1 0x0 SWAP1 DUP2 MSTORE PUSH1 0x3 PUSH1 0x20 MSTORE PUSH1 0x40 SWAP1 KECCAK256 SLOAD PUSH1 0xFF AND JUMPDEST PUSH2 0x12A3 JUMPI PUSH1 0x40 MLOAD PUSH3 0x461BCD PUSH1 0xE5 SHL DUP2 MSTORE PUSH1 0x20 PUSH1 0x4 DUP3 ADD MSTORE PUSH1 0x21 PUSH1 0x24 DUP3 ADD MSTORE PUSH32 0x42656E746F426F782053747261746567793A206F6E6C79204578656375746F72 PUSH1 0x44 DUP3 ADD MSTORE PUSH1 0x73 PUSH1 0xF8 SHL PUSH1 0x64 DUP3 ADD MSTORE PUSH1 0x84 ADD PUSH2 0x54D JUMP JUMPDEST DUP4 ISZERO PUSH2 0x12AF JUMPI PUSH1 0x2 DUP5 SWAP1 SSTORE JUMPDEST PUSH1 0x40 MLOAD PUSH4 0x66C6BB0B PUSH1 0xE0 SHL DUP2 MSTORE PUSH1 0x1 PUSH1 0x1 PUSH1 0xA0 SHL SUB PUSH32 0x0 DUP2 AND PUSH1 0x4 DUP4 ADD MSTORE DUP5 ISZERO ISZERO PUSH1 0x24 DUP4 ADD MSTORE PUSH1 0x44 DUP3 ADD DUP5 SWAP1 MSTORE PUSH32 0x0 AND SWAP1 PUSH4 0x66C6BB0B SWAP1 PUSH1 0x64 ADD PUSH1 0x0 PUSH1 0x40 MLOAD DUP1 DUP4 SUB DUP2 PUSH1 0x0 DUP8 DUP1 EXTCODESIZE ISZERO DUP1 ISZERO PUSH2 0x1341 JUMPI PUSH1 0x0 DUP1 REVERT JUMPDEST POP GAS CALL ISZERO DUP1 ISZERO PUSH2 0x1355 JUMPI RETURNDATASIZE PUSH1 0x0 DUP1 RETURNDATACOPY RETURNDATASIZE PUSH1 0x0 REVERT JUMPDEST POP POP POP POP POP POP POP POP JUMP JUMPDEST PUSH1 0x0 SLOAD PUSH1 0x1 PUSH1 0x1 PUSH1 0xA0 SHL SUB AND CALLER EQ PUSH2 0x13B9 JUMPI PUSH1 0x40 MLOAD PUSH3 0x461BCD PUSH1 0xE5 SHL DUP2 MSTORE PUSH1 0x20 PUSH1 0x4 DUP3 ADD DUP2 SWAP1 MSTORE PUSH1 0x24 DUP3 ADD MSTORE PUSH32 0x4F776E61626C653A2063616C6C6572206973206E6F7420746865206F776E6572 PUSH1 0x44 DUP3 ADD MSTORE PUSH1 0x64 ADD PUSH2 0x54D JUMP JUMPDEST PUSH1 0x5 SLOAD PUSH1 0x1 PUSH1 0x1 PUSH1 0xA0 SHL SUB AND DUP1 ISZERO PUSH2 0x1400 JUMPI PUSH2 0x1400 PUSH1 0x1 PUSH1 0x1 PUSH1 0xA0 SHL SUB PUSH32 0x0 AND DUP3 PUSH1 0x0 PUSH2 0x1B42 JUMP JUMPDEST PUSH1 0x5 DUP1 SLOAD PUSH1 0x1 PUSH1 0x1 PUSH1 0xA0 SHL SUB NOT AND PUSH1 0x1 PUSH1 0x1 PUSH1 0xA0 SHL SUB DUP5 AND SWAP1 DUP2 OR SWAP1 SWAP2 SSTORE ISZERO PUSH2 0x1459 JUMPI PUSH2 0x1459 PUSH1 0x1 PUSH1 0x1 PUSH1 0xA0 SHL SUB PUSH32 0x0 AND DUP4 PUSH1 0x0 NOT PUSH2 0x1B42 JUMP JUMPDEST PUSH1 0x40 DUP1 MLOAD PUSH1 0x1 PUSH1 0x1 PUSH1 0xA0 SHL SUB DUP1 DUP5 AND DUP3 MSTORE DUP5 AND PUSH1 0x20 DUP3 ADD MSTORE PUSH32 0x60F1FDCEA50915CBF56513538153CF67321F2867757C702AE551B13F1B2F3A29 SWAP2 ADD PUSH1 0x40 MLOAD DUP1 SWAP2 SUB SWAP1 LOG1 POP POP JUMP JUMPDEST PUSH1 0x0 DUP1 SLOAD PUSH1 0x1 PUSH1 0x1 PUSH1 0xA0 SHL SUB AND CALLER EQ PUSH2 0x14FB JUMPI PUSH1 0x40 MLOAD PUSH3 0x461BCD PUSH1 0xE5 SHL DUP2 MSTORE PUSH1 0x20 PUSH1 0x4 DUP3 ADD DUP2 SWAP1 MSTORE PUSH1 0x24 DUP3 ADD MSTORE PUSH32 0x4F776E61626C653A2063616C6C6572206973206E6F7420746865206F776E6572 PUSH1 0x44 DUP3 ADD MSTORE PUSH1 0x64 ADD PUSH2 0x54D JUMP JUMPDEST PUSH1 0x1 SLOAD PUSH1 0x1 PUSH1 0xA0 SHL SWAP1 DIV PUSH1 0xFF AND PUSH2 0x1554 JUMPI PUSH1 0x40 MLOAD PUSH3 0x461BCD PUSH1 0xE5 SHL DUP2 MSTORE PUSH1 0x20 PUSH1 0x4 DUP3 ADD MSTORE PUSH1 0x1D PUSH1 0x24 DUP3 ADD MSTORE PUSH32 0x42656E746F426F782053747261746567793A206E6F7420657869746564000000 PUSH1 0x44 DUP3 ADD MSTORE PUSH1 0x64 ADD PUSH2 0x54D JUMP JUMPDEST DUP4 PUSH1 0x1 PUSH1 0x1 PUSH1 0xA0 SHL SUB AND DUP4 DUP4 PUSH1 0x40 MLOAD PUSH2 0x156D SWAP2 SWAP1 PUSH2 0x2159 JUMP JUMPDEST PUSH1 0x0 PUSH1 0x40 MLOAD DUP1 DUP4 SUB DUP2 DUP6 DUP8 GAS CALL SWAP3 POP POP POP RETURNDATASIZE DUP1 PUSH1 0x0 DUP2 EQ PUSH2 0x15AA JUMPI PUSH1 0x40 MLOAD SWAP2 POP PUSH1 0x1F NOT PUSH1 0x3F RETURNDATASIZE ADD AND DUP3 ADD PUSH1 0x40 MSTORE RETURNDATASIZE DUP3 MSTORE RETURNDATASIZE PUSH1 0x0 PUSH1 0x20 DUP5 ADD RETURNDATACOPY PUSH2 0x15AF JUMP JUMPDEST PUSH1 0x60 SWAP2 POP JUMPDEST POP SWAP1 SWAP6 SWAP5 POP POP POP POP POP JUMP JUMPDEST PUSH1 0x0 SLOAD PUSH1 0x1 PUSH1 0x1 PUSH1 0xA0 SHL SUB AND CALLER EQ PUSH2 0x15E7 JUMPI PUSH1 0x40 MLOAD PUSH4 0x1120AC6D PUSH1 0xE3 SHL DUP2 MSTORE CALLER PUSH1 0x4 DUP3 ADD MSTORE PUSH1 0x24 ADD PUSH2 0x54D JUMP JUMPDEST PUSH1 0x4 SLOAD PUSH2 0x2710 PUSH2 0xFFFF SWAP1 SWAP2 AND GT ISZERO PUSH2 0x1612 JUMPI PUSH1 0x40 MLOAD PUSH4 0x7D941FCF PUSH1 0xE1 SHL DUP2 MSTORE PUSH1 0x4 ADD PUSH1 0x40 MLOAD DUP1 SWAP2 SUB SWAP1 REVERT JUMPDEST PUSH1 0x4 SLOAD PUSH1 0x40 DUP1 MLOAD PUSH2 0xFFFF DUP1 DUP5 AND DUP3 MSTORE DUP5 AND PUSH1 0x20 DUP3 ADD MSTORE PUSH1 0x1 PUSH1 0x1 PUSH1 0xA0 SHL SUB DUP6 DUP2 AND SWAP4 PUSH3 0x10000 SWAP1 DIV AND SWAP2 PUSH32 0x3211C83A09D01653307DCE8BE31E51C79240BE602C393A64E512DE455A4DD423 SWAP2 ADD PUSH1 0x40 MLOAD DUP1 SWAP2 SUB SWAP1 LOG3 PUSH1 0x4 DUP1 SLOAD PUSH32 0xFFFFFFFFFFFFFFFFFFFF00000000000000000000000000000000000000000000 AND PUSH3 0x10000 PUSH1 0x1 PUSH1 0x1 PUSH1 0xA0 SHL SUB SWAP5 SWAP1 SWAP5 AND SWAP4 SWAP1 SWAP4 MUL PUSH2 0xFFFF NOT AND SWAP3 SWAP1 SWAP3 OR PUSH2 0xFFFF SWAP2 SWAP1 SWAP2 AND OR SWAP1 SSTORE JUMP JUMPDEST PUSH1 0x60 PUSH2 0x16FA DUP4 DUP4 PUSH1 0x0 PUSH1 0x40 MLOAD DUP1 PUSH1 0x40 ADD PUSH1 0x40 MSTORE DUP1 PUSH1 0x1E DUP2 MSTORE PUSH1 0x20 ADD PUSH32 0x416464726573733A206C6F772D6C6576656C2063616C6C206661696C65640000 DUP2 MSTORE POP PUSH2 0x1B87 JUMP JUMPDEST SWAP4 SWAP3 POP POP POP JUMP JUMPDEST PUSH1 0x0 DUP2 PUSH1 0x14 MSTORE PUSH16 0x70A08231000000000000000000000000 PUSH1 0x0 MSTORE PUSH1 0x20 DUP1 PUSH1 0x24 PUSH1 0x10 DUP7 GAS STATICCALL PUSH1 0x1F RETURNDATASIZE GT AND PUSH1 0x20 MLOAD MUL SWAP1 POP SWAP3 SWAP2 POP POP JUMP JUMPDEST PUSH1 0x4 SLOAD PUSH1 0x0 SWAP1 DUP2 SWAP1 PUSH2 0x2710 SWAP1 PUSH2 0x1750 SWAP1 PUSH2 0xFFFF AND DUP6 PUSH2 0x2175 JUMP JUMPDEST PUSH2 0x175A SWAP2 SWAP1 PUSH2 0x218C JUMP JUMPDEST SWAP1 POP PUSH2 0x1766 DUP2 DUP5 PUSH2 0x203C JUMP JUMPDEST SWAP2 POP SWAP2 POP SWAP2 JUMP JUMPDEST DUP2 PUSH1 0x14 MSTORE DUP1 PUSH1 0x34 MSTORE PUSH16 0xA9059CBB000000000000000000000000 PUSH1 0x0 MSTORE PUSH1 0x20 PUSH1 0x0 PUSH1 0x44 PUSH1 0x10 PUSH1 0x0 DUP8 GAS CALL RETURNDATASIZE ISZERO PUSH1 0x1 PUSH1 0x0 MLOAD EQ OR AND PUSH2 0x17B2 JUMPI PUSH4 0x90B8EC18 PUSH1 0x0 MSTORE PUSH1 0x4 PUSH1 0x1C REVERT JUMPDEST PUSH1 0x0 PUSH1 0x34 MSTORE POP POP POP JUMP JUMPDEST PUSH1 0x40 MLOAD PUSH4 0x441A3E7 PUSH1 0xE4 SHL DUP2 MSTORE PUSH32 0x0 PUSH1 0x4 DUP3 ADD MSTORE PUSH1 0x0 PUSH1 0x24 DUP3 ADD DUP2 SWAP1 MSTORE SWAP1 PUSH32 0x0 PUSH1 0x1 PUSH1 0x1 PUSH1 0xA0 SHL SUB AND SWAP1 PUSH4 0x441A3E70 SWAP1 PUSH1 0x44 ADD PUSH1 0x0 PUSH1 0x40 MLOAD DUP1 DUP4 SUB DUP2 PUSH1 0x0 DUP8 DUP1 EXTCODESIZE ISZERO DUP1 ISZERO PUSH2 0x1847 JUMPI PUSH1 0x0 DUP1 REVERT JUMPDEST POP GAS CALL ISZERO DUP1 ISZERO PUSH2 0x185B JUMPI RETURNDATASIZE PUSH1 0x0 DUP1 RETURNDATACOPY RETURNDATASIZE PUSH1 0x0 REVERT JUMPDEST POP PUSH1 0x0 SWAP6 SWAP5 POP POP POP POP POP JUMP JUMPDEST PUSH1 0x40 DUP1 MLOAD PUSH1 0x1 PUSH1 0x1 PUSH1 0xA0 SHL SUB DUP5 DUP2 AND PUSH1 0x24 DUP4 ADD MSTORE PUSH1 0x44 DUP1 DUP4 ADD DUP6 SWAP1 MSTORE DUP4 MLOAD DUP1 DUP5 SUB SWAP1 SWAP2 ADD DUP2 MSTORE PUSH1 0x64 SWAP1 SWAP3 ADD DUP4 MSTORE PUSH1 0x20 DUP3 ADD DUP1 MLOAD PUSH28 0xFFFFFFFFFFFFFFFFFFFFFFFFFFFFFFFFFFFFFFFFFFFFFFFFFFFFFFFF AND PUSH4 0xA9059CBB PUSH1 0xE0 SHL OR SWAP1 MSTORE SWAP2 MLOAD PUSH1 0x0 SWAP3 DUP4 SWAP3 SWAP1 DUP8 AND SWAP2 PUSH2 0x18D8 SWAP2 SWAP1 PUSH2 0x2159 JUMP JUMPDEST PUSH1 0x0 PUSH1 0x40 MLOAD DUP1 DUP4 SUB DUP2 PUSH1 0x0 DUP7 GAS CALL SWAP2 POP POP RETURNDATASIZE DUP1 PUSH1 0x0 DUP2 EQ PUSH2 0x1915 JUMPI PUSH1 0x40 MLOAD SWAP2 POP PUSH1 0x1F NOT PUSH1 0x3F RETURNDATASIZE ADD AND DUP3 ADD PUSH1 0x40 MSTORE RETURNDATASIZE DUP3 MSTORE RETURNDATASIZE PUSH1 0x0 PUSH1 0x20 DUP5 ADD RETURNDATACOPY PUSH2 0x191A JUMP JUMPDEST PUSH1 0x60 SWAP2 POP JUMPDEST POP SWAP2 POP SWAP2 POP DUP2 DUP1 ISZERO PUSH2 0x1944 JUMPI POP DUP1 MLOAD ISZERO DUP1 PUSH2 0x1944 JUMPI POP DUP1 DUP1 PUSH1 0x20 ADD SWAP1 MLOAD DUP2 ADD SWAP1 PUSH2 0x1944 SWAP2 SWAP1 PUSH2 0x21AE JUMP JUMPDEST PUSH2 0x1990 JUMPI PUSH1 0x40 MLOAD PUSH3 0x461BCD PUSH1 0xE5 SHL DUP2 MSTORE PUSH1 0x20 PUSH1 0x4 DUP3 ADD MSTORE PUSH1 0x1C PUSH1 0x24 DUP3 ADD MSTORE PUSH32 0x426F72696E6745524332303A205472616E73666572206661696C656400000000 PUSH1 0x44 DUP3 ADD MSTORE PUSH1 0x64 ADD PUSH2 0x54D JUMP JUMPDEST POP POP POP POP POP JUMP JUMPDEST PUSH1 0x40 MLOAD PUSH4 0x1C57762B PUSH1 0xE3 SHL DUP2 MSTORE PUSH32 0x0 PUSH1 0x4 DUP3 ADD MSTORE PUSH1 0x24 DUP2 ADD DUP3 SWAP1 MSTORE PUSH32 0x0 PUSH1 0x1 PUSH1 0x1 PUSH1 0xA0 SHL SUB AND SWAP1 PUSH4 0xE2BBB158 SWAP1 PUSH1 0x44 ADD JUMPDEST PUSH1 0x0 PUSH1 0x40 MLOAD DUP1 DUP4 SUB DUP2 PUSH1 0x0 DUP8 DUP1 EXTCODESIZE ISZERO DUP1 ISZERO PUSH2 0x1A20 JUMPI PUSH1 0x0 DUP1 REVERT JUMPDEST POP GAS CALL ISZERO DUP1 ISZERO PUSH2 0x1990 JUMPI RETURNDATASIZE PUSH1 0x0 DUP1 RETURNDATACOPY RETURNDATASIZE PUSH1 0x0 REVERT JUMPDEST PUSH1 0x40 MLOAD PUSH4 0x441A3E7 PUSH1 0xE4 SHL DUP2 MSTORE PUSH32 0x0 PUSH1 0x4 DUP3 ADD MSTORE PUSH1 0x24 DUP2 ADD DUP3 SWAP1 MSTORE PUSH32 0x0 PUSH1 0x1 PUSH1 0x1 PUSH1 0xA0 SHL SUB AND SWAP1 PUSH4 0x441A3E70 SWAP1 PUSH1 0x44 ADD PUSH2 0x1A06 JUMP JUMPDEST PUSH1 0x40 MLOAD PUSH4 0x29897547 PUSH1 0xE1 SHL DUP2 MSTORE PUSH32 0x0 PUSH1 0x4 DUP3 ADD MSTORE PUSH32 0x0 PUSH1 0x1 PUSH1 0x1 PUSH1 0xA0 SHL SUB AND SWAP1 PUSH4 0x5312EA8E SWAP1 PUSH1 0x24 ADD PUSH1 0x0 PUSH1 0x40 MLOAD DUP1 DUP4 SUB DUP2 PUSH1 0x0 DUP8 DUP1 EXTCODESIZE ISZERO DUP1 ISZERO PUSH2 0x1B28 JUMPI PUSH1 0x0 DUP1 REVERT JUMPDEST POP GAS CALL ISZERO DUP1 ISZERO PUSH2 0x1B3C JUMPI RETURNDATASIZE PUSH1 0x0 DUP1 RETURNDATACOPY RETURNDATASIZE PUSH1 0x0 REVERT JUMPDEST POP POP POP POP JUMP JUMPDEST DUP2 PUSH1 0x14 MSTORE DUP1 PUSH1 0x34 MSTORE PUSH16 0x95EA7B3000000000000000000000000 PUSH1 0x0 MSTORE PUSH1 0x20 PUSH1 0x0 PUSH1 0x44 PUSH1 0x10 PUSH1 0x0 DUP8 GAS CALL RETURNDATASIZE ISZERO PUSH1 0x1 PUSH1 0x0 MLOAD EQ OR AND PUSH2 0x17B2 JUMPI PUSH4 0x3E3F8F73 PUSH1 0x0 MSTORE PUSH1 0x4 PUSH1 0x1C REVERT JUMPDEST PUSH1 0x60 DUP3 SELFBALANCE LT ISZERO PUSH2 0x1BFF JUMPI PUSH1 0x40 MLOAD PUSH3 0x461BCD PUSH1 0xE5 SHL DUP2 MSTORE PUSH1 0x20 PUSH1 0x4 DUP3 ADD MSTORE PUSH1 0x26 PUSH1 0x24 DUP3 ADD MSTORE PUSH32 0x416464726573733A20696E73756666696369656E742062616C616E636520666F PUSH1 0x44 DUP3 ADD MSTORE PUSH32 0x722063616C6C0000000000000000000000000000000000000000000000000000 PUSH1 0x64 DUP3 ADD MSTORE PUSH1 0x84 ADD PUSH2 0x54D JUMP JUMPDEST PUSH1 0x0 DUP1 DUP7 PUSH1 0x1 PUSH1 0x1 PUSH1 0xA0 SHL SUB AND DUP6 DUP8 PUSH1 0x40 MLOAD PUSH2 0x1C1B SWAP2 SWAP1 PUSH2 0x2159 JUMP JUMPDEST PUSH1 0x0 PUSH1 0x40 MLOAD DUP1 DUP4 SUB DUP2 DUP6 DUP8 GAS CALL SWAP3 POP POP POP RETURNDATASIZE DUP1 PUSH1 0x0 DUP2 EQ PUSH2 0x1C58 JUMPI PUSH1 0x40 MLOAD SWAP2 POP PUSH1 0x1F NOT PUSH1 0x3F RETURNDATASIZE ADD AND DUP3 ADD PUSH1 0x40 MSTORE RETURNDATASIZE DUP3 MSTORE RETURNDATASIZE PUSH1 0x0 PUSH1 0x20 DUP5 ADD RETURNDATACOPY PUSH2 0x1C5D JUMP JUMPDEST PUSH1 0x60 SWAP2 POP JUMPDEST POP SWAP2 POP SWAP2 POP PUSH2 0x1C6E DUP8 DUP4 DUP4 DUP8 PUSH2 0x1C7B JUMP JUMPDEST SWAP3 POP POP POP JUMPDEST SWAP5 SWAP4 POP POP POP POP JUMP JUMPDEST PUSH1 0x60 DUP4 ISZERO PUSH2 0x1CEA JUMPI DUP3 MLOAD PUSH1 0x0 SUB PUSH2 0x1CE3 JUMPI PUSH1 0x1 PUSH1 0x1 PUSH1 0xA0 SHL SUB DUP6 AND EXTCODESIZE PUSH2 0x1CE3 JUMPI PUSH1 0x40 MLOAD PUSH3 0x461BCD PUSH1 0xE5 SHL DUP2 MSTORE PUSH1 0x20 PUSH1 0x4 DUP3 ADD MSTORE PUSH1 0x1D PUSH1 0x24 DUP3 ADD MSTORE PUSH32 0x416464726573733A2063616C6C20746F206E6F6E2D636F6E7472616374000000 PUSH1 0x44 DUP3 ADD MSTORE PUSH1 0x64 ADD PUSH2 0x54D JUMP JUMPDEST POP DUP2 PUSH2 0x1C73 JUMP JUMPDEST PUSH2 0x1C73 DUP4 DUP4 DUP2 MLOAD ISZERO PUSH2 0x1CFF JUMPI DUP2 MLOAD DUP1 DUP4 PUSH1 0x20 ADD REVERT JUMPDEST DUP1 PUSH1 0x40 MLOAD PUSH3 0x461BCD PUSH1 0xE5 SHL DUP2 MSTORE PUSH1 0x4 ADD PUSH2 0x54D SWAP2 SWAP1 PUSH2 0x21CB JUMP JUMPDEST DUP1 CALLDATALOAD PUSH1 0x1 PUSH1 0x1 PUSH1 0xA0 SHL SUB DUP2 AND DUP2 EQ PUSH2 0xEFB JUMPI PUSH1 0x0 DUP1 REVERT JUMPDEST DUP1 ISZERO ISZERO DUP2 EQ PUSH2 0xFC6 JUMPI PUSH1 0x0 DUP1 REVERT JUMPDEST PUSH1 0x0 DUP1 PUSH1 0x0 PUSH1 0x60 DUP5 DUP7 SUB SLT ISZERO PUSH2 0x1D53 JUMPI PUSH1 0x0 DUP1 REVERT JUMPDEST PUSH2 0x1D5C DUP5 PUSH2 0x1D19 JUMP JUMPDEST SWAP3 POP PUSH1 0x20 DUP5 ADD CALLDATALOAD PUSH2 0x1D6C DUP2 PUSH2 0x1D30 JUMP JUMPDEST SWAP2 POP PUSH1 0x40 DUP5 ADD CALLDATALOAD PUSH2 0x1D7C DUP2 PUSH2 0x1D30 JUMP JUMPDEST DUP1 SWAP2 POP POP SWAP3 POP SWAP3 POP SWAP3 JUMP JUMPDEST PUSH1 0x0 DUP1 PUSH1 0x0 PUSH1 0x40 DUP5 DUP7 SUB SLT ISZERO PUSH2 0x1D9C JUMPI PUSH1 0x0 DUP1 REVERT JUMPDEST DUP4 CALLDATALOAD SWAP3 POP PUSH1 0x20 DUP5 ADD CALLDATALOAD PUSH8 0xFFFFFFFFFFFFFFFF DUP1 DUP3 GT ISZERO PUSH2 0x1DBB JUMPI PUSH1 0x0 DUP1 REVERT JUMPDEST DUP2 DUP7 ADD SWAP2 POP DUP7 PUSH1 0x1F DUP4 ADD SLT PUSH2 0x1DCF JUMPI PUSH1 0x0 DUP1 REVERT JUMPDEST DUP2 CALLDATALOAD DUP2 DUP2 GT ISZERO PUSH2 0x1DDE JUMPI PUSH1 0x0 DUP1 REVERT JUMPDEST DUP8 PUSH1 0x20 DUP3 DUP6 ADD ADD GT ISZERO PUSH2 0x1DF0 JUMPI PUSH1 0x0 DUP1 REVERT JUMPDEST PUSH1 0x20 DUP4 ADD SWAP5 POP DUP1 SWAP4 POP POP POP POP SWAP3 POP SWAP3 POP SWAP3 JUMP JUMPDEST PUSH1 0x0 DUP1 PUSH1 0x40 DUP4 DUP6 SUB SLT ISZERO PUSH2 0x1E16 JUMPI PUSH1 0x0 DUP1 REVERT JUMPDEST DUP3 CALLDATALOAD SWAP2 POP PUSH2 0x1E26 PUSH1 0x20 DUP5 ADD PUSH2 0x1D19 JUMP JUMPDEST SWAP1 POP SWAP3 POP SWAP3 SWAP1 POP JUMP JUMPDEST PUSH1 0x0 PUSH1 0x20 DUP3 DUP5 SUB SLT ISZERO PUSH2 0x1E41 JUMPI PUSH1 0x0 DUP1 REVERT JUMPDEST POP CALLDATALOAD SWAP2 SWAP1 POP JUMP JUMPDEST PUSH1 0x0 PUSH1 0x20 DUP3 DUP5 SUB SLT ISZERO PUSH2 0x1E5A JUMPI PUSH1 0x0 DUP1 REVERT JUMPDEST PUSH2 0x16FA DUP3 PUSH2 0x1D19 JUMP JUMPDEST PUSH1 0x0 DUP1 PUSH1 0x40 DUP4 DUP6 SUB SLT ISZERO PUSH2 0x1E76 JUMPI PUSH1 0x0 DUP1 REVERT JUMPDEST PUSH2 0x1E7F DUP4 PUSH2 0x1D19 JUMP JUMPDEST SWAP2 POP PUSH1 0x20 DUP4 ADD CALLDATALOAD PUSH2 0x1E8F DUP2 PUSH2 0x1D30 JUMP JUMPDEST DUP1 SWAP2 POP POP SWAP3 POP SWAP3 SWAP1 POP JUMP JUMPDEST PUSH1 0x0 DUP1 PUSH1 0x0 DUP1 PUSH1 0x80 DUP6 DUP8 SUB SLT ISZERO PUSH2 0x1EB0 JUMPI PUSH1 0x0 DUP1 REVERT JUMPDEST DUP5 CALLDATALOAD SWAP4 POP PUSH1 0x20 DUP6 ADD CALLDATALOAD PUSH2 0x1EC2 DUP2 PUSH2 0x1D30 JUMP JUMPDEST SWAP3 POP PUSH1 0x40 DUP6 ADD CALLDATALOAD SWAP2 POP PUSH1 0x60 DUP6 ADD CALLDATALOAD PUSH2 0x1ED9 DUP2 PUSH2 0x1D30 JUMP JUMPDEST SWAP4 SWAP7 SWAP3 SWAP6 POP SWAP1 SWAP4 POP POP JUMP JUMPDEST PUSH4 0x4E487B71 PUSH1 0xE0 SHL PUSH1 0x0 MSTORE PUSH1 0x41 PUSH1 0x4 MSTORE PUSH1 0x24 PUSH1 0x0 REVERT JUMPDEST PUSH1 0x40 MLOAD PUSH1 0x1F DUP3 ADD PUSH1 0x1F NOT AND DUP2 ADD PUSH8 0xFFFFFFFFFFFFFFFF DUP2 GT DUP3 DUP3 LT OR ISZERO PUSH2 0x1F23 JUMPI PUSH2 0x1F23 PUSH2 0x1EE4 JUMP JUMPDEST PUSH1 0x40 MSTORE SWAP2 SWAP1 POP JUMP JUMPDEST PUSH1 0x0 DUP1 PUSH1 0x0 PUSH1 0x60 DUP5 DUP7 SUB SLT ISZERO PUSH2 0x1F40 JUMPI PUSH1 0x0 DUP1 REVERT JUMPDEST PUSH2 0x1F49 DUP5 PUSH2 0x1D19 JUMP JUMPDEST SWAP3 POP PUSH1 0x20 DUP1 DUP6 ADD CALLDATALOAD SWAP3 POP PUSH1 0x40 DUP6 ADD CALLDATALOAD PUSH8 0xFFFFFFFFFFFFFFFF DUP1 DUP3 GT ISZERO PUSH2 0x1F6E JUMPI PUSH1 0x0 DUP1 REVERT JUMPDEST DUP2 DUP8 ADD SWAP2 POP DUP8 PUSH1 0x1F DUP4 ADD SLT PUSH2 0x1F82 JUMPI PUSH1 0x0 DUP1 REVERT JUMPDEST DUP2 CALLDATALOAD DUP2 DUP2 GT ISZERO PUSH2 0x1F94 JUMPI PUSH2 0x1F94 PUSH2 0x1EE4 JUMP JUMPDEST PUSH2 0x1FA6 PUSH1 0x1F DUP3 ADD PUSH1 0x1F NOT AND DUP6 ADD PUSH2 0x1EFA JUMP JUMPDEST SWAP2 POP DUP1 DUP3 MSTORE DUP9 DUP5 DUP3 DUP6 ADD ADD GT ISZERO PUSH2 0x1FBC JUMPI PUSH1 0x0 DUP1 REVERT JUMPDEST DUP1 DUP5 DUP5 ADD DUP6 DUP5 ADD CALLDATACOPY PUSH1 0x0 DUP5 DUP3 DUP5 ADD ADD MSTORE POP DUP1 SWAP4 POP POP POP POP SWAP3 POP SWAP3 POP SWAP3 JUMP JUMPDEST PUSH1 0x0 DUP1 PUSH1 0x40 DUP4 DUP6 SUB SLT ISZERO PUSH2 0x1FED JUMPI PUSH1 0x0 DUP1 REVERT JUMPDEST PUSH2 0x1FF6 DUP4 PUSH2 0x1D19 JUMP JUMPDEST SWAP2 POP PUSH1 0x20 DUP4 ADD CALLDATALOAD PUSH2 0xFFFF DUP2 AND DUP2 EQ PUSH2 0x1E8F JUMPI PUSH1 0x0 DUP1 REVERT JUMPDEST PUSH1 0x0 PUSH1 0x20 DUP3 DUP5 SUB SLT ISZERO PUSH2 0x201F JUMPI PUSH1 0x0 DUP1 REVERT JUMPDEST POP MLOAD SWAP2 SWAP1 POP JUMP JUMPDEST PUSH4 0x4E487B71 PUSH1 0xE0 SHL PUSH1 0x0 MSTORE PUSH1 0x11 PUSH1 0x4 MSTORE PUSH1 0x24 PUSH1 0x0 REVERT JUMPDEST DUP2 DUP2 SUB DUP2 DUP2 GT ISZERO PUSH2 0xD39 JUMPI PUSH2 0xD39 PUSH2 0x2026 JUMP JUMPDEST DUP1 MLOAD PUSH16 0xFFFFFFFFFFFFFFFFFFFFFFFFFFFFFFFF DUP2 AND DUP2 EQ PUSH2 0xEFB JUMPI PUSH1 0x0 DUP1 REVERT JUMPDEST PUSH1 0x0 PUSH1 0x40 DUP3 DUP5 SUB SLT ISZERO PUSH2 0x2081 JUMPI PUSH1 0x0 DUP1 REVERT JUMPDEST PUSH1 0x40 MLOAD PUSH1 0x40 DUP2 ADD DUP2 DUP2 LT PUSH8 0xFFFFFFFFFFFFFFFF DUP3 GT OR ISZERO PUSH2 0x20A4 JUMPI PUSH2 0x20A4 PUSH2 0x1EE4 JUMP JUMPDEST PUSH1 0x40 MSTORE PUSH2 0x20B0 DUP4 PUSH2 0x204F JUMP JUMPDEST DUP2 MSTORE PUSH2 0x20BE PUSH1 0x20 DUP5 ADD PUSH2 0x204F JUMP JUMPDEST PUSH1 0x20 DUP3 ADD MSTORE SWAP4 SWAP3 POP POP POP JUMP JUMPDEST DUP1 DUP3 ADD DUP3 DUP2 SLT PUSH1 0x0 DUP4 SLT DUP1 ISZERO DUP3 AND DUP3 ISZERO DUP3 AND OR ISZERO PUSH2 0x20EA JUMPI PUSH2 0x20EA PUSH2 0x2026 JUMP JUMPDEST POP POP SWAP3 SWAP2 POP POP JUMP JUMPDEST PUSH1 0x0 PUSH1 0x1 PUSH1 0xFF SHL DUP3 ADD PUSH2 0x2107 JUMPI PUSH2 0x2107 PUSH2 0x2026 JUMP JUMPDEST POP PUSH1 0x0 SUB SWAP1 JUMP JUMPDEST DUP2 DUP2 SUB PUSH1 0x0 DUP4 SLT DUP1 ISZERO DUP4 DUP4 SGT AND DUP4 DUP4 SLT DUP3 AND OR ISZERO PUSH2 0x212E JUMPI PUSH2 0x212E PUSH2 0x2026 JUMP JUMPDEST POP SWAP3 SWAP2 POP POP JUMP JUMPDEST PUSH1 0x0 JUMPDEST DUP4 DUP2 LT ISZERO PUSH2 0x2150 JUMPI DUP2 DUP2 ADD MLOAD DUP4 DUP3 ADD MSTORE PUSH1 0x20 ADD PUSH2 0x2138 JUMP JUMPDEST POP POP PUSH1 0x0 SWAP2 ADD MSTORE JUMP JUMPDEST PUSH1 0x0 DUP3 MLOAD PUSH2 0x216B DUP2 DUP5 PUSH1 0x20 DUP8 ADD PUSH2 0x2135 JUMP JUMPDEST SWAP2 SWAP1 SWAP2 ADD SWAP3 SWAP2 POP POP JUMP JUMPDEST DUP1 DUP3 MUL DUP2 ISZERO DUP3 DUP3 DIV DUP5 EQ OR PUSH2 0xD39 JUMPI PUSH2 0xD39 PUSH2 0x2026 JUMP JUMPDEST PUSH1 0x0 DUP3 PUSH2 0x21A9 JUMPI PUSH4 0x4E487B71 PUSH1 0xE0 SHL PUSH1 0x0 MSTORE PUSH1 0x12 PUSH1 0x4 MSTORE PUSH1 0x24 PUSH1 0x0 REVERT JUMPDEST POP DIV SWAP1 JUMP JUMPDEST PUSH1 0x0 PUSH1 0x20 DUP3 DUP5 SUB SLT ISZERO PUSH2 0x21C0 JUMPI PUSH1 0x0 DUP1 REVERT JUMPDEST DUP2 MLOAD PUSH2 0x16FA DUP2 PUSH2 0x1D30 JUMP JUMPDEST PUSH1 0x20 DUP2 MSTORE PUSH1 0x0 DUP3 MLOAD DUP1 PUSH1 0x20 DUP5 ADD MSTORE PUSH2 0x21EA DUP2 PUSH1 0x40 DUP6 ADD PUSH1 0x20 DUP8 ADD PUSH2 0x2135 JUMP JUMPDEST PUSH1 0x1F ADD PUSH1 0x1F NOT AND SWAP2 SWAP1 SWAP2 ADD PUSH1 0x40 ADD SWAP3 SWAP2 POP POP JUMP INVALID LOG2 PUSH5 0x6970667358 0x22 SLT KECCAK256 SWAP15 BYTE 0xF 0xC0 SWAP2 0xD SWAP11 DUP3 0xE7 PUSH25 0xA6376D9D4B3BF344045929B75A0A3DFF18E40C3300AD64736F PUSH13 0x63430008140033000000000000 "
        },
        "methodIdentifiers": {
          "afterExit(address,uint256,bytes)": "d9253c2d",
          "bentoBox()": "6b2ace87",
          "claimOwnership()": "4e71e0c8",
          "exit(uint256)": "7f8661a1",
          "exited()": "5ce6c327",
          "feeBips()": "d22290a4",
          "feeCollector()": "c415b95c",
          "harvest(uint256,address)": "18fccc76",
          "isFeeOperator(address)": "5a0af2e3",
          "maxBentoBoxBalance()": "e8bd73a5",
          "owner()": "8da5cb5b",
          "pendingOwner()": "e30c3978",
          "pid()": "f1068454",
          "poolId()": "3e0dc34e",
          "rewardToken()": "f7c618c1",
          "router()": "f887ea40",
          "safeHarvest(uint256,bool,uint256,bool)": "ba6275ab",
          "setFeeParameters(address,uint16)": "eacbb63f",
          "setStargateSwapper(address)": "d08a3160",
          "setStrategyExecutor(address,bool)": "74ceb267",
          "skim(uint256)": "6939aaf5",
          "staking()": "4cf088d9",
          "stargateSwapper()": "0f0319c3",
          "strategyExecutors(address)": "5066ebdd",
          "strategyToken()": "747efea1",
          "swapToLP(uint256,bytes)": "15289fc3",
          "transferOwnership(address,bool,bool)": "078dfbe7",
          "underlyingToken()": "2495a599",
          "withdraw(uint256)": "2e1a7d4d"
        }
      }
    }
  }
}